:020000040800F2
:10000000D8110320C5020008092400086F22000847
:1000100005240008F1090008092D0008000000006F
:100020000000000000000000000000000D020008B9
:100030008D0A00080000000061020008C1280008C5
:10004000DF020008DF020008DF020008DF0200080C
:10005000DF020008DF020008DF020008DF020008FC
:10006000DF020008DF020008DF020008DF020008EC
:10007000DF020008DF020008DF020008DF020008DC
:10008000DF020008DF020008DF020008DF020008CC
:10009000DF020008DF020008DF020008DF020008BC
:1000A000DF020008DF020008DF020008DF020008AC
:1000B000DF020008DF020008DF020008DF0200089C
:1000C000DF020008DF020008DF020008DF0200088C
:1000D000DF020008C12C0008E52C0008DF02000840
:1000E000DF020008DF020008DF020008DF0200086C
:1000F000DF020008DF020008DF020008DF0200085C
:10010000DF020008DF020008DF020008DF0200084B
:10011000DF020008F9290008DF020008DF020008FA
:10012000DF020008DF020008DF020008DF0200082B
:10013000DF020008DF020008DF020008DF0200081B
:10014000DF020008DF020008DF020008DF0200080B
:10015000DF020008DF020008DF020008DF020008FB
:10016000DF020008DF020008DF020008DF020008EB
:10017000DF020008DF020008DF02000800000000C4
:10018000DF020008DF020008DF020008DF020008CB
:10019000DF020008DF020008DF020008DF020008BB
:1001A000DF020008DF020008DF020008DF020008AB
:1001B000DF020008DF020008DF020008DF0200089B
:1001C000DF020008DF020008DF020008DF0200088B
:1001D000DF020008DF020008DF020008DF0200087B
:1001E000DF020008DF020008DF020008DF0200086B
:1001F000DF020008DF020008DFF80CD000F086FA0A
:1002000000480047A9360008D81103202A4B196876
:100210000868B0E8F04F80F30988BFF36F8F4FF0A4
:10022000000080F311887047000000000648006855
:10023000006880F3088862B661B6BFF34F8FBFF3E2
:100240006F8F00DF00BF00BF08ED00E0DFF80C009B
:10025000016841F470010160704700BF88ED00E063
:10026000EFF30980BFF36F8F134B1A681EF0100F66
:1002700008BF20ED108A20E9F04F106008B44FF05D
:10028000500080F31188BFF34F8FBFF36F8F03F0DF
:10029000D9FA4FF0000080F3118808BC196808688B
:1002A000B0E8F04F1EF0100F08BFB0EC108A80F3DA
:1002B0000988BFF36F8F704714000220EFF30580A9
:1002C000704700000648804706480047FEE7FEE703
:1002D000FEE7FEE7FEE7FEE7FEE7FEE7FEE7FEE7F6
:1002E00095290008F901000840EA01039B0703D0A3
:1002F00009E008C9121F08C0042AFAD203E011F865
:10030000013B00F8013B521EF9D2704730B50B4655
:10031000014600202022012409E021FA02F59D4235
:1003200005D303FA02F5491B04FA02F52844151E09
:10033000A2F10102F1DC30BD2DE9F05F054600209D
:1003400092469B4688460646814640241BE0284646
:1003500041464746224600F0FAF953465A46C01A2B
:10036000914110D311461846224600F0E1F92D1AAA
:1003700067EB01084F4622460120002100F0D8F922
:1003800017EB00094E41201EA4F10104DFDC4846B2
:1003900031462A464346BDE8F09F2DE9FE4F804690
:1003A00081EA0300C00F0C46009021F0004123F0C9
:1003B0000045B8EB0200A94105D2404621469046CF
:1003C0001C460B46024623F00040104347D0270D41
:1003D000C7F30A00C3F30A510290401A0190402863
:1003E0006BDAC3F3130040F4801B0098924620B1EF
:1003F0000023D2EB030A63EB0B0B01985946C0F1C3
:100400004002504600F094F906460D4650465946C3
:10041000019A00F0ACF910EB08006141002487EA72
:10042000115284EAE7731A4340D0009A62B3019AEA
:10043000012A4FEA075215DC001B61EB02014FF065
:10044000004202EA0752CDE90042001C41F580114A
:1004500032462B4600F0ACF903B0BDE8F08F4046C1
:100460002146F9E7001B61EB0201001C41F58013F6
:1004700000185B412018A2F5001747EB030140EA82
:10048000D570B6196D4111E06D084FEA360645EAA0
:10049000C0754FEA0752001B61EB0201001C41F5D9
:1004A000801149084FEA30000019514132462B466D
:1004B00003B0BDE8F04F00F06CB900980122400095
:1004C0000023D0EB020263EBE073009821464FEA71
:1004D000E074B8EB000061EB0401E9E783F000434E
:1004E0005BE781F0004158E72DE9FE4F81EA030404
:1004F00004F0004421F0004100944FF0000B23F081
:10050000004350EA01045ED052EA03045BD0C3F317
:100510000A54C1F30A552C44A4F2F3340194A0FB0D
:100520000254C1F3130141F48011C3F3130343F4E4
:10053000801301FB024400FB034E840A970A44EA3D
:10054000815447EA8357A4FB076802958D0A05FB8F
:1005500007854FEA932C04FB0C542705029D4FEAB4
:10056000065847EA1637B5EB08056EEB070C870E01
:10057000920E47EA811742EA8312A7FB0201B6EB0B
:100580000B0164EB00042B0D43EA0C335E1844EBC3
:100590001C50DA465146E7FB0201C5F313044FEA4B
:1005A0000B3343EA14534FEA0432019C43EA060337
:1005B000A4F10C040294009CCDE900B400F0F8F81A
:1005C00003B0BDE8F08F00200146F9E72DE9F04DBA
:1005D00081EA030404F0004B21F0004514464FF07B
:1005E000000A23F0004150EA050220D054EA01023B
:1005F0001DD0C5F30A570246C5F31303C1F3130018
:10060000C1F30A5640F4801543F48013A7EB0608A3
:10061000101BD64608F2FD3873EB050002D308F133
:10062000010801E092185B41B8F1000F03DA0020E5
:100630000146BDE8F08D00204FF480110646844647
:100640000EE0171B73EB050705D3121B63EB0503C5
:1006500006434CEA010C49084FEA300092185B410E
:1006600050EA0107EDD152EA030012D082EA0400F9
:1006700083EA0501084305D0101BAB4106D20122D5
:10068000002306E000224FF0004302E06FF0010279
:1006900053101AEB06004CEB085110EB0A0041EB2B
:1006A0000B01BDE8F04D00F074B8C1F30A52C1F37C
:1006B000130140F2FF3341F480119A4202DA002024
:1006C0000146704740F233439A42A2F2334202DCC1
:1006D000524200F03CB800F02BB8000030B5041EC8
:1006E00071F1000404DB4FF00044404264EB01016F
:1006F000141E73F1000405DB1C464FF00043524208
:1007000063EB0403994208BF904230BD064C074D8D
:1007100006E0E06840F0010394E8070098471034D1
:10072000AC42F6D3FFF76CFDEC3A00080C3B000836
:10073000202A04DB203A00FA02F1002070479140A1
:10074000C2F1200320FA03F3194390407047202A96
:1007500004DB203A21FA02F00021704721FA02F36B
:10076000D040C2F120029140084319467047202A28
:1007700006DBCB17203A41FA02F043EAE07306E0C9
:1007800041FA02F3D040C2F12002914008431946D9
:10079000704710B5141E73F1000408DA401C41F1D3
:1007A000000192185B411A4301D120F0010010BDF5
:1007B0002DE9F04D92469B4611B1B1FA81F202E06B
:1007C000B0FA80F220329046FFF7B2FF04460F469F
:1007D00040EA0A0041EA0B0153465A46084313D047
:1007E000114653EA010019D0C8F140025046FFF704
:1007F000AEFF05460E46504659464246FFF798FF63
:10080000084305D0012004E020463946BDE8F08DBC
:100810000020054346EAE0762C4337430A986305F7
:10082000E40AA0EB08000022FD0A44EA47540A301B
:1008300002D500200146E9E7010510196941DDE90B
:10084000084500196941BDE8F04DA2E710B59AB01E
:1008500001244FF0204008901C480990042001908A
:1008600003200290082003900120049005200590A9
:1008700002200690002007900A9000210B91082189
:100880000C9110210D9100210E910F9110912103D7
:1008900011914900129100211391E103149100215B
:1008A000159121051691002108A800F011F801AA60
:1008B00001A908A800F0B2FE00B100E0002428461B
:1008C00001F0D8FC20461AB010BD0000040100A0C1
:1008D00030B587B004460D4600BF3F48006840F081
:1008E00001003D4908600846006800F001000190E1
:1008F00000BF00BF00BF38480838006840F008005B
:100900003549083908600846006800F00800019081
:1009100000BF00BF00BF0846006840F00400086048
:100920000846006800F00400019000BF00BF00BF4F
:100930000846006840F0100008600846006800F0B3
:100940001000019000BF00BF00BF0846006840F0E3
:10095000200008600846006800F02000019000BFF9
:1009600000BF00BF0846006840F04000086008462D
:10097000006800F04000019000BF00BF022003901B
:10098000012004900320059009200690C0200290C9
:1009900002A9124800F0D0FC0C2006904FF63370EC
:1009A000029002A90E4800F0C7FC4FF6FC700290BE
:1009B00002A90C4800F0C0FC4FF23F00029002A9CF
:1009C000094800F0B9FC3F20029002A9074800F056
:1009D000B3FC07B030BD00003838024000080240C8
:1009E000000C0240001002400014024000180240B7
:1009F00000BFFEE710B500BF00BF00BF00BF00BFD3
:100A0000BFF34F8F00BF00BF00BF00BF00BF00BFDC
:100A1000BFF36F8F00BF00BF00BF00201149086007
:100A20001148006840F400300F49086000BF00BF63
:100A300000BFBFF34F8F00BF00BF00BF00BF00BFAC
:100A400000BFBFF36F8F00BF00BF00BF00BF01F04A
:100A5000A5FD04484C30006840F0040001494C31C9
:100A6000086010BD50EF00E014ED00E010B5024644
:100A70000B4605E012F8014BFF2C01D0012010BD00
:100A8000181EA3F10103F5D100BFF8E7704700007D
:100A900010B54FF40031024801F0F4FB10BD000026
:100AA0000000020810B5002201B909E0012901D1B6
:100AB0000A0205E0022901D10A0201E04FF4407266
:100AC0000B2800D9001D154B1B6823F44073134CF1
:100AD000236023461B681343236023461B6823F0CF
:100AE000F803236023461B68F82494FAA4F4B4FAAC
:100AF00084F400FA04F444F002042343074C236016
:100B000023461B6843F48033236000BF00BF00BF4F
:100B1000BFF34F8F00BF00BF00BF10BD103C0240AD
:100B2000174A126822F44072154B1A60032906D145
:100B30001A461268DB131A43114B1A600EE00229A1
:100B400006D10F4A126842F400420D4B1A6005E0CC
:100B50000B4A126842F00402094B1A60084A1268F4
:100B60004FF4803343EA00231A43054B1A6000BF59
:100B700000BF00BFBFF34F8F00BF00BF00BF704773
:100B8000103C024001460448006820F00C00084375
:100B9000014A106000207047143C024070B50546C1
:100BA0000C4600264CF2503000F064F906467EB93F
:100BB000102D07D1074800686FF30F002043054947
:100BC000086005E00348006864F31F4001490860BD
:100BD000304670BD183C024070B5044600254CF20A
:100BE000503000F047F9054625B903480068204316
:100BF00001490860284670BD143C024070B50446A7
:100C000000254CF2503000F035F9054625B903486F
:100C10000068A04301490860284670BD143C0240AA
:100C20000248006800F00C0070470000143C0240CD
:100C300001460020102903D1034A126890B202E055
:100C4000014A1268100C7047183C0240AA2006495D
:100C50000978AA2900D106E003490978CC2901D1F5
:100C6000CC2000E055207047153C02400248006847
:100C70000249084070470000143C0240F00000F0B8
:100C8000024800680249084070470000143C0240D6
:100C90000000FF0F70B5044600254CF2503000F004
:100CA000E9F805460DB902480470284670BD0000F9
:100CB000153C02402DE9FC5F04460D4616461F46D2
:100CC000DDE90DABDDF8309000200190009080460A
:100CD0004CF2503000F0CEF88046B8F1000F16D13B
:100CE0000C48019045EA04003043384340EA0900CB
:100CF00040EA0A000F99084340EA0B0000900648BA
:100D000000680199884300990843034908604046F8
:100D1000BDE8FC9FF00000F0143C02400B4A126852
:100D200022F44072094B1A601A4612681A601A4679
:100D3000126842F001021A60017000BF00BF00BFDC
:100D4000BFF34F8F00BF00BF00BF7047103C024091
:100D500010B50D49096821F440710B4C2160214602
:100D6000096841F4407121602146096841F00101A0
:100D700021600260436000BF00BF00BFBFF34F8F20
:100D800000BF00BF00BF10BD103C02400C4A1268FB
:100D900022F440720A4B1A601A46126842F48072BA
:100DA0001A601A46126842F001021A60018000BF00
:100DB00000BF00BFBFF34F8F00BF00BF00BF704731
:100DC000103C02400C4A126822F440720A4B1A602E
:100DD0001A46126842F400721A601A46126842F00B
:100DE00001021A60016000BF00BF00BFBFF34F8F58
:100DF00000BF00BF00BF7047103C02401B480068A6
:100E000000F0100028B11A48806940F0100018491D
:100E100088611648006800F0200028B114488069F5
:100E200040F00800124988611048006800F0400056
:100E300028B10F48806940F004000D4988610B48D3
:100E4000006800F0800028B10948806940F0020085
:100E5000074988610548006800F0020028B104488D
:100E6000806940F020000249886170470C3C0240D4
:100E70008800022070B504460025002010498861D2
:100E800000F066FB054609E0601C38B124B100F0B3
:100E90005FFB401BA04201D9032070BD09480068D8
:100EA00000F480300028EFD10648006800F0F2001E
:100EB00018B1FFF7A3FF0120EFE70020EDE70000E6
:100EC000880002200C3C024070B504461D460023F9
:100ED000B5F5804F13D154F822300C480340D1E9C6
:100EE000000640EA06108E6840EA06208E8940EA35
:100EF00006408E693043034344F8223003E06FF02C
:100F0000704044F82200002070BD00000000F0CFC7
:100F100010B502460023086852F820301B480340F1
:100F2000D1E901042043CC6820430C6920434C697B
:100F300020438C692043CC6920430C6A20434C6ACF
:100F400020438C6A2043CC6A20430C6B20438C6B7B
:100F500020434C6B204303438868082801D143F0A9
:100F60004003086842F82030086BB0F5801F05D1B7
:100F7000086818B110680C6B20431060086818B13D
:100F800010684C6B20431060002010BD8004C0FF2F
:100F900030B5034614460022601C53F8202002F0AE
:100FA0004042D1E9000540EA05108D6840EA05207D
:100FB0008D8940EA0545088A401E45EA0055087DAE
:100FC000801E45EA00608D6928430243601C43F897
:100FD0002020186800F4801038B1586820F470029E
:100FE000088A401E42EA00525A60002030BD0000CC
:100FF0002DE9F041054600240026002701F082F982
:10100000074600BF10E007EB4700094901EBC000AD
:10101000005D401C06EB802606F10060A84202D36A
:10102000601CBDE8F081641C172CECD32046F8E767
:10103000BC3A0008014691F83500022803D0802010
:10104000486501207047052081F835000868006870
:1010500020F001000A6810600020F3E72DE9F0415C
:1010600004460E460127002500BF2548007D0128C3
:1010700002D10220BDE8F08101202149087500BF9E
:101080004CF25030FFF7F6FE0746002F30D1401EDD
:1010900030602068012810D1207C6168FFF740FD96
:1010A0004CF25030FFF7E6FE07461648006848F25B
:1010B00004018843134908601AE0A56812E0217C06
:1010C0002846FFF7EFFC4CF25030FFF7D3FE0746FF
:1010D0000C48006820F0FA000A4908600FB135603A
:1010E00005E06D1CD4E902100844A842E7D800BF0F
:1010F00000BF00200249087500BF3846BAE700006B
:1011000088000220103C024010B504463F202060B9
:10111000FFF7B6FDA060FFF799FDE060FFF7A6FDC1
:101120006061FFF77DFD20611020FFF781FDA06168
:101130002020FFF77DFDE06110BD00007FB5044673
:10114000012500BF3348007D012802D1022004B0F0
:1011500070BD01202F49087500BF207800F0010004
:1011600058B16068012804D1A068FFF747FD054623
:1011700003E0A068FFF730FD0546207800F002008C
:10118000022803D1207BFFF785FD0546207800F07B
:10119000040004281BD1606900F08050616901F0EF
:1011A0000051626902F08042636903F00043CDE9B7
:1011B0000032CDE90210267D06F0800306F04002E1
:1011C00006F0200106F01000FFF774FD05462078B8
:1011D00000F00800082803D1207CFFF7D3FC054667
:1011E000207800F01000102803D1A169FFF7D6FC89
:1011F0000546207800F02000202803D1E169FFF7A0
:10120000CDFC054600BF00200249087500BF2846F6
:101210009DE70000880002200348006840F000407D
:101220000149086000207047103C024003480068F4
:1012300040F001000149086000207047143C024062
:101240000748006800F0010030B1064804490C3935
:1012500008600548086001E0012070470020FCE7B5
:10126000143C02403B2A19087F6E5D4C2DE9F04189
:1012700006460F4614461D464FF0010800BF2148A0
:10128000007D012802D10220BDE8F08101201D4926
:10129000087500BF4CF25030FFF7ECFD8046B8F106
:1012A000000F28D136B1012E09D0022E0CD0032E0A
:1012B00015D10EE0E1B23846FFF730FD10E0A1B2E3
:1012C0003846FFF763FD0BE021463846FFF77AFD0D
:1012D00006E022462B463846FFF73AFD00E000BF05
:1012E00000BF4CF25030FFF7C5FD0748006820F002
:1012F00001000549086000BF00200249087500BFD1
:101300004046C1E788000220103C024007480068C0
:1013100000F0004030B1064804490C390860054827
:10132000086001E0012070470020FCE7103C02400B
:1013300023016745AB89EFCDF8B502460B46002186
:1013400000250024002000BFE4E0012606FA01F594
:101350001E6806EA0504AC4271D15E68022E02D016
:101360005E68122E13D1CF0802F1200656F827002E
:101370004E07F70E0F26BE40B0434F07FF0E1E6903
:10138000BE403043CF0802F1200646F8270010681F
:101390004F000326BE40B0431E7906F003064F00FF
:1013A000BE40304310605E68012E08D05E68022E99
:1013B00005D05E68112E02D05E68122E13D190689F
:1013C0004F000326BE40B0434F00DE68BE403043AE
:1013D0009060506801268E40B0431E79C6F3001617
:1013E0008E4030435060D0684F000326BE40B0436B
:1013F0004F009E68BE403043D0605E6806F0805665
:10140000B6F1805FA8D100BF444E366846F48046EE
:10141000424F3E603E46366806F48046009600BF66
:1014200000BF3F4E8F0856F827008E07370F0F2654
:10143000BE40B0433B4EB24202D100262EE068E0EF
:10144000394EB24201D1012628E0384EB24201D1D4
:10145000022623E0364EB24201D103261EE0354E6D
:10146000B24201D1042619E0334EB24201D1052621
:1014700014E0324EB24201D106260FE0304EB242A5
:1014800001D107260AE02F4EB24201D1082605E01D
:101490002D4EB24201D1092600E00A268F073F0FE8
:1014A000BE4030431E4E8F0846F82700274E306856
:1014B000A0435E6806F48036B6F5803F00D1204335
:1014C000224E3060361D3068A0435E6806F4003658
:1014D000B6F5003F00D120431C4E361D3060361D4E
:1014E0003068A0435E6806F48016B6F5801F00D110
:1014F0002043164E08363060361D3068A0435E68C3
:1015000006F40016B6F5001F00D120430F4E0C362E
:101510003060491C1029FFF418AFF8BD4438024070
:101520000838014000000240000402400008024068
:10153000000C02400010024000140240001802405B
:10154000001C02400020024000240240003C0140F8
:10155000014800687047000004000220024800684B
:10156000401C0149086070470400022010B508487B
:10157000006840F4007006490860052000F0C8F8D3
:101580000F2000F007F800F047F8002010BD000021
:10159000003C024070B50446074800684FF47A7179
:1015A000B0FBF1F5284600F0BFFC00222146501E9A
:1015B00000F06FF8002070BD000002204178154A4D
:1015C00011600178F9B1121D41681160017B0907B2
:1015D000C27A41EA0261827A41EAC241427B41EA2F
:1015E0008241827B41EA4241C27B41EA0241427A26
:1015F00041EA0221027A41EA420102781143054A96
:101600000832116005E00021024A121D1160121D0E
:101610001160704798ED00E07047000070B5044617
:101620000E4615460CB9012070BD94F8450028B946
:10163000002084F84400204600F02AF804F1080154
:101640002068FFF765FC3146A2682068FFF7A0FC20
:101650002946E36AD4E90102FFF736FCA168206855
:1016600050F8210040F00100A268216841F82200F2
:10167000606918B900200549086002E001200349AB
:101680000860012084F845000020CDE70800022012
:1016900070472DE9F05F80460D461646002700F0A2
:1016A000B5FE074639462A46334601F00700C0F129
:1016B000070ABAF1040F02D94FF0040A01E0C0F1A1
:1016C000070AD14600F1040ABAF1070F02D24FF01F
:1016D000000A01E0A0F1030AD4464FF0010A0AFA19
:1016E00009FAAAF1010A0AEA020A0AFA0CFA4FF008
:1016F000010B0BFA0CFBABF1010B0BEA030B4AEAF3
:101700000B042146404600F089FEBDE8F09F000032
:1017100000BF00F00702064B19684FF6FF0319409F
:10172000044B0B4343EA0221014B196000BF704791
:101730000CED00E00000FA0538B5002400BF204899
:10174000006840F080501E4908600846006800F0BC
:101750008050009000BF00BF1A48006840F48030FD
:1017600018490860FFF7F4FE044607E0FFF7F0FEB3
:10177000001BB0F57A7F01D9032038BD11484068BD
:1017800000F48030B0F5803FF0D10E48006840F49E
:1017900000300C490860FFF7DBFE044607E0FFF766
:1017A000D7FE001BB0F57A7F01D90320E5E7054895
:1017B000406800F40030B0F5003FF0D10020DCE7D5
:1017C000403802400070004070B504460D460026C7
:1017D0006648006800F00F00A8420ED26348006817
:1017E00020F00F002843614908600846006800F0B7
:1017F0000F00A84201D0012070BD207800F0020047
:10180000022807D15A48006820F0F000A168084378
:1018100057490860207800F00100002860D0606817
:10182000012807D1524808380068C0F34040A0B9E9
:101830000120E1E76068022807D14D4808380068B8
:10184000C0F3406048B90120D6E74948083800682D
:10185000C0F3400008B90120CEE74548006820F0F9
:1018600003006168084342490860FFF771FE0646BD
:101870006068012810D108E0FFF76AFE801B41F282
:101880008831884201D90320B6E73948006800F062
:101890000C000428F0D123E06068022810D108E091
:1018A000FFF756FE801B41F28831884201D90320A0
:1018B000A2E72F48006800F00C000828F0D10FE0E4
:1018C00008E0FFF745FE801B41F28831884201D9CC
:1018D000032091E72648006800F00C000028F0D1B2
:1018E0002248006800F00F00A8420ED91F48006887
:1018F00020F00F0028431D4908600846006800F0EA
:101900000F00A84201D0012076E7207800F0040003
:10191000042807D11648006820F4E050E168084325
:1019200013490860207800F00800082808D1104802
:10193000006820F46040216940EAC1000C49086059
:1019400000F01CF80A49096801F0F001F02292FA4F
:10195000A2F2B2FA82F2D140064A515CC84006496E
:1019600008600F20FFF716FE002045E7003C02400C
:1019700008380240A43A00080000022070B5002197
:10198000002200230020274C246804F00C0424B11A
:10199000042C04D0082C41D103E0234840E0234824
:1019A0003EE0204C241F246804F03F011D4C241FFE
:1019B000246804F4800484B11C4CB4FBF1F5194C88
:1019C000241F246847F6C076344096FAA6F6B6FA85
:1019D00086F6F44005FB04F20FE0134CB4FBF1F57E
:1019E000104C241F246847F6C076344096FAA6F6B9
:1019F000B6FA86F6F44005FB04F20A4C241F24686C
:101A000004F440344FF4403595FAA5F5B5FA85F560
:101A1000EC40641C6300B2FBF3F001E0024800BF3D
:101A200000BF70BD083802400024F40040787D01FA
:101A300038B504460025207800F00100002871D058
:101A4000FE48006800F00C0004280DD0FB48006838
:101A500000F00C00082813D1F848001F006800F4BB
:101A60008000B0F5800F0BD1F44808380068C0F34F
:101A70004040002869D06068002866D1012038BD48
:101A800000BF6068B0F5803F08D1EC4808380068B6
:101A900040F48030E949083908602EE0606868B990
:101AA000E6480838006820F48030E44908390860C6
:101AB0000846006820F4802008601EE06068B0F5E9
:101AC000A02F0DD1DD480838006840F48020DB49A4
:101AD000083908600846006840F4803008600CE06F
:101AE000D6480838006820F48030D44908390860A6
:101AF0000846006820F48020086000BF606890B14C
:101B0000FFF726FD054606E0FFF722FD401B64288F
:101B100001D90320B3E7C94808380068C0F3404042
:101B20000028F1D011E0FFF713FD054606E0FFF7AE
:101B30000FFD401B642801D90320A0E7BF480838E7
:101B40000068C0F340400028F1D1207800F0020086
:101B5000022873D1B948006800F00C0058B1B748AA
:101B6000006800F00C00082821D1B448001F00686C
:101B700000F48000D8B9B14808380068C0F34000CC
:101B800020B1E068012801D0012078E7AB4808388F
:101B9000006820F0F800F82292FAA2F2B2FA82F27B
:101BA000216991400843A5490839086046E0E0688A
:101BB00050B3A2480838006840F001009F49083936
:101BC0000860FFF7C5FC054606E0FFF7C1FC401BB7
:101BD000022801D9032052E7984808380068C0F36A
:101BE00040000028F1D095480838006820F0F8003F
:101BF000F82292FAA2F2B2FA82F2216991400843E5
:101C00008E490839086019E08C480838006820F0CF
:101C100001008A4908390860FFF79AFC054606E08A
:101C2000FFF796FC401B022801D9032027E78348D1
:101C300008380068C0F340000028F1D1207800F097
:101C40000800082836D16069D0B17C486C30006843
:101C500040F0010079496C310860FFF779FC0546D6
:101C600006E0FFF775FC401B022801D9032006E7B8
:101C700072486C300068C0F340000028F1D019E0D1
:101C80006E486C30006820F001006C496C310860CF
:101C9000FFF75EFC054606E0FFF75AFC401B0228F2
:101CA00001D90320EBE665486C300068C0F34000C2
:101CB0000028F1D1207800F00400042871D100BF81
:101CC0005E483830006840F080505C493831086028
:101CD0000846006800F08050009000BF00BF5848E0
:101CE000006840F4807056490860FFF731FC0546F3
:101CF00006E0FFF72DFC401B642801D90320BEE657
:101D00004F48006800F480700028F2D000BFA0683F
:101D1000012808D149486830006840F0010047496F
:101D2000683108602DE0A06868B9444868300068F0
:101D300020F001004149683108600846006820F041
:101D4000040008601DE0A06805280DD13B486830FC
:101D5000006840F0040039496831086008460068AE
:101D600040F0010008600CE034486830006820F062
:101D700001003249683108600846006820F004001C
:101D8000086000BFA068A8B1FFF7E2FB054609E0C4
:101D9000FFF7DEFB401B41F28831884202D9032065
:101DA0006DE61BE0254868300068C0F3400000285D
:101DB000EED013E0FFF7CCFB054608E0FFF7C8FBC9
:101DC000401B41F28831884201D9032057E61B4865
:101DD00068300068C0F340000028EFD1A06988B3E4
:101DE0001648006800F00C00082873D0A06902288B
:101DF00064D112480838006820F080700F49083913
:101E00000860FFF7A5FB054606E0FFF7A1FB401BB6
:101E1000022801D9032032E6084808380068C0F3D8
:101E200040600028F1D1D4E90701084347F6C072A9
:101E300092FAA2F2B2FA82F2616A04E00838024031
:101E40000070004058E0914008430122A16AC2EBB3
:101E500051014FF4403292FAA2F2B2FA82F291406A
:101E600008434FF0706292FAA2F2B2FA82F2E16A8B
:101E7000914008434FF0E04292FAA2F2B2FA82F2A5
:101E8000216B914008431D490860081F006840F01D
:101E90008070091F0860FFF75BFB054606E0FFF74F
:101EA00057FB401B022801D90320E8E51348001F17
:101EB0000068C0F340600028F1D01DE00F48001F0B
:101EC000006820F080700D49091F0860FFF740FB93
:101ED000054607E00EE0FFF73BFB401B022801D957
:101EE0000320CCE50548001F0068C0F340600028CF
:101EF000F1D101E00120C2E50020C0E50438024034
:101F0000042808D14FF0E021096941F004014FF0A5
:101F1000E022116107E04FF0E021096921F004019E
:101F20004FF0E0221161704770B504462546681EE7
:101F3000B0F1807F01D301200FE0681E4FF0E02157
:101F400048610F214FF0FF3000F068FA00204FF099
:101F5000E021886107200861002070BD7047000003
:101F60002DE9F04104462068C569206806682068AC
:101F7000876805F00F08B8F1000F0AD105F02000BE
:101F800038B106F0200020B1204600F01FFEBDE869
:101F9000F081B8F1000F79D040F2011038400028EC
:101FA00074D005F0010048B106F4807030B1012012
:101FB00021680862E06E40F00100E06605F0020072
:101FC00048B107F0010030B1022021680862E06EDC
:101FD00040F00400E06605F0040048B107F001009D
:101FE00030B1042021680862E06E40F00200E06633
:101FF00005F0080060B106F0200010B907F00100FC
:1020000030B1082021680862E06E40F00800E06608
:10201000E06E58B305F0200028B106F0200010B1A2
:10202000204600F0D3FDE06E00F0080020B92068E3
:10203000806800F0400018B3204600F0FBFC2068E8
:10204000806800F04000B8B12068806820F040004F
:1020500021688860606E50B11748616E0865606ED7
:10206000FEF7E8FF10B1606E016D88470DE0204675
:10207000FFF774FF09E009E02046FFF76FFF04E077
:102080002046FFF76BFF0020E06680E705F0800048
:1020900030B106F0800018B1204600F0DBFD76E795
:1020A00005F0400030B106F0400018B1204600F0C5
:1020B000D1FC6CE700BF6AE71D2A000810B5034693
:1020C00093F86A0020285BD101B10AB9012010BD44
:1020D00000BF93F86800012801D10220F7E7012032
:1020E00083F8680000BF5965A3F85820A3F85A2068
:1020F00000BF9868B0F5805F0AD1186920B940F236
:10210000FF10A3F85C001CE0FF20A3F85C0018E0BF
:10211000986848B9186918B9FF20A3F85C0010E066
:102120007F20A3F85C000CE09868B0F1805F08D1D4
:10213000186918B97F20A3F85C0002E03F20A3F8DB
:102140005C0000BF0020D866222083F86A0000BF30
:10215000002083F8680000BF1868006840F48070B1
:102160001C6820601868806840F001001C68A0604E
:102170001868006840F020001C6820600020A6E776
:102180000220A4E710B504463049206808600846DC
:1021900000682F490844F8B1B0F5406F36D0B0F56B
:1021A0004C4F4DD12B4829494861401CC86000F272
:1021B0000240086108304860401C8860401C08628A
:1021C000A0F20E4088612320087740204877012044
:1021D00088772148486233E020481C494861401C08
:1021E000C86000F20240086108304860401C886006
:1021F000401C0862A0F20E4088612320087740202E
:102200004877012088771648486219E015480F4939
:102210004861401CC86000F2024008610830486014
:10222000401C8860401C0862A0F20E408861232098
:10223000087740204877012088770B48486200BF24
:1022400000BF024800F016FC10BD00008803022009
:1022500000BCFFBF2104022028080220A50802209C
:10226000AC0C0220290D022030110220704700BF63
:10227000FEE7000001460120014A1070002070476F
:10228000540002202DE9F04186B004460D464FF07F
:1022900002082046FEF7ACFE06466019FEF7A8FECF
:1022A000871B002001900220059003960497FFF7FA
:1022B0002DF800BF694601A8FEF7D0FE0028F9D12D
:1022C000FEF7AAFF15E029462046FEF7CFFB0128BE
:1022D0000BD1FFF71BF800BF694601A8FEF7BEFE51
:1022E0000028F9D1FEF798FF03E0002006B0BDE812
:1022F000F081B8F10000A8F1010101F0FF08E2D17E
:1023000000BFFEE700B589B001A8FEF7FDFE069804
:1023100000F00050B0F1005F02D1012009B000BD13
:102320000020FBE710B588B00446FEF7EFFFFEF78C
:1023300087FF6846FEF7E8FE059800F00050B0F110
:10234000005F02D1002008B010BD012C04D1059817
:1023500040F00050059003E0059820F000500590F3
:102360006846FEF7EBFEFEF757FFFEF75FFFFFF74D
:10237000C9FFA04201D10020E5E70120E3E700000A
:102380001FB500BF1E48006820F480301C4908605B
:102390001B487030006820F0010019497031086056
:1023A00000BF01208DF800004FF0C04001901920BF
:1023B0008DF8080003208DF80B0001208DF80F0028
:1023C00000208DF80E0001208DF80D008DF8010021
:1023D00000208DF80A008DF809008DF80C00684681
:1023E000FFF7ECF8042040F00101054A703211605B
:1023F0000349096841F48031014A116000BF1FBDE3
:1024000024ED00E000BFFEE77047000002480068CE
:10241000C0F30220704700000CED00E010B500286A
:1024200007DA0A07140E054A00F00F031B1FD454E5
:1024300003E00A07130E024A135410BD18ED00E022
:1024400000E400E02DE9F047002500260027A8461B
:102450002548D0F818900024244F00BF0BE0D7F88F
:102460000080A04502D1B8F1050F00D305E0641C3F
:102470001D4840690744062CF1D300BF64B94FF0F2
:10248000FF301949086000F0D7F800F0D5F8164879
:1024900040691649471802E0134840693F1A3D4613
:1024A0000024114E01E06D1C641C242CFBD300247D
:1024B0000D48066A04E015F8010B06F8010B641CD0
:1024C0009C2CF8D300240848C66904E015F8010BD9
:1024D00006F8010B641C0448C068A042F6D800F05E
:1024E000ABF8BDE8F08700005800022000000208A9
:1024F0002DE9F047002500260027A8462548D0F8FA
:1025000018900024244F00BF0BE0D7F80080A045AE
:1025100002D1B8F1050F00D305E0641C1D484069E5
:102520000744062CF1D300BF64B94FF0FF301949BE
:10253000086000F081F800F07FF8164840691649FD
:10254000471802E0134840693F1A3D460024114EE7
:1025500004E015F8010B06F8010B641C242CF8D3D9
:1025600000240C48066A04E015F8010B06F8010B7C
:10257000641C9C2CF8D300240648C66904E015F8B6
:10258000010B06F8010B641C0248C068A042F6D893
:10259000BDE8F087580002200000020810B50023B3
:1025A000234C236000BF00BF00BFBFF34F8F00BFAD
:1025B00000BF00BF231F1868C0F34E3100BFC0F337
:1025C000C90200BF43F6E07303EA41134FF04044F1
:1025D00004EA82742343174C236000BF00BF131E1C
:1025E000A2F10102EED10B1EA1F10101E7D100BF62
:1025F00000BF00BFBFF34F8F00BF00BF00BF0C4B39
:10260000703B1B6843F48033094C703C236000BF6F
:1026100000BF00BFBFF34F8F00BF00BF00BF00BFB0
:1026200000BF00BFBFF36F8F00BF00BF00BF10BD72
:1026300084ED00E060EF00E02DE9F0410024002788
:10264000334D00262868042805D32868401C10B1A3
:1026500000F062F859E02868401C28602C4928687E
:1026600049692C4A00FB01272868401E284949690E
:1026700000FB012026494860084640681146884210
:1026800002D2084622494860FEF740FE0026204C50
:102690000DE000BF94F800C062460023394618469A
:1026A000FEF7E4FD0028F5D17F1C641C761C242E67
:1026B000EFD300261648046A0DE000BF94F800C06E
:1026C0006246002339461846FEF7D0FD0028F5D1B2
:1026D0007F1C641C761C9C2EEFD300260C48C4691A
:1026E0000DE000BF94F800C062460023394618464A
:1026F000FEF7BCFD0028F5D17F1C641C761C044845
:10270000C068B042EDD8FEF787FDBDE8F08100005B
:1027100058000220000002082DE9F04100240026A4
:1027200000253849486901F01DF807460FB900BF78
:10273000FEE73448426941683846FDF7D5FDFEF7AB
:10274000A7F900203860304EFEF7E0FD00253C463A
:102750000AE094F800C06246002331461846FEF7AE
:1027600085FD761C641C6D1C26484069A842F0D883
:10277000384600F071FF00270120224908602248F6
:10278000486000250C460DE000BF94F800C062468A
:10279000002331461846FEF769FD0028F5D1761C66
:1027A000641C6D1C242DEFD300251648046A0DE02F
:1027B00000BF94F800C06246002331461846FEF779
:1027C00055FD0028F5D1761C641C6D1C9C2DEFD3A3
:1027D00000250C48C4690DE000BF94F800C06246B3
:1027E000002331461846FEF741FD0028F5D1761C3E
:1027F000641C6D1C0348C068A842EDD8FEF70CFDB0
:10280000BDE8F08158000220000002082DE9F041E7
:1028100094B00546884616461F46002400BF264849
:10282000006840F08050244908600846006800F0C5
:102830008050019000BF00BF00BF2048006840F4F6
:1028400040401E4908600846006800F4404001907E
:1028500000BF00BF012007900004089002200D90E7
:1028600041050E91CDF83C8010951196129707A85E
:10287000FFF7DEF804460CB100BFFEE7FEF75CFF91
:1028800004460CB100BFFEE70F2002900220039027
:10289000002004904FF4A05005904FF48050069013
:1028A000052102A8FEF790FF04460CB100BFFEE729
:1028B00014B0BDE8F08100004038024000700040D4
:1028C00010B501F02FF8012801D001F00FF8FEF744
:1028D00045FE10BD10B500202B498860C860084631
:1028E000C068C0304861084640694FF40031B1FB10
:1028F000F0F025490861FFF7FBFD23488069234973
:10290000884223D00846204988619C20886020485E
:1029100008620420C860C86800F024FF1A49C86132
:102920000846C068C0304861084640694FF400312D
:10293000B1FBF0F0144908614FF0FF300860FEF77A
:10294000A7F8FFF779FEFFF777FE1CE09C200E4901
:1029500088600F4808620846C068C0304861084671
:1029600040694FF40031B1FBF0F007490861C868D5
:1029700000F0F8FE0449C8610846C06908B900BF04
:10298000FEE7FFF75FFD10BD58000220563412002D
:102990003C1102201448006840F47000124908609D
:1029A0001248006840F001001049086000200F49FB
:1029B000083108600D4800680D4908400B4908605F
:1029C0000C48091D0860081F006820F48020091FBA
:1029D0000860002005490C3108604FF00060024992
:1029E000803908607047000088ED00E00038024040
:1029F000FFFFF6FE1030002410B50748FFF7B0FACD
:102A00000122054971310448FFF758FB01210248B2
:102A100080F87D1410BD0000B80C022070B505468A
:102A2000AC6B0020A4F85A00A4F852002046FFF72F
:102A300095FA70BD0168096821F49071026811600F
:102A40000168896821F0010102689160202180F805
:102A50006A10704710B504462068006820F04000F6
:102A600021680860202084F869002046FFF7FEFBFB
:102A7000002010BD014648690278887F70B17D2A28
:102A800005D1C87F18B90120C87700207047C87FDA
:102A9000012803D182F020020020C87788690078DD
:102AA000B0BB087F90420ED100200B691860087FF0
:102AB000CB68187008690068401C0B691860012019
:102AC0000B6A18707EE0487F90420DD0086A00784B
:102AD000012809D1D1E903031B68C25408690068C1
:102AE000401C0B6918606DE0086A0078012869D104
:102AF000487F904266D1D1E903031B68C25408693C
:102B00000068401C0B69186001204B68187059E080
:102B1000FFE78869007801283ED12B48406A0068A9
:102B200000284FD0086A007888B900204B681870D8
:102B30000B691860D1E903031B68C2540869006877
:102B4000401C0B69186001200B6A18703AE0086A93
:102B50000078012810D1086900681B4B5B6A1B686C
:102B6000984209D2D1E903031B68C254086900687E
:102B7000401C0B69186025E000204B681870D1E9F3
:102B800003031B68C25408690068401C0B69186085
:102B900001204B68187015E088690078022811D16F
:102BA00008690068B0F5806F09D2D1E903031B689A
:102BB000C25408690068401C0B69186002E00020DC
:102BC0000B691860002061E78803022070B5044695
:102BD000B4F85C6094F86A00222833D1A068B0F59C
:102BE000805F0AD1206940B9656D2068406A304035
:102BF0002880606D801C606507E02068406AF1B243
:102C00000840626D511C61651070B4F85A00401E96
:102C100080B2A4F85A0098B92068006820F4907037
:102C2000216808602068806820F0010021688860C1
:102C3000202084F86A002046FFF7A4FA002070BD27
:102C40000020FCE72068806940F008002168886166
:102C50000220F4E7014691F8690021282DD1B1F84E
:102C6000520068B90868006820F080000B6818609E
:102C70000868006840F040000B681860002070474A
:102C80008868B0F5805F0BD1086948B9CA6C1088B4
:102C9000C0F308000B689862C86C801CC86405E02B
:102CA000CB6C581CC86418780B689862B1F8520055
:102CB000401EA1F852000020E1E70220DFE70000FB
:102CC00010B50748FFF74CF9012205497131044856
:102CD000FFF7F4F90121024880F87D1410BD0000CF
:102CE000B003022010B50748FFF73AF90122054961
:102CF00071310448FFF7E2F90121024880F87D14A0
:102D000010BD00003408022000BFFEE70FB4054BE1
:102D100010B503A9044A029800F0DAF810BC5DF877
:102D200014FB0000453600087C00022002E008C8C1
:102D3000121F08C1002AFAD170477047002001E035
:102D400001C1121F002AFBD1704700002DE9FF5F6F
:102D500082B00021DDE90430020DDDF840B003430C
:102D600018D044F61050A2F2FF32424315141198C5
:102D700001281FD0A5EB0B00401C5FEA000A4FF0B2
:102D800000064E4FDFF83891B046504615D5CAF1CF
:102D9000000413E0119801244AA3012801D16FEA2D
:102DA0000B010298119AC0E90031C0E9024206B055
:102DB000BDE8F09FCBF10000DFE704460021404A68
:102DC000491842EB0450CDE9001012E0E00707D0AB
:102DD00032463B4640464946FDF786FB80468946DB
:102DE00032463B4610461946FDF77EFB06460F4627
:102DF0006410002CEAD1DDE90401DDE90023BAF119
:102E0000000F06DAFDF770FB42464B46FDF76CFB00
:102E100005E0FDF7DBFB42464B46FDF7D7FB0446DA
:102E20000E460022284BFDF759FC03D84FF0FF3027
:102E3000014607E00022254B20463146FDF7ADFA5A
:102E4000FDF733FC102409E0002C0ADB0A220023E2
:102E5000FDF772FA039B30321A55641E50EA0102E4
:102E6000F2D1641C039AC4F111031444119A012A8B
:102E700003D0012208430DD10AE0084304D000200A
:102E80004FF0110B119072E7A3EB0B056D1E0DE0D7
:102E90005B4504DD4FF0000205F1010504E003DAB3
:102EA0004FF00002A5F10105002AECD0029811991B
:102EB000C0E90231C0E9004579E700000000144094
:102EC0000000F03F300000000000F0430000E03F51
:102ED0002DE9FF4F95B09B468946064600250FE237
:102EE000252877D100242746F84A0121059400E0DF
:102EF000044316F8013F203B01FA03F01042F7D1DA
:102F000030782A2811D06FF02F033078A0F13002EA
:102F1000092A16D8059A44F0020402EB820203EB58
:102F200042021044761C0590EFE759F8042B0592F5
:102F3000002A03DA504244F40054059044F002049D
:102F4000761C30782E2816D116F8010F44F00404B0
:102F50002A280DD06FF02F023078A0F13003092B12
:102F600009D807EB870302EB4303C718761CF3E786
:102F700059F8047B761C30786C280FD006DC4C287E
:102F800017D068280DD06A2814D104E0742810D016
:102F90007A280FD10DE044F400140AE044F48014C0
:102FA00001E044F440147278824202D104F58014A6
:102FB000761C761C307866280BD013DC582877D026
:102FC00009DC002875D04528F6D04628F4D04728DB
:102FD0001AD19DE118E0632835D0642879D065289E
:102FE00012D195E1702873D008DC6728F1D06928E8
:102FF0006FD06E280DD06F2806D1B5E073282CD085
:10300000752875D0782874D05A46179990476D1C4A
:1030100075E1C4F30250022809D003280DD0D9F875
:10302000001004280DD00D6009F1040967E1D9F8FA
:103030000010EA17C1E90052F6E7D9F800100D8038
:10304000F2E70D70F0E719F8041B8DF8001000206E
:103050008DF80100EA46012003E059F804AB4FF077
:10306000FF3061074FF0000102D40DE008F10101CB
:103070008846B9420FDA8045F8DB1AF808100029B3
:10308000F4D108E008F1010188468142FADB1AF820
:1030900008100029F6D105985B46A0EB08072146E9
:1030A0003846179A00F094FA284400EB080507E028
:1030B0004DE029E10DE01AF8010B5A4617999047A7
:1030C000B8F10108F7D25B4621463846179A13E15A
:1030D00042E00A220092C4F302524FF0000A022A90
:1030E00008D059F804CB032A4FEAEC710AD00DE05E
:1030F00029E02AE009F1070121F00702F2E802C104
:10310000914609E00FFA8CFC4FEAEC71042A03D1D6
:103110004FFA8CFC4FEAEC71002907DA0A460021CD
:10312000DCF1000C61EB02012D2202E0220504D546
:103130002B228DF80420012203E0E20701D0202297
:10314000F7E7904659E00A2102E010220DE0102135
:103150004FF0000A00910BE010224FF0000A44F0FB
:1031600004040827009203E008224FF0000A0092AE
:10317000C4F30252022A05D059F804CB0021032AD5
:1031800008D009E009F1070121F00702F2E802C1C5
:10319000914605E01FFA8CFC042A01D10CF0FF0CCB
:1031A0004FF00008220728D5702806D0009B83F036
:1031B000100353EA0A0305D00EE040228DF80420E4
:1031C000012208E05CEA010206D030228DF80420DA
:1031D0008DF8050002229046009B83F0080353EA15
:1031E0000A030AD15CEA010201D1620705D5302247
:1031F0008DF804204FF001087F1E582804D034A019
:1032000003900EA802900DE036A0F9E75346604601
:10321000009AFDF791F884460398825C0298401E5C
:10322000029002705CEA0100F0D1029806A9081A27
:1032300000F1200A600702D524F4803400E0012761
:10324000574502DDA7EB0A0000E0002000EB0A0171
:10325000009005984144401A0590E00306D45B466F
:103260002146179A059800F0B3F90544002706E0B7
:1032700001A85A46C05D179990476D1C7F1C4745B1
:10328000F6DBE0030CD55B462146179A059800F063
:103290009FF9054404E030205A46179990476D1C69
:1032A0000099481E00900029F5DC08E00298029978
:1032B0005A460078491C0291179990476D1CBAF143
:1032C0000001AAF1010AF1DC65E100000928010012
:1032D000303132333435363738396162636465668C
:1032E000000000003031323334353637383941424E
:1032F000434445460000000000F058F90544761CA0
:10330000307800287FF4ECAD19B02846BDE8F08F86
:10331000620700D4062709F1070222F0070CFCE837
:103320000223E14603F000485FEA080C02D00FF2E6
:10333000702C0DE05FEA045C02D50FF2682C07E008
:103340005FEAC47C02D00FF2602C01E0AFF2700C97
:103350004FF0FF3823F00043CDF850C065280CD063
:1033600006DC452809D046281DD047283DD13DE040
:10337000662818D067287ED138E00021112F01DBA4
:10338000112000E0781CCDE9000106A90EA8FFF786
:10339000DDFCDDE90F010E9A03910021009207F197
:1033A000010A04914DE04FF000400097CDE9011073
:1033B00006A90EA8FFF7CAFCDDE90F0203920E9BD7
:1033C00011990022DDF80CA00093049211B9791C28
:1033D00000EB010AB7EB0A0004D4C0F1FF3007F19B
:1033E000010A0490AAEB0700019044E0012F00DAE3
:1033F00001270021112F01DD112000E03846CDE921
:10340000000106A90EA8FFF7A1FCDDE90F010E9A45
:103410000391002104910092BA4621070CD403992C
:10342000514500DA8A46BAF1010F05DD009AAAF18A
:103430000101515C302908D0B84202DA10F1040FC2
:1034400006DA0121CDE9011015E0AAF10101E9E751
:10345000002805DC049901440491AAEB000102E074
:10346000411C514500DD8A460499401A401C0190D8
:103470004FF000400290200704D40198504501DB32
:10348000CDF8048000208DF84F0002980DF14F0711
:10349000B0F1004F25D02B200E9002984FF002087B
:1034A00000280CDA404202902D200E9007E00A21FD
:1034B0000298FCF72BFF3031029007F8011DB8F19C
:1034C0000001A8F10108F2DC02980028EFD1791E72
:1034D0000E980870307800F0200040F0450007F8A2
:1034E000020D12A8C01B00F107081498007800B163
:1034F000012000EB0A01019801EBE07105984144BD
:10350000401A401E0590E00306D45B462146179AF8
:10351000059800F05DF805441498007818B15A46F3
:10352000179990476D1CE00324D55B462146179AF6
:10353000059800F04DF805441CE00498002807DBCE
:10354000DDE90301884203DD0098405C179901E042
:10355000179930205A469047049805F10105401C00
:1035600004900198401E019004D12E205A461799CC
:1035700090476D1CBAF10001AAF1010ADDDC05E0FB
:1035800017F8010B5A46179990476D1CB8F10001C6
:10359000A8F10108F4DC5B462146179A0598ABE6D2
:1035A0002D0000002B000000200000002DE9F0415C
:1035B000044600251E461746880404D405E0394613
:1035C0002020B0476D1C641EF9D52846BDE8F08167
:1035D0002DE9F041044600251E469046C80301D55A
:1035E000302700E02027880404D505E0414638460E
:1035F000B0476D1C641EF9D52846BDE8F081000077
:1036000070B504460420FEF77BFC0C480460254698
:103610004FF47A7045430120094908804FF0E020BB
:10362000006940F002004FF0E02108610846456162
:10363000006940F00100086170BD00000C0002202C
:103640001000022038B504468DF8000069460320BA
:10365000ABBE204638BD000010B5002821D0114B6C
:103660000022001F196803E0814203D80A46496816
:103670000029F9D152B11368841A9C4204D1006820
:1036800018441060104602E0506000E0186039B144
:1036900002680B1A934203D10B681A44026049680E
:1036A000416010BD800002204FF000602449086096
:1036B000002080F3138800BF0320FEF729F8FEF7EF
:1036C0005FFEFDF797F9FDF751FF0923022219214B
:1036D0004FF4D870FFF79AF8D820FFF791FFFDF765
:1036E000B5F80120FEF71EFEFFF7F4F8FEF700FF25
:1036F00014481549C1F8880020E013486E3013A122
:103700000A68026009790171FEF796FFFEF7F0FE84
:103710000D486E300FA10A68026009790171FEF749
:103720008BFFFEF7E5FE08486E300CA10A680260C8
:1037300009790171FEF780FFFEF7DAFEDDE7000090
:1037400008ED00E0243112003C110220312E302E11
:1037500030000000312E302E31000000312E302E8E
:1037600032000000F0B50B30154D20F007010024A9
:10377000144A0FE003688B420BD38B4205D95E1AC3
:1037800043184768C3E9006700E04368136002C05C
:1037900004E0021D10680028ECD12046002802D168
:1037A000286808B10020F0BD064A07481060074AA3
:1037B000121A22F00702C0E9002401202860D7E78E
:1037C0008400022080000220DC110220D891022017
:1037D0000A490968096809B9012100E0002121B1FD
:1037E0004FF0FF31064A116006E004490968C968D4
:1037F000C868034A41681160704700001800022041
:103800004400022001460A69D1E901309860D1E9FB
:10381000010358605068884201D1886850600020D8
:1038200008611068401E10601068704742684A6066
:1038300093688B60936859609160086103685B1CB2
:103840000360704710B51B48006818B101201A4981
:1038500008602DE000201849086018480068B0FA98
:1038600080F0C0F11F0404EB8400154951F82000DA
:1038700008B1012000E0002028B940F6F72211A18C
:1038800015A0FFF743FA04EB84010D4A02EB810017
:1038900041684968416000F1080142688A4202D1EA
:1038A0004168496841604168C9680F4A116000BFBA
:1038B00010BD00004C000220380002202C00022025
:1038C000A40002202E2E5C4672656552544F535C54
:1038D0007461736B732E63004572726F723A257355
:1038E0002C25640D0A0000001400022010B500BF52
:1038F000502072B680F31188BFF34F8FBFF36F8FE4
:1039000062B600BF00F01EF818B14FF080500449B5
:10391000086000BF002080F3118800BF10BD0000C8
:1039200004ED00E00549096809B9012005E00449F2
:10393000096809B9022000E0002070473000022029
:103940004C0002202DE9F0414FF00008414800688A
:10395000002872D140480068451C3F480560EDB919
:103960003E480068006808B9012000E0002028B93E
:1039700040F6DA123AA13FA0FFF7C8F937480768C6
:1039800040480068354908603E4807603E48006886
:10399000401C3D490860FFF71BFF00BF3B48006823
:1039A00085423CD300BF2D480068006808B901205B
:1039B00000E0002020B14FF0FF30344908602DE0D6
:1039C00026480068C068C4686668B54202D22F48BD
:1039D000066023E0201DFFF715FFA06A18B104F16F
:1039E0001800FFF70FFF94F82C1001208840284999
:1039F0000968084326490860E16A01EB8101254A0C
:103A000002EB8100211DFFF711FF2349E06A0968DD
:103A1000C96A8842C7D34FF00108C4E700BF1E48F7
:103A20000068C06A00EB80001A4951F820000128A4
:103A300001D94FF0010805E0FFE718480068401C75
:103A4000164908601648006808B14FF00108404662
:103A5000BDE8F0814C00022028000220180002205E
:103A60002E2E5C4672656552544F535C7461736BC5
:103A7000732E63004572726F723A25732C25640DA4
:103A80000A0000001C0002203C000220440002202A
:103A90002C000220A4000220140002203400022086
:103AA00038000220000000000000000001020304B2
:103AB0000607080900000000010203040F0F0F0FA2
:103AC0003F7F7F7F7F7F7F7F0F0F0F0F3F7F7F7F46
:103AD0007F7F7F7F1F1F1F1F7FFFFFFFFFFFFFFFF6
:103AE0000000000000000000000000000C3B000887
:103AF00000000220880000002C2D0008943B0008E4
:103B000088000220501101003C2D00080024F40020
:103B100000000000000000000000000000000000A5
:103B20000000000000000000000000000000000095
:103B30000000000000000000000000000000000085
:103B40000000000000000000000000000000000075
:103B50000000000000000000000000000000000065
:103B60000000000000000000000000000000000055
:103B700000000000000000000000000000003412FF
:103B80000000000000000000000000000000000035
:043B90000000000031
:04000005080001F9F5
:00000001FF
