:020000040800F2
:10000000882B0620C5020008352C0008712A00083C
:10001000312C0008011000081D3D00080000000000
:100020000000000000000000000000000D020008B9
:100030004D1100080000000061020008493300086B
:10004000DF020008DF020008DF020008DF0200080C
:10005000DF020008DF020008DF020008DF020008FC
:10006000DF020008DF020008DF020008DF020008EC
:10007000DF020008DF020008DF020008DF020008DC
:10008000DF020008DF020008DF020008DF020008CC
:10009000DF020008DF020008DF020008DF020008BC
:1000A000DF020008DF020008DF020008DF020008AC
:1000B000DF020008DF020008DF020008DF0200089C
:1000C000DF020008DF020008DF020008DF0200088C
:1000D000DF020008A13C0008C53C0008DF02000860
:1000E000DF020008DF020008DF020008DF0200086C
:1000F000DF020008DF020008DF020008DF0200085C
:10010000DF020008DF020008DF020008DF0200084B
:10011000DF02000881340008DF020008DF02000867
:10012000DF020008DF020008DF020008DF0200082B
:10013000DF020008DF020008DF020008DF0200081B
:10014000DF020008DF020008DF020008DF0200080B
:10015000DF020008DF020008DF020008DF020008FB
:10016000DF020008DF020008DF020008DF020008EB
:10017000DF020008DF020008DF02000800000000C4
:10018000DF020008DF020008DF020008DF020008CB
:10019000DF020008DF020008DF020008DF020008BB
:1001A000DF020008DF020008DF020008DF020008AB
:1001B000DF020008DF020008DF020008DF0200089B
:1001C000DF020008DF020008DF020008DF0200088B
:1001D000DF020008DF020008DF020008DF0200087B
:1001E000DF020008DF020008DF020008DF0200086B
:1001F000DF020008DF020008DFF80CD000F01CFB73
:100200000048004759530008882B06202A4B1968DC
:100210000868B0E8F04F80F30988BFF36F8F4FF0A4
:10022000000080F311887047000000000648006855
:10023000006880F3088862B661B6BFF34F8FBFF3E2
:100240006F8F00DF00BF00BF08ED00E0DFF80C009B
:10025000016841F470010160704700BF88ED00E063
:10026000EFF30980BFF36F8F134B1A681EF0100F66
:1002700008BF20ED108A20E9F04F106008B44FF05D
:10028000500080F31188BFF34F8FBFF36F8F06F0DC
:10029000A5FB4FF0000080F3118808BC19680868BE
:1002A000B0E8F04F1EF0100F08BFB0EC108A80F3DA
:1002B0000988BFF36F8F704718040220EFF30580A1
:1002C000704700000648804706480047FEE7FEE703
:1002D000FEE7FEE7FEE7FEE7FEE7FEE7FEE7FEE7F6
:1002E0001D340008F901000840EA01039B0703D010
:1002F00009E008C9121F08C0042AFAD203E011F865
:10030000013B00F8013B521EF9D27047D2B201E026
:1003100000F8012B491EFBD270470022F6E710B50A
:1003200013460A4604461946FFF7F0FF204610BD63
:10033000421E12F8013F002BFBD111F8013B02F8DD
:10034000013B002BF9D17047421C10F8011B00291A
:10035000FBD1801A704730B504460020034600E008
:100360005B1C934203D2E05CCD5C401BF8D030BDF7
:10037000034611F8012B00F8012B002AF9D1184689
:10038000704770B5064603F0DBFD046805460A2297
:100390000021304600F049F82C6070BD30B50B46A6
:1003A000014600202022012409E021FA02F59D42A5
:1003B00005D303FA02F5491B04FA02F52844151E79
:1003C000A2F10102F1DC30BD2DE9F05F054600200D
:1003D00092469B4688460646814640241BE02846B6
:1003E00041464746224600F048FA53465A46C01A4C
:1003F000914110D311461846224600F02FFA2D1ACB
:1004000067EB01084F4622460120002100F026FA42
:1004100017EB00094E41201EA4F10104DFDC484621
:1004200031462A464346BDE8F09F2DE9F047914604
:100430000F4680460446002614F8015B2DB100F0FB
:100440003FFA0068405DC007F6D12B2D02D02D2D5C
:1004500018D0641E4A463946204600F035FA27B1C6
:100460003968A14201D1C7F8008071054FF002043C
:100470000BD54042002803DD03F062FD0460A007B5
:10048000BDE8F08746F48066E4E70028F8DA03F078
:1004900057FD04606FF00040F2E72DE9FE4F804603
:1004A00081EA0300C00F0C46009021F0004123F0C8
:1004B0000045B8EB0200A94105D2404621469046CE
:1004C0001C460B46024623F00040104347D0270D40
:1004D000C7F30A00C3F30A510290401A0190402862
:1004E0006BDAC3F3130040F4801B0098924620B1EE
:1004F0000023D2EB030A63EB0B0B01985946C0F1C2
:100500004002504600F0AAF906460D4650465946AC
:10051000019A00F0C2F910EB08006141002487EA5B
:10052000115284EAE7731A4340D0009A62B3019AE9
:10053000012A4FEA075215DC001B61EB02014FF064
:10054000004202EA0752CDE90042001C41F5801149
:1005500032462B4600F016FA03B0BDE8F08F404655
:100560002146F9E7001B61EB0201001C41F58013F5
:1005700000185B412018A2F5001747EB030140EA81
:10058000D570B6196D4111E06D084FEA360645EA9F
:10059000C0754FEA0752001B61EB0201001C41F5D8
:1005A000801149084FEA30000019514132462B466C
:1005B00003B0BDE8F04F00F0D6B90098012240002A
:1005C0000023D0EB020263EBE073009821464FEA70
:1005D000E074B8EB000061EB0401E9E783F000434D
:1005E0005BE781F0004158E72DE9FE4F81EA030403
:1005F00004F0004421F0004100944FF0000B23F080
:10060000004350EA01045ED052EA03045BD0C3F316
:100610000A54C1F30A552C44A4F2F3340194A0FB0C
:100620000254C1F3130141F48011C3F3130343F4E3
:10063000801301FB024400FB034E840A970A44EA3C
:10064000815447EA8357A4FB076802958D0A05FB8E
:1006500007854FEA932C04FB0C542705029D4FEAB3
:10066000065847EA1637B5EB08056EEB070C870E00
:10067000920E47EA811742EA8312A7FB0201B6EB0A
:100680000B0164EB00042B0D43EA0C335E1844EBC2
:100690001C50DA465146E7FB0201C5F313044FEA4A
:1006A0000B3343EA14534FEA0432019C43EA060336
:1006B000A4F10C040294009CCDE900B400F062F9AE
:1006C00003B0BDE8F08F00200146F9E72DE9F04DB9
:1006D00081EA030404F0004B21F0004514464FF07A
:1006E000000A23F0004150EA050220D054EA01023A
:1006F0001DD0C5F30A570246C5F31303C1F3130017
:10070000C1F30A5640F4801543F48013A7EB0608A2
:10071000101BD64608F2FD3873EB050002D308F132
:10072000010801E092185B41B8F1000F03DA0020E4
:100730000146BDE8F08D00204FF480110646844646
:100740000EE0171B73EB050705D3121B63EB0503C4
:1007500006434CEA010C49084FEA300092185B410D
:1007600050EA0107EDD152EA030012D082EA0400F8
:1007700083EA0501084305D0101BAB4106D20122D4
:10078000002306E000224FF0004302E06FF0010278
:1007900053101AEB06004CEB085110EB0A0041EB2A
:1007A0000B01BDE8F04D00F0DEB870B521F000435C
:1007B00003430CD0C1F30A550024D5EB040564EBC8
:1007C0000403D617AD1AB34102DB0020014670BD09
:1007D000201841EB025170BDC1F30A52C1F313015D
:1007E00040F2FF3341F480119A4202DA00200146C0
:1007F000704740F233439A42A2F2334202DC524243
:1008000000F03BB800F02AB830B5041E71F10004C6
:1008100004DB4FF00044404264EB0101141E73F10D
:10082000000405DB1C464FF00043524263EB040317
:10083000994208BF904230BD064C074D06E0E06883
:1008400040F0010394E8070098471034AC42F6D317
:10085000FFF7D6FCE8790008087A0008202A04DBB4
:10086000203A00FA02F1002070479140C2F12003C3
:1008700020FA03F3194390407047202A04DB203A02
:1008800021FA02F00021704721FA02F3D040C2F1B0
:1008900020029140084319467047202A06DBCB17F7
:1008A000203A41FA02F043EAE07306E041FA02F32B
:1008B000D040C2F120029140084319467047000021
:1008C000004870478C7900082DE9F05F8246007877
:1008D000002715468B460AF10104B946302801D09D
:1008E0009DB113E014F8010B0127782803D0582894
:1008F00001D045B10AE00DB1102D07D10027102518
:1009000014F8010B02E0082500E00A250026B04695
:100910000EE005FB080005FB06F1012701EB104680
:100920001FFA80F8B6F5803F00D3B94614F8010BE2
:10093000294600F075F80028EBDABBF1000F05D06E
:100940000FB1641E00E05446CBF80040B9F1000F2F
:1009500006D003F0F5FA02210160C81EBDE8F09F41
:1009600048EA0640FAE710B5141E73F1000408DAED
:10097000401C41F1000192185B411A4301D120F063
:10098000010010BD2DE9F04D92469B4611B1B1FA20
:1009900081F202E0B0FA80F220329046FFF75EFF6B
:1009A00004460F4640EA0A0041EA0B0153465A4604
:1009B000084313D0114653EA010019D0C8F1400290
:1009C0005046FFF75AFF05460E46504659464246E6
:1009D000FFF744FF084305D0012004E020463946D4
:1009E000BDE8F08D0020054346EAE0762C4337430E
:1009F0000A986305E40AA0EB08000022FD0A44EA15
:100A000047540A3002D500200146E9E701051019D4
:100A10006941DDE9084500196941BDE8F04DA2E7EB
:100A20003A2800D2303820F02002412A01D3A2F126
:100A30003700884201D34FF0FF30704730B58C1833
:100A400010F8012B12F00F0301D110F8013B12092D
:100A500006D110F8012B03E010F8015B01F8015BEF
:100A60005B1EF9D101E001F8013B521EFBD1A1420E
:100A7000E6D3002030BD000010B59AB001244FF03D
:100A8000204008901C480990042001900320029007
:100A90000820039001200490052005900220069074
:100AA000002007900A9000210B9108210C91102141
:100AB0000D9100210E910F91109121031191490088
:100AC000129100211391E103149100211591210548
:100AD0001691002108A800F011F801AA01A908A8A0
:100AE00000F0DCFF00B100E00024284601F0C2FF66
:100AF00020461AB010BD0000040100A030B587B038
:100B000004460D4600BF3F48006840F001003D49E3
:100B100008600846006800F00100019000BF00BFB7
:100B200000BF38480838006840F0080035490839E7
:100B300008600846006800F00800019000BF00BF90
:100B400000BF0846006840F00400086008460068DE
:100B500000F00400019000BF00BF00BF084600681D
:100B600040F0100008600846006800F01000019096
:100B700000BF00BF00BF0846006840F020000860CA
:100B80000846006800F02000019000BF00BF00BFD1
:100B90000846006840F0400008600846006800F021
:100BA0004000019000BF00BF02200390012004908C
:100BB0000320059009200690C020029002A9124847
:100BC00000F0FAFD0C2006904FF63370029002A957
:100BD0000E4800F0F1FD4FF6FC70029002A90C489F
:100BE00000F0EAFD4FF23F00029002A9094800F030
:100BF000E3FD3F20029002A9074800F0DDFD07B0A9
:100C000030BD00003838024000080240000C0240AD
:100C100000100240001402400018024070B5044663
:100C20000D46E0780A490870A078617800EB012051
:100C3000401E0749488008464088B0F5806F05DAB5
:100C400008464288211D001DFFF74EFB70BD0000C5
:100C5000E826052070B50446002588211B48FFF7CB
:100C60005CFB1B3400BF05E014F8010B1749485525
:100C7000681CC5B220782228F6D11134002506E080
:100C800014F8011B114864304155681CC5B2207826
:100C90002228F5D11134002506E014F8011B0B4879
:100CA0006E304155681CC5B220782228F5D10E342B
:100CB000002506E014F8011B044878304155681CF3
:100CC000C5B220782228F5D170BD0000EC2A05209D
:100CD0007CB500264FF4806004F092FB04464FF48C
:100CE000806004F08DFB05460CB900BFFEE70DB92E
:100CF00000BFFEE74FF480612046FFF70EFB0C4873
:100D0000A0F10A01A0F11403A0F17802CDE90010CE
:100D10000849204603F0E8F8204600F00DF8284680
:100D200004F0F2FA204604F0EFFA002500247CBD1E
:100D3000642B05209079000870B5ADF5816D0546EE
:100D40004FF4806102A8FFF7E8FA00240026002093
:100D500001902846FFF7F8FA84B22146284600F0B1
:100D60008DF9064640232322294602A805F048FAB9
:100D700002A92846FFF7FCFA4FF4806102A8FFF7AA
:100D8000CCFAE0B28DF8040020128DF805000020A6
:100D9000019023208DF8040001A902A8FFF7C8FAEA
:100DA00001A902A8FFF7C4FA294602A8FFF7C0FA72
:100DB000F0B28DF8040030128DF8050001A902A8E8
:100DC000FFF7B6FA0020019040208DF8040001A939
:100DD00002A8FFF7ADFA02A9024802F013FA0DF5D6
:100DE000816D70BD6421052070B505464FF06064CB
:100DF0004FF4E13000F03AF817A1194802F002FA76
:100E00000121184880F899101BE0154890F87C04DF
:100E1000012816D11248D0F874147230FFF7FEFE84
:100E200000200F4981F87C040F480078472804D03F
:100E3000552805D100F034F802E0FFF749FF00BF64
:100E400000BF084890F899000028DED10549D1F884
:100E5000880002F0A3F870BD7361647361640000E0
:100E600064210520EC2A0520E826052010B504465B
:100E700009480A4908600846446000218160C16051
:100E800001610C21416101F097FB0122034971319D
:100E9000024801F0B1FC10BD005000406421052063
:100EA00070B5002400253E48FFF7D4FE4FF4FA70D9
:100EB00004F0D0F900213B4880F87D1400BF0220E7
:100EC000384981F8700000BF0021364880F87D1451
:100ED000354802F025FF3549C1F88C0000BF0020DD
:100EE000304981F8700000BF3048D0F888003049A0
:100EF000884201D12F4800E02D482C49C1F88800D4
:100F00000846D0F88820D0F88C10274804F0AEFAB4
:100F1000044624B928A004F0DDFA00BFFEE72568E6
:100F20002248C0F88C50241D204600F0C1F820B1A2
:100F300026A004F0CFFA00BFFEE72946204602F0C3
:100F400083F81A48D0F888001949884204D1022051
:100F5000164981F890000FE01448D0F88800154930
:100F6000884204D10320114981F8900004E01DA0BB
:100F700004F0B0FA00BFFEE702F068F801F058FF95
:100F80000A49D1F88C20D1F888000023214601F0CD
:100F9000A6FD0649D1F8880002F000F870BD0000F7
:100FA000EC26052064210520CC040220EC2A052033
:100FB0000000040800000A08626C65207570646116
:100FC000746520616464722065727200626C6520D1
:100FD0007570646174652041707042696E2065723D
:100FE00072000000626C6520757064617465206336
:100FF000757272656E742061647220657272000091
:1010000000BFFEE710B500BF00BF00BF00BF00BFBC
:10101000BFF34F8F00BF00BF00BF00BF00BF00BFC6
:10102000BFF36F8F00BF00BF00BF002011490860F1
:101030001148006840F400300F49086000BF00BF4D
:1010400000BFBFF34F8F00BF00BF00BF00BF00BF96
:1010500000BFBFF36F8F00BF00BF00BF00BF01F034
:10106000A5FF04484C30006840F0040001494C31B1
:10107000086010BD50EF00E014ED00E0F0B505464B
:101080000E460024AF1905E015F8011BA0B202F0CE
:101090002CFE0446BD42F7D3A0B2002102F025FE8B
:1010A00004462046002102F020FE04462046F0BD02
:1010B0000146086800F07040B0F1005F01D00320E5
:1010C00070470020FCE7000010B5134890F890002E
:1010D00006281ED2DFE800F01C1B1116030A0020B0
:1010E0000D4981F8900001F0B1FF13E000200A499A
:1010F00081F8900001F0AAFF0CE001F0F3FE02F08D
:10110000F3FD07E001F0EEFE02F0EEFD02E001E08B
:1011100000E000BF00BF10BDEC2A05201CB506484A
:10112000052100234FF48062CDE9001003A1064899
:1011300006F0A4F81CBD000094040220626C655FF8
:101140007461736B00000000E90D00087047000037
:1011500010B50121014801F095FC10BD0000020806
:1011600010B5002201B909E0012901D10A0205E008
:10117000022901D10A0201E04FF440720B2800D984
:10118000001D154B1B6823F44073134C236023464A
:101190001B681343236023461B6823F0F803236076
:1011A00023461B68F82494FAA4F4B4FA84F400FAF1
:1011B00004F444F002042343074C236023461B68D5
:1011C00043F48033236000BF00BF00BFBFF34F8FE5
:1011D00000BF00BF00BF10BD103C0240174A12689C
:1011E00022F44072154B1A60032906D11A46126880
:1011F000DB131A43114B1A600EE0022906D10F4A85
:10120000126842F400420D4B1A6005E00B4A126866
:1012100042F00402094B1A60084A12684FF4803306
:1012200043EA00231A43054B1A6000BF00BF00BF0A
:10123000BFF34F8F00BF00BF00BF7047103C02409C
:101240000248006800F00C0070470000143C0240A7
:1012500001460020102903D1034A126890B202E02F
:10126000014A1268100C7047183C0240AA20064937
:101270000978AA2900D106E003490978CC2901D1CF
:10128000CC2000E055207047153C02400248006821
:101290000249084070470000143C0240F00000F092
:1012A000024800680249084070470000143C0240B0
:1012B0000000FF0F0B4A126822F44072094B1A60BB
:1012C0001A4612681A601A46126842F001021A6041
:1012D000017000BF00BF00BFBFF34F8F00BF00BF52
:1012E00000BF7047103C024010B50D49096821F459
:1012F00040710B4C21602146096841F44071216026
:101300002146096841F0010121600260436000BF8D
:1013100000BF00BFBFF34F8F00BF00BF00BF10BDB5
:10132000103C02400C4A126822F440720A4B1A60C8
:101330001A46126842F480721A601A46126842F025
:1013400001021A60018000BF00BF00BFBFF34F8FD2
:1013500000BF00BF00BF7047103C02400C4A12683B
:1013600022F440720A4B1A601A46126842F4007264
:101370001A601A46126842F001021A60016000BF4A
:1013800000BF00BFBFF34F8F00BF00BF00BF70475B
:10139000103C02401B48006800F0100028B11A48B9
:1013A000806940F01000184988611648006800F014
:1013B000200028B11448806940F008001249886173
:1013C0001048006800F0400028B10F48806940F0E4
:1013D00004000D4988610B48006800F0800028B1C6
:1013E0000948806940F002000749886105480068A3
:1013F00000F0020028B10448806940F02000024952
:10140000886170470C3C0240CC5C042070B50446F7
:10141000002500201049886100F0DAFA054609E04D
:10142000601C38B124B100F0D3FA401BA04201D9AE
:10143000032070BD0948006800F480300028EFD117
:101440000648006800F0F20018B1FFF7A3FF012082
:10145000EFE70020EDE70000CC5C04200C3C0240EC
:1014600070B504461D460023B5F5804F13D154F8DE
:1014700022300C480340D1E9000640EA06108E688D
:1014800040EA06208E8940EA06408E6930430343D5
:1014900044F8223003E06FF0704044F8220000204E
:1014A00070BD00000000F0CF10B5024600230868B0
:1014B00052F820301B480340D1E901042043CC6896
:1014C00020430C6920434C6920438C692043CC693C
:1014D00020430C6A20434C6A20438C6A2043CC6A28
:1014E00020430C6B20438C6B20434C6B2043034305
:1014F0008868082801D143F04003086842F820308A
:10150000086BB0F5801F05D1086818B110680C6B26
:1015100020431060086818B110684C6B20431060BD
:10152000002010BD8004C0FF30B5034614460022E1
:10153000601C53F8202002F04042D1E9000540EA47
:1015400005108D6840EA05208D8940EA0545088A26
:10155000401E45EA0055087D801E45EA00608D6901
:1015600028430243601C43F82020186800F48010D0
:1015700038B1586820F47002088A401E42EA0052CE
:101580005A60002030BD00002DE9F04105460024DE
:101590000026002701F093FA074600BF10E007EB92
:1015A0004700094901EBC000005D401C06EB8026A6
:1015B00006F10060A84202D3601CBDE8F081641C03
:1015C000172CECD32046F8E744780008014691F840
:1015D0003500022803D0802048650120704705208F
:1015E00081F835000868006820F001000A68106082
:1015F0000020F3E72DE9F04104460E4601270025BF
:1016000000BF2548007D012802D10220BDE8F081FD
:1016100001202149087500BF4CF25030FFF7F6FE5B
:1016200007460027002F30D1781E3060206801283F
:1016300010D1207C6168FFF7D1FD4CF25030FFF7EC
:10164000E5FE07461548006848F20401884313493F
:1016500008601AE0A56812E0217C2846FFF780FDAB
:101660004CF25030FFF7D2FE07460C48006820F0DD
:10167000FA000A4908600FB1356005E06D1CD4E935
:1016800002100844A842E7D800BF00BF002002496A
:10169000087500BF3846B9E7CC5C0420103C024016
:1016A00010B504463F202060FFF7FAFDA060FFF769
:1016B000DDFDE060FFF7EAFD6061FFF7C1FD20613D
:1016C0001020FFF7C5FDA0612020FFF7C1FDE061FC
:1016D00010BD00000348006840F000400149086068
:1016E00000207047103C02402DE9F04106460F46AD
:1016F00014461D464FF0010800BF2248007D012816
:1017000002D10220BDE8F08101201E49087500BF0A
:101710004CF25030FFF77AFE80464FF00008B8F1E7
:10172000000F28D136B1012E09D0022E0CD0032E85
:1017300015D10EE0E1B23846FFF7BCFD10E0A1B2D2
:101740003846FFF7EFFD0BE021463846FFF706FE6F
:1017500006E022462B463846FFF7C6FD00E000BFF4
:1017600000BF4CF25030FFF751FE0748006820F0F0
:1017700001000549086000BF00200249087500BF4C
:101780004046BFE7CC5C0420103C0240074800689C
:1017900000F0004030B1064804490C3908600548A3
:1017A000086001E0012070470020FCE7103C024087
:1017B00023016745AB89EFCDF8B502460B46002102
:1017C00000250024002000BFE4E0012606FA01F510
:1017D0001E6806EA0504AC4271D15E68022E02D092
:1017E0005E68122E13D1CF0802F1200656F82700AA
:1017F0004E07F70E0F26BE40B0434F07FF0E1E697F
:10180000BE403043CF0802F1200646F8270010689A
:101810004F000326BE40B0431E7906F003064F007A
:10182000BE40304310605E68012E08D05E68022E14
:1018300005D05E68112E02D05E68122E13D190681A
:101840004F000326BE40B0434F00DE68BE40304329
:101850009060506801268E40B0431E79C6F3001692
:101860008E4030435060D0684F000326BE40B043E6
:101870004F009E68BE403043D0605E6806F08056E0
:10188000B6F1805FA8D100BF444E366846F480466A
:10189000424F3E603E46366806F48046009600BFE2
:1018A00000BF3F4E8F0856F827008E07370F0F26D0
:1018B000BE40B0433B4EB24202D100262EE068E06B
:1018C000394EB24201D1012628E0384EB24201D150
:1018D000022623E0364EB24201D103261EE0354EE9
:1018E000B24201D1042619E0334EB24201D105269D
:1018F00014E0324EB24201D106260FE0304EB24221
:1019000001D107260AE02F4EB24201D1082605E098
:101910002D4EB24201D1092600E00A268F073F0F63
:10192000BE4030431E4E8F0846F82700274E3068D1
:10193000A0435E6806F48036B6F5803F00D12043B0
:10194000224E3060361D3068A0435E6806F40036D3
:10195000B6F5003F00D120431C4E361D3060361DC9
:101960003068A0435E6806F48016B6F5801F00D18B
:101970002043164E08363060361D3068A0435E683E
:1019800006F40016B6F5001F00D120430F4E0C36AA
:101990003060491C1029FFF418AFF8BD44380240EC
:1019A00008380140000002400004024000080240E4
:1019B000000C0240001002400014024000180240D7
:1019C000001C02400020024000240240003C014074
:1019D00001480068704700000804022002480068BF
:1019E000401C0149086070470804022010B50848EF
:1019F000006840F4007006490860052000F0D4F843
:101A00000F2000F007F800F047F8002010BD00009C
:101A1000003C024070B50446074800684FF47A71F4
:101A2000B0FBF1F5284600F0FDFC00222146501ED7
:101A300000F07CF8002070BD040402204178154AB3
:101A400011600178F9B1121D41681160017B09072D
:101A5000C27A41EA0261827A41EAC241427B41EAAA
:101A60008241827B41EA4241C27B41EA0241427AA1
:101A700041EA0221027A41EA420102781143054A11
:101A80000832116005E00021024A121D1160121D8A
:101A90001160704798ED00E07047000070B5044693
:101AA0000E4615460CB9012070BD94F8450028B9C2
:101AB000002084F84400204600F02AF804F10801D0
:101AC0002068FFF7F1FC3146A2682068FFF72CFD83
:101AD0002946E36AD4E90102FFF7C2FCA168206845
:101AE00050F8210040F00100A268216841F822006E
:101AF000606918B900200549086002E00120034927
:101B00000860012084F845000020CDE70C04022085
:101B1000704700BF00F01F0201219140420992006E
:101B200002F1E022C2F8001100BF70472DE9F05F1A
:101B300080460D461646002701F07EF807463946D6
:101B40002A46334601F00700C0F1070ABAF1040F34
:101B500002D94FF0040A01E0C0F1070AD14600F1B2
:101B6000040ABAF1070F02D24FF0000A01E0A0F117
:101B7000030AD4464FF0010A0AFA09FAAAF1010A47
:101B80000AEA020A0AFA0CFA4FF0010B0BFA0CFBF4
:101B9000ABF1010B0BEA030B4AEA0B04214640466A
:101BA00001F052F8BDE8F09F00BF00F00702064BBD
:101BB00019684FF6FF031940044B0B4343EA022117
:101BC000014B196000BF70470CED00E00000FA0502
:101BD00038B5002400BF2048006840F080501E49FE
:101BE00008600846006800F08050009000BF00BF09
:101BF0001A48006840F4803018490860FFF7E8FE92
:101C0000044607E0FFF7E4FE001BB0F57A7F01D938
:101C1000032038BD1148406800F48030B0F5803FA3
:101C2000F0D10E48006840F400300C490860FFF71E
:101C3000CFFE044607E0FFF7CBFE001BB0F57A7F2E
:101C400001D90320E5E70548406800F40030B0F50D
:101C5000003FF0D10020DCE7403802400070004037
:101C600070B504460D4600266648006800F00F0077
:101C7000A8420ED26348006820F00F002843614953
:101C800008600846006800F00F00A84201D001205B
:101C900070BD207800F00200022807D15A48006881
:101CA00020F0F000A168084357490860207800F050
:101CB0000100002860D06068012807D15248083828
:101CC0000068C0F34040A0B90120E1E76068022845
:101CD00007D14D4808380068C0F3406048B901207A
:101CE000D6E7494808380068C0F3400008B9012029
:101CF000CEE74548006820F0030061680843424988
:101D00000860FFF765FE06466068012810D108E00C
:101D1000FFF75EFE801B41F28831884201D9032023
:101D2000B6E73948006800F00C000428F0D123E041
:101D30006068022810D108E0FFF74AFE801B41F2DC
:101D40008831884201D90320A2E72F48006800F0BB
:101D50000C000828F0D10FE008E0FFF739FE801BE7
:101D600041F28831884201D9032091E72648006872
:101D700000F00C000028F0D12248006800F00F00AD
:101D8000A8420ED91F48006820F00F0028431D49C3
:101D900008600846006800F00F00A84201D001204A
:101DA00076E7207800F00400042807D11648006880
:101DB00020F4E050E168084313490860207800F0FF
:101DC0000800082808D11048006820F46040216904
:101DD00040EAC1000C49086000F04EF80A49096861
:101DE00001F0F001F02292FAA2F2B2FA82F2D140AE
:101DF000064A515CC840064908600F20FFF70AFEFA
:101E0000002045E7003C0240083802402C780008DA
:101E10000404022001480068704700000404022006
:101E200000B5FFF7F7FF0749096801F4E0514FF4E7
:101E3000E05292FAA2F2B2FA82F2D140024A515C26
:101E4000C84000BD083802403C78000800B5FFF7E4
:101E5000E1FF0749096801F460414FF4604292FADA
:101E6000A2F2B2FA82F2D140024A515CC84000BDEF
:101E7000083802403C78000870B500210022002399
:101E80000020274C246804F00C0424B1042C04D056
:101E9000082C41D103E0234840E023483EE0204C99
:101EA000241F246804F03F011D4C241F246804F4FF
:101EB000800484B11C4CB4FBF1F5194C241F246838
:101EC00047F6C076344096FAA6F6B6FA86F6F4409F
:101ED00005FB04F20FE0134CB4FBF1F5104C241F8A
:101EE000246847F6C076344096FAA6F6B6FA86F627
:101EF000F44005FB04F20A4C241F246804F4403427
:101F00004FF4403595FAA5F5B5FA85F5EC40641C1B
:101F10006300B2FBF3F001E0024800BF00BF70BDF8
:101F2000083802400024F40040787D0138B50446AA
:101F30000025207800F00100002871D0FE480068DC
:101F400000F00C0004280DD0FB48006800F00C00E5
:101F5000082813D1F848001F006800F48000B0F58D
:101F6000800F0BD1F44808380068C0F340400028C7
:101F700069D06068002866D1012038BD00BF606864
:101F8000B0F5803F08D1EC480838006840F4803054
:101F9000E949083908602EE0606868B9E648083801
:101FA000006820F48030E449083908600846006879
:101FB00020F4802008601EE06068B0F5A02F0DD1ED
:101FC000DD480838006840F48020DB4908390860A3
:101FD0000846006840F4803008600CE0D6480838B5
:101FE000006820F48030D449083908600846006849
:101FF00020F48020086000BF606890B1FFF7E8FC23
:10200000054606E0FFF7E4FC401B642801D90320E5
:10201000B3E7C94808380068C0F340400028F1D051
:1020200011E0FFF7D5FC054606E0FFF7D1FC401BA9
:10203000642801D90320A0E7BF4808380068C0F32E
:1020400040400028F1D1207800F00200022873D12E
:10205000B948006800F00C0058B1B748006800F0BB
:102060000C00082821D1B448001F006800F480004B
:10207000D8B9B14808380068C0F3400020B1E06822
:10208000012801D0012078E7AB480838006820F02B
:10209000F800F82292FAA2F2B2FA82F22169914093
:1020A0000843A5490839086046E0E06850B3A248F3
:1020B0000838006840F001009F4908390860FFF7C0
:1020C00087FC054606E0FFF783FC401B022801D988
:1020D000032052E7984808380068C0F34000002801
:1020E000F1D095480838006820F0F800F82292FAFC
:1020F000A2F2B2FA82F22169914008438E4908396E
:10210000086019E08C480838006820F001008A490E
:1021100008390860FFF75CFC054606E0FFF758FC4D
:10212000401B022801D9032027E7834808380068AC
:10213000C0F340000028F1D1207800F00800082802
:1021400036D16069D0B17C486C30006840F0010045
:1021500079496C310860FFF73BFC054606E0FFF764
:1021600037FC401B022801D9032006E772486C3077
:102170000068C0F340000028F1D019E06E486C30D0
:10218000006820F001006C496C310860FFF720FC0A
:10219000054606E0FFF71CFC401B022801D903207E
:1021A000EBE665486C300068C0F340000028F1D1D0
:1021B000207800F00400042871D100BF5E48383058
:1021C000006840F080505C4938310860084600687B
:1021D00000F08050009000BF00BF5848006840F4F5
:1021E000807056490860FFF7F3FB054606E0FFF7ED
:1021F000EFFB401B642801D90320BEE64F4800686E
:1022000000F480700028F2D000BFA068012808D137
:1022100049486830006840F001004749683108606B
:102220002DE0A06868B944486830006820F00100DB
:102230004149683108600846006820F004000860E1
:102240001DE0A06805280DD13B486830006840F0CB
:1022500004003949683108600846006840F0010010
:1022600008600CE034486830006820F00100324912
:10227000683108600846006820F00400086000BF6C
:10228000A068A8B1FFF7A4FB054609E0FFF7A0FB93
:10229000401B41F28831884202D903206DE61BE0E1
:1022A000254868300068C0F340000028EED013E0F5
:1022B000FFF78EFB054608E0FFF78AFB401B41F263
:1022C0008831884201D9032057E61B4868300068EE
:1022D000C0F340000028EFD1A06988B31648006819
:1022E00000F00C00082873D0A069022864D11248BD
:1022F0000838006820F080700F4908390860FFF73F
:1023000067FB054606E0FFF763FB401B022801D987
:10231000032032E6084808380068C0F3406000280F
:10232000F1D1D4E90701084347F6C07292FAA2F24C
:10233000B2FA82F2616A04E008380240007000409C
:1023400058E0914008430122A16AC2EB51014FF4C9
:10235000403292FAA2F2B2FA82F2914008434FF070
:10236000706292FAA2F2B2FA82F2E16A91400843F4
:102370004FF0E04292FAA2F2B2FA82F2216B91405F
:1023800008431D490860081F006840F08070091F5D
:102390000860FFF71DFB054606E0FFF719FB401B31
:1023A000022801D90320E8E51348001F0068C0F3A4
:1023B00040600028F1D01DE00F48001F006820F0A9
:1023C00080700D49091F0860FFF702FB054607E012
:1023D0000EE0FFF7FDFA401B022801D90320CCE5EF
:1023E0000548001F0068C0F340600028F1D101E0FB
:1023F0000120C2E50020C0E504380240042808D1CD
:102400004FF0E021096941F004014FF0E022116131
:1024100007E04FF0E021096921F004014FF0E022CC
:102420001161704770B504462546681EB0F1807F83
:1024300001D301200FE0681E4FF0E02148610F2119
:102440004FF0FF3000F000FC00204FF0E0218861E9
:1024500007200861002070BD704700002DE9F041A1
:1024600004462068C569206806682068876805F00A
:102470000F08B8F1000F0AD105F0200038B106F0BE
:10248000200020B1204601F095F9BDE8F081B8F1B7
:10249000000F79D040F201103840002874D005F0C8
:1024A000010048B106F4807030B101202168086253
:1024B000E06E40F00100E06605F0020048B107F070
:1024C000010030B1022021680862E06E40F0040093
:1024D000E06605F0040048B107F0010030B10420C7
:1024E00021680862E06E40F00200E06605F0080036
:1024F00060B106F0200010B907F0010030B10820EB
:1025000021680862E06E40F00800E066E06E58B3B3
:1025100005F0200028B106F0200010B1204601F09F
:1025200049F9E06E00F0080020B92068806800F0EA
:10253000400018B3204601F070F82068806800F071
:102540004000B8B12068806820F0400021688860B1
:10255000606E50B11748616E0865606EFFF736F81F
:1025600010B1606E016D88470DE02046FFF774FFE3
:1025700009E009E02046FFF76FFF04E02046FFF77F
:102580006BFF0020E06680E705F0800030B106F0C8
:10259000800018B1204601F017FB76E705F04000F7
:1025A00030B106F0400018B1204601F046F86CE763
:1025B00000BF6AE70336000810B504460CB90120D5
:1025C00010BDA06900B100E000BF94F8690028B90F
:1025D000002084F86800204600F02AF8242084F8BF
:1025E00069002068006820F001002168086020462A
:1025F00001F024F9012800D1E2E7606A10B1204619
:1026000000F050FF2068406820F490402168486046
:102610002068806820F02A002168886020680068AF
:1026200040F0010021680860204600F0B0FFC7E7D5
:1026300030B587B00446256802200390012004903D
:102640000220059068482844002842D0B0F5406F29
:102650007ED0B0F54C4F3BD100BF6448006840F0DD
:102660001000624908600846006800F01000019000
:1026700000BF00BF00BF5D481438006840F0010093
:102680005A49143908600846006800F001000190BA
:1026900000BF00BF00BF0846006840F001000860AE
:1026A0000846006800F00100019000BF00BF481517
:1026B00002900720069002A94D48FFF77DF84FF4DD
:1026C000806002900720069002A94948FFF774F83D
:1026D00086E000BF4548001F006840F400304349D1
:1026E000091F08600846006800F40030019000BF30
:1026F00000BF00BF3D481438006840F001003B496E
:10270000143908600846006800F00100019000BF1D
:1027100000BF00BF0846006840F00100086008469E
:10272000006800F00100019000BF00BF042002908B
:102730000720069002A92E48FFF73EF808200290D5
:102740000720069002A92A48FFF736F848E0FFE77D
:1027500000BF26481438006840F0020023491439AD
:1027600008600846006800F00200019000BF00BF4A
:1027700000BF0846006840F0020008600846006894
:1027800000F00200019000BF00BF00BF1748001F0B
:10279000006840F480101549091F08600846006869
:1027A00000F48010019000BF00BF4FF40050029071
:1027B0000820069002A90F48FEF7FEFF4FF4805054
:1027C00002900820069002A90A48FEF7F5FF0022B1
:1027D00006213520FFF7AAF93520FFF79AF900BF47
:1027E00000BF07B030BD000000BCFFBF443802404E
:1027F000000002400004024010B5034693F86A004E
:1028000020285BD101B10AB9012010BD00BF93F8A7
:102810006800012801D10220F7E7012083F8680051
:1028200000BF5965A3F85820A3F85A2000BF986844
:10283000B0F5805F0AD1186920B940F2FF10A3F803
:102840005C001CE0FF20A3F85C0018E0986848B921
:10285000186918B9FF20A3F85C0010E07F20A3F8E6
:102860005C000CE09868B0F1805F08D1186918B975
:102870007F20A3F85C0002E03F20A3F85C0000BFCB
:102880000020D866222083F86A0000BF002083F869
:10289000680000BF1868006840F480701C68206001
:1028A0001868806840F001001C68A0601868006823
:1028B00040F020001C6820600020A6E70220A4E76A
:1028C00010B50446304920680860084600682F4962
:1028D0000844F8B1B0F5406F36D0B0F54C4F4DD14B
:1028E0002B4829494861401CC86000F20240086139
:1028F00008304860401C8860401C0862A0F20E400E
:102900008861232008774020487701208877214874
:10291000486233E020481C494861401CC86000F20E
:102920000240086108304860401C8860401C086212
:10293000A0F20E40886123200877402048770120CC
:1029400088771648486219E015480F494861401CCD
:10295000C86000F20240086108304860401C88608E
:10296000401C0862A0F20E408861232008774020B6
:102970004877012088770B48486200BF00BF0248B3
:1029800000F06CFE10BD00003418052000BCFFBF35
:10299000CD180520D41C0520511D052058210520E7
:1029A000D5210520DC2505202DE9F84304460D46F8
:1029B00016461F464FF0000994F86900202854D1AC
:1029C00005B116B90120BDE8F88300BF94F868008E
:1029D000012801D10220F6E7012084F8680000BF39
:1029E00000205034E06121206076FEF7F1FF81463F
:1029F00026806680503C21E0B4F85200401EA4F8C6
:102A000052004B46002280212046009701F011F928
:102A100008B10320D7E7A068B0F5805F0AD120692C
:102A200040B9A846B8F80000C0F3080021688862E1
:102A3000AD1C03E015F8010B21688862B4F8520060
:102A40000028D9D14B46002240212046009701F0B2
:102A5000F0F808B10320B6E7202084F8690000BF31
:102A6000002084F8680000BFADE70220ABE77047A4
:102A700000BFFEE701460120014A107000207047A8
:102A800090040220F0B587B004460D462046FEF7BC
:102A90007BFD06466019FEF777FD871B002002903C
:102AA0000220069004960597FEF770FE01A902A881
:102AB000FEF7A0FDFEF70EFE019807B0F0BD00B5D1
:102AC00089B001A8FEF7ECFD069800F00050B0F1C7
:102AD000005F02D1012009B000BD0020FBE72DE915
:102AE000F04F87B080460D4691461E462F46AA46B7
:102AF000AB460595002400EE106AB8EE401BB0EE20
:102B0000000B01F021FABCEEC00B10EE100AC0B2AF
:102B100003900398B9FBF0F0029049464046FFF756
:102B2000B1FFFEF733FE00BF37E036B1012E0ED005
:102B3000022E16D0032E2CD11DE017F804C06246D9
:102B4000002341463046FEF7CFFD049021E03AF8DD
:102B500014C06246002341463046FEF7C5FD04908E
:102B600017E05BF824C06246002341463046FEF77A
:102B7000BBFD04900DE0059800EBC40003C80246BD
:102B80000B46CDE9000141463046FEF7ADFD04900D
:102B900000BF00BF03988044641C02988442C4D3E1
:102BA000FEF798FD049807B0BDE8F08F1FB500BF91
:102BB0001E48006820F480301C4908601B487030B3
:102BC000006820F0010019497031086000BF012041
:102BD0008DF800004FF0C040019019208DF80800DA
:102BE00003208DF80B0001208DF80F0000208DF8D8
:102BF0000E0001208DF80D008DF8010000208DF8E9
:102C00000A008DF809008DF80C006846FEF716FFE3
:102C1000042040F00101054A70321160034909683F
:102C200041F48031014A116000BF1FBD24ED00E076
:102C300000BFFEE77047000002480068C0F30220B2
:102C4000704700000CED00E010B5002807DA0A0715
:102C5000140E054A00F00F031B1FD45403E00A07AB
:102C6000130E024A135410BD18ED00E000E400E01A
:102C700070B504460D462A462146044800F066F821
:102C800008B9002070BD4FF0FF30FBE7642105203C
:102C90002DE9F84304460D46904600202860414641
:102CA0006846FFF7E5FF18B14FF0FF30BDE8F88345
:102CB0009DF80000182813D006DC012809D002284E
:102CC00009D0042820D109E041281AD061281BD15D
:102CD00018E080271BE04FF4806718E00020E5E74C
:102CE00041466846FFF7C4FF40B99DF80000182828
:102CF00004D14FF0FF3028600020D7E74FF0FF30BD
:102D0000D4E700BF0120D1E74FF0FF30CEE700BF8E
:102D10009DF800002070012609E0A0194146FFF748
:102D2000A7FF10B14FF0FF30C0E7701C86B2781DCE
:102D30008642F2DB6178A07880F0FF00814202D009
:102D40004FF0FF30B2E72F600020AFE710B5034629
:102D50000DE040F27D40C05C012808D1002440F223
:102D60007D40C45493F871000870002010BD101EFF
:102D7000A2F10102EDD10120F8E700002DE9F047B2
:102D8000002500260027A8462748D0F818900024E0
:102D9000264F00BF0CE0D7F80080A04503D12248A1
:102DA0000069404500D808E0641C1F48406907449A
:102DB0001D480069401CA042EDD800BF64B94FF027
:102DC000FF301949086000F041F900F03FF916485A
:102DD00040691649471802E0134840693F1A3D46CA
:102DE0000024114E01E06D1C641C242CFBD3002434
:102DF0000D48066A04E015F8010B06F8010B641C87
:102E00009C2CF8D300240848C66904E015F8010B8F
:102E100006F8010B641C0448C068A042F6D800F014
:102E200015F9BDE8F08700009804022000000208B0
:102E30002DE9F047002500260027A8462748D0F8AE
:102E400018900024264F00BF0CE0D7F80080A04562
:102E500003D122480069404500D808E0641C1F489F
:102E6000406907441D480069401CA042EDD800BFDE
:102E700064B94FF0FF301949086000F0E7F800F03E
:102E8000E5F8164840691649471802E013484069BA
:102E90003F1A3D460024114E04E015F8010B06F8D8
:102EA000010B641C242CF8D300240C48066A04E0AF
:102EB00015F8010B06F8010B641C9C2CF8D30024B8
:102EC0000648C66904E015F8010B06F8010B641CFE
:102ED0000248C068A042F6D8BDE8F08798040220F6
:102EE000000002082DE9F041002500260027A84631
:102EF0000024284F00BF0CE0D7F80080A04503D184
:102F000025480069404500D808E0641C2248406913
:102F1000074421480069401CA042EDD800BF34B9E5
:102F20001D4800691C49086000F090F802E01A484A
:102F300040693F1A7F683D460024174E04E015F8AB
:102F4000010B06F8010B641C242CF8D30024124852
:102F5000066A04E015F8010B06F8010B641C9C2CB2
:102F6000F8D300240C48C66904E015F8010B06F8F4
:102F7000010B641C0848C068A042F6D84FF0FF302F
:102F800005490860FEF7E4F800F060F800F05EF82C
:102F9000BDE8F081000002089804022070B50446E4
:102FA000012001F0CCFC6568A84770BD10B5002376
:102FB000234C236000BF00BF00BFBFF34F8F00BF93
:102FC00000BF00BF231F1868C0F34E3100BFC0F31D
:102FD000C90200BF43F6E07303EA41134FF04044D7
:102FE00004EA82742343174C236000BF00BF131E02
:102FF000A2F10102EED10B1EA1F10101E7D100BF48
:1030000000BF00BFBFF34F8F00BF00BF00BF0C4B1E
:10301000703B1B6843F48033094C703C236000BF55
:1030200000BF00BFBFF34F8F00BF00BF00BF00BF96
:1030300000BF00BFBFF36F8F00BF00BF00BF10BD58
:1030400084ED00E060EF00E0704700002DE9F04102
:1030500000240027304D0026284629680069401EBC
:10306000814205D32868401C10B100F059F850E0A7
:103070002868401C2860284928684969274A00FBBD
:1030800001272868401E2449496900FB0120224984
:103090004860084640681146884202D208461E49E8
:1030A0004860FEF773FB00261B4C0AE094F800C052
:1030B0006246002339461846FEF716FB7F1C641C47
:1030C000761C242EF2D300261348046A0AE094F8F2
:1030D00000C06246002339461846FEF705FB7F1CF8
:1030E000641C761C9C2EF2D300260B48C4690AE0AF
:1030F00094F800C06246002339461846FEF7F4FAF9
:103100007F1C641C761C0448C068B042F0D8FEF7EF
:10311000E1FABDE8F08100009804022000000208F6
:103120002DE9F0410024002600253449486902F0C9
:1031300067F907460FB900BFFEE7304842694168AA
:103140003846FDF7D1F8FEF703F8002038602C4E22
:10315000FEF71CFB00253C460AE094F800C06246DE
:10316000002331461846FEF7BFFA761C641C6D1C1E
:1031700022484069A842F0D8384602F0C5F8002736
:1031800001201E4908601E48486000250C460AE0E0
:1031900094F800C06246002331461846FEF7A4FAB0
:1031A000761C641C6D1C242DF2D300251348046A80
:1031B0000AE094F800C06246002331461846FEF744
:1031C00093FA761C641C6D1C9C2DF2D300250B48D1
:1031D000C4690AE094F800C06246002331461846EC
:1031E000FEF782FA761C641C6D1C0448C068A84275
:1031F000F0D8FEF76FFABDE8F081000098040220D5
:103200000000020870B505460C462E6828E01648F6
:10321000304478B1B0F5406F16D0B0F54C4F1DD1A9
:1032200000BF4FF0FF33012221461048FFF7BCFBDF
:1032300000BF13E000BF4FF0FF33012221460C48CE
:10324000FFF7B2FB00BF09E000BF4FF0FF330122E0
:1032500021460848FFF7A8FB00BF00BF00BF641C61
:1032600020780028D3D170BD00BCFFBF5C180520BA
:10327000E01C05206421052001B500BF4FF0FF339D
:10328000012269460248FFF78FFB00BF002008BDFE
:10329000642105202DE9F04194B005468846164684
:1032A0001F46002400BF2648006840F08050244993
:1032B00008600846006800F08050019000BF00BF21
:1032C00000BF2048006840F440401E49086008469E
:1032D000006800F44040019000BF00BF012007904B
:1032E0000004089002200D9041050E91CDF83C801D
:1032F00010951196129707A8FEF718FE04460CB118
:1033000000BFFEE7FEF764FC04460CB100BFFEE719
:103310000F20029002200390002004904FF4A05050
:1033200005904FF480500690052102A8FEF798FC06
:1033300004460CB100BFFEE714B0BDE8F081000008
:10334000403802400070004010B503F0C7FF01286C
:1033500001D003F045FCFEF741FB10BD10B5002085
:103360002C498860C8600846C068C030486108467B
:1033700040694FF40031B1FBF0F026490861FFF7D6
:1033800057FD2448806941F24231884223D00846E3
:10339000204988619C2088601F4808620420C8601A
:1033A000C86802F02DF81B49C8610846C068C030E3
:1033B0004861084640694FF40031B1FBF0F015490F
:1033C00008614FF0FF300860FDF7C2FEFFF73EFED8
:1033D000FFF73CFE1CE09C200E4988600E48086206
:1033E0000846C068C0304861084640694FF4003163
:1033F000B1FBF0F007490861C86802F001F805491F
:10340000C8610846C06908B900BFFEE7FFF7B6FC0F
:1034100010BD000098040220EC2A05201448006822
:1034200040F47000124908601248006840F0010042
:103430001049086000200F49083108600D480068F5
:103440000D4908400B4908600C48091D0860081F19
:10345000006820F48020091F0860002005490C3115
:1034600008604FF000600249803908607047000032
:1034700088ED00E000380240FFFFF6FE1030002427
:1034800010B50748FEF7EAFF0122054971310448EB
:10349000FFF7B2F90121024880F87D1410BD000049
:1034A0006421052090F8241001F0010139B1016870
:1034B000496821F40031826A11430268516090F832
:1034C000241001F0020139B10168496821F480310A
:1034D000C26A11430268516090F8241001F004019F
:1034E00039B10168496821F48021026B11430268F7
:1034F000516090F8241001F0080139B10168496861
:1035000021F40041426B11430268516090F824108D
:1035100001F0100139B10168896821F48051826B92
:1035200011430268916090F8241001F0200139B134
:103530000168896821F40051C26B114302689160EF
:1035400090F8241001F0400199B10168496821F414
:103550008011026C114302685160016CB1F5801F4B
:1035600007D10168496821F4C001426C1143026827
:10357000516090F8241001F0800139B10168496868
:1035800021F40021826C114302685160704738B504
:10359000044600250020E066FEF71AFA054620687A
:1035A000006800F0080008280CD16FF07E402B4620
:1035B00000224FF400110090204600F03AFB08B1C1
:1035C000032038BD2068006800F0040004280CD1F6
:1035D0006FF07E402B4600224FF480010090204681
:1035E00000F027FB08B10320EBE7202084F86900F6
:1035F00084F86A0000BF002084F8680000BF00BFA4
:10360000DFE770B50546AC6B0020A4F85A00A4F8BB
:1036100052002046FEF720FF70BD0168096821F4C2
:103620009071026811600168896821F001010268E7
:103630009160202180F86A10704710B50446206818
:10364000006820F0400021680860202084F86900AC
:103650002046FFF70CFA002010BD00000146486923
:103660000278887F70B17D2A05D1C87F18B9012002
:10367000C87700207047C87F012803D182F020025C
:103680000020C87788690078B0BB087F90420ED1CF
:1036900000200B691860087FCB6818700869006803
:1036A000401C0B69186001200B6A18707EE0487F8F
:1036B00090420DD0086A0078012809D1D1E90303AE
:1036C0001B68C25408690068401C0B6918606DE0F3
:1036D000086A0078012869D1487F904266D1D1E913
:1036E00003031B68C25408690068401C0B6918601A
:1036F00001204B68187059E0FFE7886900780128BD
:103700003ED12B48406A006800284FD0086A0078F4
:1037100088B900204B6818700B691860D1E9030361
:103720001B68C25408690068401C0B6918600120BE
:103730000B6A18703AE0086A0078012810D108690D
:1037400000681B4B5B6A1B68984209D2D1E90303EE
:103750001B68C25408690068401C0B69186025E0AA
:1037600000204B681870D1E903031B68C254086934
:103770000068401C0B69186001204B68187015E048
:1037800088690078022811D108690068B0F5806F57
:1037900009D2D1E903031B68C25408690068401CC0
:1037A0000B69186002E000200B691860002061E7D7
:1037B0003418052070B50446B4F85C6094F86A00CB
:1037C000222833D1A068B0F5805F0AD1206940B9C2
:1037D000656D2068406A30402880606D801C60659F
:1037E00007E02068406AF1B20840626D511C6165D3
:1037F0001070B4F85A00401E80B2A4F85A0098B96C
:103800002068006820F49070216808602068806853
:1038100020F0010021688860202084F86A0020469A
:10382000FFF74EF8002070BD0020FCE7206880699B
:1038300040F00800216888610220F4E72DE9F04794
:103840000446002510260027A846A9462169A0683D
:10385000084361690843E16940EA0105206800689E
:10386000CD4908402843216808602068406820F45A
:103870004050E168084321684860216AA06940EA35
:1038800001052068806820F4306028432168886042
:1038900000BFC2492068884215D1C148006800F0C5
:1038A000030030B1012808D0022804D0032808D131
:1038B00005E0012606E0022604E0042602E00826D0
:1038C00000E000BFC1E0B7492068884215D1B44884
:1038D000006800F00C0030B1042808D0082804D09B
:1038E0000C2808D105E0002606E0022604E00426A4
:1038F00002E0082600E000BFA7E0AB49206888424C
:1039000015D1A748006800F0300030B1102808D069
:10391000202804D0302808D105E0002606E0022641
:1039200004E0042602E0082600E000BF8DE09F4985
:103930002068884215D19A48006800F0C00030B174
:10394000402808D0802804D0C02808D105E00026EF
:1039500006E0022604E0042602E0082600E000BF9C
:1039600073E093492068884218D18D48006800F4BC
:10397000407048B1B0F5807F0AD0B0F5007F05D027
:10398000B0F5407F08D105E0002606E0022604E0FD
:10399000042602E0082600E000BF56E085492068C2
:1039A000884218D17E48006800F4406048B1B0F504
:1039B000806F0AD0B0F5006F05D0B0F5406F08D128
:1039C00005E0012606E0022604E0042602E00826BF
:1039D00000E000BF39E078492068884218D170487B
:1039E000006800F4405048B1B0F5805F0AD0B0F5EF
:1039F000005F05D0B0F5405F08D105E0002606E085
:103A0000022604E0042602E0082600E000BF1CE0D5
:103A10006A492068884218D16148006800F4404033
:103A200048B1B0F5804F0AD0B0F5004F05D0B0F5E1
:103A3000404F08D105E0002606E0022604E00426F7
:103A400002E0082600E000BF00BF00BFE069B0F55B
:103A5000004F52D1042E2BD005DC4EB1012E12D0D6
:103A6000022E3BD11AE0082E2DD0102E36D136E092
:103A7000FEF7D6F94000616800EB5100B0FBF1F0B1
:103A80001FFA80F82EE0FEF7E1F94000616800EBD4
:103A90005100B0FBF1F01FFA80F823E0484960685C
:103AA00001EB50006168B0FBF1F01FFA80F819E0FB
:103AB000FEF7E2F94000616800EB5100B0FBF1F065
:103AC0001FFA80F80EE04FF48031606801EB50007F
:103AD0006168B0FBF1F01FFA80F803E000BF4FF01F
:103AE000010900BF00BF4FF6F07008EA0007C8F3F5
:103AF000420007432068C7604AE0042E2CD005DC52
:103B00004EB1012E12D0022E3DD11AE0082E2ED039
:103B1000102E38D138E0FEF783F9616800EB5100D0
:103B2000B0FBF1F080B22168C86030E0FEF78EF99A
:103B3000616800EB5100B0FBF1F080B22168C86011
:103B400025E02049606801EB50006168B0FBF1F0AE
:103B500080B22168C8601AE0FEF78EF9616800EB58
:103B60005100B0FBF1F080B22168C8600FE04FF463
:103B70000041606801EB50006168B0FBF1F080B279
:103B80002168C86003E000BF4FF0010900BF00BF1B
:103B90004846BDE8F0870000F369FFEF00100140E0
:103BA000903802400044004000480040004C004073
:103BB000005000400014014000780040007C0040AC
:103BC0000048E8010024F400014691F8690021282A
:103BD0002DD1B1F8520068B90868006820F0800063
:103BE0000B6818600868006840F040000B681860B7
:103BF000002070478868B0F5805F0BD1086948B92C
:103C0000CA6C1088C0F308000B689862C86C801CEE
:103C1000C86405E0CB6C581CC86418780B689862BF
:103C2000B1F85200401EA1F852000020E1E7022046
:103C3000DFE72DE9F04104460D4617469846069EFB
:103C400021E0701CF8B12EB1FDF7C2FEA0EB080018
:103C5000B04218D32068006820F4D0702168086052
:103C60002068806820F0010021688860202084F8A6
:103C7000690084F86A0000BF002084F8680000BF73
:103C80000320BDE8F0812068C0692840A84201D126
:103C9000012000E00020B842D3D00020F1E700006E
:103CA00010B50748FEF7DAFB0122054971310448D7
:103CB000FEF7A2FD0121024880F87D1410BD00002E
:103CC0005C18052010B50748FEF7C8FB012205491E
:103CD00071310448FEF790FD0121024880F87D14FF
:103CE00010BD0000E01C0520704710B503460C46CF
:103CF000194644F4807200BF4900520002F48070FB
:103D000000B1491C01F4803010B141F22100414062
:103D100002F480300028EFD088B210BD00BFFEE76B
:103D20002DE9F04FADF22C4D074600200090039096
:103D30008046019000BF002600200290BB4600BFD5
:103D40004FF4801204A909A8FEF7A2FF10B10128C0
:103D500071D18AE04FF000080498B0F1FF3F01D024
:103D600070B907E00620FFF787FA00200DF22C4D0E
:103D7000BDE8F08F0620FFF77FFA0120029072E085
:103D80009DF82500F1B2884203D01520FFF774FAA0
:103D900068E0002E58D10DF127000499FDF76EF967
:103DA0000FFA80F909A90498001D095C09AA049872
:103DB000C01C105C01EB00200FFA80FACA4506D047
:103DC0001520FFF759FA4320FFF756FA4BE09DF80C
:103DD000270088B300250DF1270405E014F8012B16
:103DE00028466D1C37490A54207808B1FF2DF5DDAF
:103DF000002228466D1C33490A540025641C05E046
:103E000014F8012B28466D1C05A90A542078202897
:103E100001D0102DF4DB002228466D1C05A90A54A0
:103E200005A8FCF7AEFA00900620FFF725FA43201C
:103E3000FFF722FA13E021E0FFE70620FFF71CFA64
:103E40000120029003900EE00DF127015846049ADC
:103E5000FCF74AFA049883440620FFF70DFA761C13
:103E60000120019000BF00BF1CE01820FFF704FAFA
:103E70001820FFF701FA6FF0020077E70198002899
:103E800001DD08F10108B8F1050F07DD1820FFF783
:103E9000F3F91820FFF7F0F9002067E74320FFF758
:103EA000EBF900BF00BF029800283FF449AF00BF04
:103EB00000BF039800283FF43EAF00BF00BF00984A
:103EC00054E70000E82505200FB4054B10B503A901
:103ED000044A029800F000FE10BC5DF814FB0000DC
:103EE000F5520008BC0402200FB4084B10B504A919
:103EF00002AA039800F0F0FD044602A9002001F098
:103F000082F9204610BC5DF814FB0000075200083F
:103F100003B401984100009850EAC12018BF042062
:103F20004A0D18BF40F0010040F2FF72B2EB515F42
:103F300008BF40F00200012808BF052002B070470A
:103F400000487047C80402202DE9F04D2DED040B08
:103F50002DED0A8B9AB0DDE92550279CDDF890A065
:103F600025F0004624F00048BAF1000F14BF0121EB
:103F7000002101EB4502F84953184A1093422AD315
:103F8000002814BF0123002303EB44030B44F3492F
:103F90008B4220D358EA00019FEDF19B72D0DFF8ED
:103FA000C8B35D4503D1BAF1000F05D184E0BAF181
:103FB000000F08BF002100D0012101EB450111F5E0
:103FC000001F08D8002814BF0121002101EB440183
:103FD00011F5001F0BD99DED261B9DED240B1AB08A
:103FE000BDEC0A8B04B0BDE8F04D00F071BC0027B9
:103FF000002DBCBFDD49884521DADD498845A8BFD1
:1040000002271CDAC3451ADCDA4901EB28511429CE
:1040100008DDC1F1340220FA02F101FA02F2824213
:104020000DD108E058B9C1F1140228FA02F101FAE1
:1040300002F2424503D101F00101C1F1020756EA43
:104040000A0120D1002C1EDA002D18BF022F01D04A
:10405000012F0AD0022000F077FC1AB0BDEC0A8BC9
:1040600004B0BDE8F04D00F023BC022000F06CFC71
:1040700000F01EFCB1EE400B1AB0BDEC0A8B04B090
:10408000BDE8F08D18E09FEDBCAB9FEDBD8B002827
:104090007DD1B64880451CD105F1804010F58010D7
:1040A00008BFBAF1000F07D0B34508DC002CA8BF49
:1040B0009DED260BE0DA07E0B0EE490BDCE7002CC3
:1040C000B8BF9DED260BD5DBAF48784490ED000BD3
:1040D000D2E7D84548D1002C43DA2EB186423AD1F6
:1040E000BAF1000F3DD126E0BAF1000F13D0022043
:1040F00000F02AFC00F0FCFB8DED020B9DED240B83
:104100008DED000B10EE900A039961F31E000390F1
:104110009DED020BB0E78DED02AB9DED240B1AEE89
:10412000901A10EE900A8DED000B61F31E000390C3
:104130009DED020BA0E78DED028B9DED240B18EE9B
:10414000901A10EE900A8DED000B61F31E000390A3
:104150009DED020B90E704DA9DED241B89EE010B27
:104160008AE79DED240B87E786421ADAB4F1804F87
:1041700004BF9DED240B20EE000B3FF47DAFA4F1B6
:104180000050B0F1FF500CD1002D0ADB00E008E038
:104190009DED240B51EC100B01F0ECFF41EC100BEA
:1041A0006AE79DED240B51EC100B01F097F8BAF182
:1041B000000FCDE90E0140D19FED750B46B3A6F17E
:1041C000E040B0F17F600ED05E4536D1002D00DAC0
:1041D00097B3022F0CBF01204FF0FF3000EE100A02
:1041E000B8EEC00B48E7002D01DD002C0DDA002DE4
:1041F00001DD002C1DDB002D14DA002C12DB012F59
:1042000008BF9FED650B3FF437AFB0EE4A0B33E7C5
:10421000022F18BF002D0CD0012F0AD1002DFFF660
:104220002BAF06E0002DB8BF002C06DA012F3FF4BB
:1042300023AFB0EE480B1FE719E0012000EBE5705B
:1042400050EA070113D0791EB0EE498B084308BF2E
:104250009FED538B5448002580457ADD53495448DF
:10426000884514DDB0420DDB002C19DB2CE0012069
:1042700000F06AFB1AB0BDEC0A8B04B0BDE8F04D4B
:1042800000F02ABBB34502DC002C09DC1CE08642AE
:1042900002DA002C18DA03E05E4528DD002C13DD7D
:1042A000022000F051FB00F023FB8DED020B28EE05
:1042B0000A0B8DED000B10EE900A039961F31E00BE
:1042C00003909DED020BD7E6022000F03DFB00F0CD
:1042D0001BFB10EE901A18EE900A8DED020B8DED7F
:1042E000008B61F31E0003909DED020BC4E69DED73
:1042F0000E0B9FED313B30EE490B8DED040B20EEA4
:10430000002B9DED041B9FED2E0B01EE430B9DED4D
:10431000043B9FED2D1B03EE401B9DED040B9FED19
:104320002E3B22EE012B9FED2A1B20EE011B20EEDF
:10433000030B9FED2B3B02EE430B31EE002B8DED7B
:10434000022B02959DED022B32EE411B30EE411BFC
:1043500021E149E000000000FFFF1F00FFFF0F0008
:10436000000000000000F03F0000F03F0000F07F80
:104370000000404301FCFFFF000000000000F07F50
:1043800000000000000000003238000000000000C3
:104390000000000000000080000000000000F0FFAE
:1043A000000000000000F0BF0000E0410000F0430A
:1043B000FFFFEF3F00000000000000000000D03FC2
:1043C000555555555555D53F000000000000E03FBC
:1043D000000000604715F73F44DF5DF80BAE543E28
:1043E000FE822B654715F73F0020B6F5801F0BDADC
:1043F0009DED0E0B9FEDEC1B6FF0340020EE010BDA
:1044000010EE906A8DED0E0BE94A00EB2650C6F3D4
:104410001301A0F2FF3741F07F6040F0405091421D
:10442000D8BF002408DDE34A8A42C8BF012403DC68
:104430000024A0F580107F1CDF49794401EBC40102
:104440000F9091ED001B9DED0E2B9DED0E0BDB49AA
:1044500031EE023B30EE410B89EE032B20EE02AB36
:104460008DED02AB7944029591ED003B4FF0005188
:1044700041EA600000EB84408DED043B00F5002034
:1044800005909DED043B9DED044B2AEE0ACB33EEE7
:10449000411B9DED0E3BCA48062133EE411B9DEDAD
:1044A000023B03EE440B03EE410B20EE02BBB0EEE9
:1044B0004C0B784400F0C4F92CEE0C1B20EE010BE1
:1044C0009DED021B31EE0A1B0BEE010B9DED021B55
:1044D00021EE011B9FEDBC2B31EE023B33EE003B86
:1044E0008DED043B04959DED043B33EE422B32EE03
:1044F000411B30EE412B9DED020B9DED041B20EE88
:10450000011B9DED040B2BEE000B02EE0A0B31EEAE
:10451000002B8DED022B02959DED022B32EE411BFF
:1045200030EE410B9DED021B9FEDA92B21EE021BEE
:104530009DED022B9FEDA83B22EE032B9FEDA83BA8
:10454000A94800EE032B784400EBC40090ED000B6B
:10455000A64832EE000B02EE107AB8EEC22B8DEDBB
:10456000042B31EE003B784400EBC4009DED044B7E
:1045700090ED002B33EE023B33EE043B8DED023B1E
:1045800002959DED023B33EE443B33EE422B32EE7F
:10459000411B30EE411B9DED260B954A8DED000B26
:1045A00000959DED260B9DED002B30EE420B9DED11
:1045B000022B20EE020B9DED262B02EE010B9DED52
:1045C000001B9DED022B21EE021B8DED021B30EE38
:1045D000011B11EE900A11EE101A8DED001B904296
:1045E00024DB821A11430ED19FED831B9DED002B1E
:1045F0009DED023B30EE011B32EE432BB4EEC21BAD
:10460000F1EE10FA26DD022000F09EF900F070F9BC
:1046100010EE901A18EE900A8DED020B8DED008BC6
:1046200061F31E0003909DED020B25E5744B20F015
:1046300000429A420ED3734A024411437FF444AEBF
:104640009DED022B31EE421BB4EEC01BF1EE10FAD1
:10465000BFF63AAE20F000416B4A6C4B002402EBEF
:1046600021529942D8BF9DED021B27DD511C4FF40A
:10467000801222FA01F10144654BC1F30A527B44D6
:10468000A2F2FF3293ED001B624B8DED041BD34071
:1046900021EA0303C1F3130141F48011C2F11402B2
:1046A00021FA02F405930028B8BF64429DED021B75
:1046B0009DED042B31EE421B8DED021B30EE011BF4
:1046C0008DED041B04959DED041B9FED532B9DED7B
:1046D000023B21EE021B9DED042B32EE432B30EE0C
:1046E000420B9FED4F2B20EE020B9DED042B9FED17
:1046F0004E3B4F48052102EE030B31EE002B8DEDB2
:10470000002B32EE411B30EE41AB9DED000B20EE55
:10471000000B8DED040B784400F092F89DED001B2A
:104720009DED042B02EE401B8DED021B9DED000B59
:1047300020EE010B9FED402B31EE422B80EE021B51
:104740009DED002BB0EE4A0B02EE0A0B31EE400B52
:104750009DED001B30EE410B39EE400B10EE900A40
:104760008DED000B00EB045001150029C8BF01902E
:1047700013DC224651EC100BFCF717F8FFF7C8FBCF
:10478000042808BF00F0C0F822469DED000B51EC54
:10479000100BFCF70AF8CDE900019DED000B28EEA7
:1047A000000B69E40000000000000000000040432E
:1047B0008E9803007AB60B003A340000983400005B
:1047C000F23300000000000000000000000008407C
:1047D000000000E009C7EE3FF5015B14E02F3EBE8C
:1047E000FD033ADC09C7EE3F4E3300001E330000E4
:1047F0000000904000000000FE822B654715973CAA
:1048000000CC904000346F3F01FCFFFF0000E03F10
:104810007E320000FFFF0F0000000000432EE63F45
:10482000EF39FAFE422EE63F396CA80C615C20BEDF
:10483000BE31000000000000000000000000004049
:10484000491E00EBC102B0EE401B92ED000B31F0AF
:1048500006020DD0491E00EBC102B0EE403B92EDC6
:10486000002B31F00602B0EE420B03EE010BF1D14A
:10487000022914D004290AD0062918BF704790EDE8
:104880000A2B00EE012B90ED080B02EE010B90EDD0
:10489000062B00EE012B90ED040B02EE010B90EDC8
:1048A000022B00EE012B90ED000B02EE010B704786
:1048B0009FED031B9FED042B81EE020B7047000060
:1048C000000000000000F03F0000000000000000B9
:1048D00030EE010B704700009FED031B81EE010BD2
:1048E0007047000000000000000000000000000011
:1048F0009FED030B20EE000B70470000000000004E
:1049000000000000000000709FED030B20EE000B84
:1049100070470000000000000000000000000010D0
:1049200002E008C8121F08C1002AFAD17047704778
:10493000002001E001C1121F002AFBD1704700F0E6
:10494000010181F313887047014908607047000036
:10495000C80402202DE9FF5F82B00021DDE90430A8
:10496000020DDDF840B0034318D044F61050A2F217
:10497000FF3242431514119801281FD0A5EB0B00FC
:10498000401C5FEA000A4FF000064E4FDFF83891F6
:10499000B046504615D5CAF1000413E01198012421
:1049A0004AA3012801D16FEA0B010298119AC0E9CC
:1049B0000031C0E9024206B0BDE8F09FCBF1000033
:1049C000DFE704460021404A491842EB0450CDE994
:1049D000001012E0E00707D032463B464046494609
:1049E000FBF702FE8046894632463B461046194692
:1049F000FBF7FAFD06460F466410002CEAD1DDE90C
:104A00000401DDE90023BAF1000F06DAFBF7ECFD43
:104A100042464B46FBF7E8FD05E0FBF757FE4246F2
:104A20004B46FBF753FE04460E460022284BFBF78D
:104A3000EBFE03D84FF0FF30014607E00022254B84
:104A400020463146FBF729FDFBF7C6FE102409E09E
:104A5000002C0ADB0A220023FBF7B6FC039B303252
:104A60001A55641E50EA0102F2D1641C039AC4F183
:104A700011031444119A012A03D0012208430DD1D5
:104A80000AE0084304D000204FF0110B119072E7A8
:104A9000A3EB0B056D1E0DE05B4504DD4FF000023E
:104AA00005F1010504E003DA4FF00002A5F101056C
:104AB000002AECD002981199C0E90231C0E9004502
:104AC00079E70000000014400000F03F30000000D3
:104AD0000000F0430000E03F2DE9FF4F95B09B46FA
:104AE0008946064600250FE2252877D1002427466F
:104AF000F84A0121059400E0044316F8013F203BE9
:104B000001FA03F01042F7D130782A2811D06FF063
:104B10002F033078A0F13002092A16D8059A44F004
:104B2000020402EB820203EB42021044761C059061
:104B3000EFE759F8042B0592002A03DA504244F4B7
:104B40000054059044F00204761C30782E2816D1CB
:104B500016F8010F44F004042A280DD06FF02F023C
:104B60003078A0F13003092B09D807EB870302EB5B
:104B70004303C718761CF3E759F8047B761C30789A
:104B80006C280FD006DC4C2817D068280DD06A2876
:104B900014D104E0742810D07A280FD10DE044F429
:104BA00000140AE044F4801401E044F440147278E4
:104BB000824202D104F58014761C761C3078662877
:104BC0000BD013DC582877D009DC002875D0452895
:104BD000F6D04628F4D047281AD19DE118E0632882
:104BE00035D0642879D0652812D195E1702873D02A
:104BF00008DC6728F1D069286FD06E280DD06F28A7
:104C000006D1B5E073282CD0752875D0782874D0DB
:104C10005A46179990476D1C75E1C4F3025002285B
:104C200009D003280DD0D9F8001004280DD00D604C
:104C300009F1040967E1D9F80010EA17C1E9005247
:104C4000F6E7D9F800100D80F2E70D70F0E719F8DB
:104C5000041B8DF8001000208DF80100EA460120A9
:104C600003E059F804AB4FF0FF3061074FF000014B
:104C700002D40DE008F101018846B9420FDA8045FF
:104C8000F8DB1AF808100029F4D108E008F1010156
:104C900088468142FADB1AF808100029F6D10598F7
:104CA0005B46A0EB080721463846179A00F094FAB5
:104CB000284400EB080507E04DE029E10DE01AF873
:104CC000010B5A4617999047B8F10108F7D25B4695
:104CD00021463846179A13E142E00A220092C4F3B3
:104CE00002524FF0000A022A08D059F804CB032AD6
:104CF0004FEAEC710AD00DE029E02AE009F1070142
:104D000021F00702F2E802C1914609E00FFA8CFC9B
:104D10004FEAEC71042A03D14FFA8CFC4FEAEC7194
:104D2000002907DA0A460021DCF1000C61EB0201E0
:104D30002D2202E0220504D52B228DF80420012229
:104D400003E0E20701D02022F7E7904659E00A216C
:104D500002E010220DE010214FF0000A00910BE05C
:104D600010224FF0000A44F004040827009203E0E8
:104D700008224FF0000A0092C4F30252022A05D022
:104D800059F804CB0021032A08D009E009F10701F2
:104D900021F00702F2E802C1914605E01FFA8CFCFF
:104DA000042A01D10CF0FF0C4FF00008220728D58F
:104DB000702806D0009B83F0100353EA0A0305D045
:104DC0000EE040228DF80420012208E05CEA010296
:104DD00006D030228DF804208DF80500022290467E
:104DE000009B83F0080353EA0A030AD15CEA01023C
:104DF00001D1620705D530228DF804204FF001085B
:104E00007F1E582804D034A003900EA802900DE015
:104E100036A0F9E753466046009AFBF7D5FA844678
:104E20000398825C0298401E029002705CEA0100C6
:104E3000F0D1029806A9081A00F1200A600702D5ED
:104E400024F4803400E00127574502DDA7EB0A0077
:104E500000E0002000EB0A01009005984144401A50
:104E60000590E00306D45B462146179A059800F0AA
:104E7000B3F90544002706E001A85A46C05D17991A
:104E800090476D1C7F1C4745F6DBE0030CD55B4665
:104E90002146179A059800F09FF9054404E0302058
:104EA0005A46179990476D1C0099481E009000299A
:104EB000F5DC08E0029802995A460078491C0291F4
:104EC000179990476D1CBAF10001AAF1010AF1DCB3
:104ED00065E10000092801003031323334353637BE
:104EE0003839616263646566000000003031323336
:104EF00034353637383941424344454600000000D6
:104F000000F058F90544761C307800287FF4ECADA9
:104F100019B02846BDE8F08F620700D4062709F1D2
:104F2000070222F0070CFCE80223E14603F00048E8
:104F30005FEA080C02D00FF2702C0DE05FEA045C0F
:104F400002D50FF2682C07E05FEAC47C02D00FF2B2
:104F5000602C01E0AFF2700C4FF0FF3823F00043FB
:104F6000CDF850C065280CD006DC452809D046286D
:104F70001DD047283DD13DE0662818D067287ED156
:104F800038E00021112F01DB112000E0781CCDE971
:104F9000000106A90EA8FFF7DDFCDDE90F010E9A5E
:104FA00003910021009207F1010A04914DE04FF0B6
:104FB00000400097CDE9011006A90EA8FFF7CAFC32
:104FC000DDE90F0203920E9B11990022DDF80CA07F
:104FD0000093049211B9791C00EB010AB7EB0A00A7
:104FE00004D4C0F1FF3007F1010A0490AAEB0700D6
:104FF000019044E0012F00DA01270021112F01DD8B
:10500000112000E03846CDE9000106A90EA8FFF7FF
:10501000A1FCDDE90F010E9A039100210491009299
:10502000BA4621070CD40399514500DA8A46BAF1F1
:10503000010F05DD009AAAF10101515C302908D069
:10504000B84202DA10F1040F06DA0121CDE90110AD
:1050500015E0AAF10101E9E7002805DC0499014403
:105060000491AAEB000102E0411C514500DD8A4693
:105070000499401A401C01904FF000400290200714
:1050800004D40198504501DBCDF8048000208DF850
:105090004F0002980DF14F07B0F1004F25D02B20A3
:1050A0000E9002984FF0020800280CDA404202905D
:1050B0002D200E9007E00A210298FBF76FF930319E
:1050C000029007F8011DB8F10001A8F10108F2DC17
:1050D00002980028EFD1791E0E980870307800F001
:1050E000200040F0450007F8020D12A8C01B00F197
:1050F00007081498007800B1012000EB0A0101981C
:1051000001EBE07105984144401A401E0590E00310
:1051100006D45B462146179A059800F05DF80544D1
:105120001498007818B15A46179990476D1CE003FF
:1051300024D55B462146179A059800F04DF80544A2
:105140001CE00498002807DBDDE90301884203DD49
:105150000098405C179901E0179930205A46904713
:10516000049805F10105401C04900198401E01902F
:1051700004D12E205A46179990476D1CBAF10001B0
:10518000AAF1010ADDDC05E017F8010B5A46179970
:1051900090476D1CB8F10001A8F10108F4DC5B46F2
:1051A0002146179A0598ABE62D0000002B00000061
:1051B000200000002DE9F041044600251E46174658
:1051C000880404D405E039462020B0476D1C641ED5
:1051D000F9D52846BDE8F0812DE9F04104460025C7
:1051E0001E469046C80301D5302700E020278804DA
:1051F00004D505E041463846B0476D1C641EF9D51C
:105200002846BDE8F0810A68531C0B601070704797
:1052100070B504460420FDF7F1F80C4804602546FB
:105220004FF47A7045430120094908804FF0E0208F
:10523000006940F002004FF0E02108610846456136
:10524000006940F00100086170BD000010040220F8
:105250001404022070B5044602F040F8012810D072
:105260000B480088844206D309480088B4FBF0F557
:10527000284601F0B7F906480088B4FBF0F100FBBE
:1052800011444FF47A7104FB01F000F003F870BD93
:105290001404022070B5034600224FF0E026756921
:1052A0000D4E366803FB06F44FF0E026B16910E0BE
:1052B0004FF0E026B06988420BD0884202D20E1A25
:1052C000324402E02E1A0E4432440146A24200D378
:1052D00000E0EDE700BF70BD1004022082B0CDE910
:1052E000000121F0004001909DED000B02B051EC57
:1052F000100B704738B504468DF80000694603204E
:10530000ABBE204638BD000010B5002821D0114B9F
:105310000022001F196803E0814203D80A46496849
:105320000029F9D152B11368841A9C4204D1006853
:1053300018441060104602E0506000E0186039B177
:1053400002680B1A934203D10B681A440260496841
:10535000416010BDC00402201CB54FF000601E4922
:105360000860002080F3138800BF0320FCF71CFCBA
:10537000FDF71CFCFBF746FEFCF738FB0923022275
:1053800019214FF4D870FDF785FFD820FFF740FFB3
:10539000FBF772FB01211148FDF774FBFDF7DEFFFF
:1053A000FDF746FD0E480FA10A68026009790171F8
:1053B000FDF74CFEFBF788FE0C48052100234FF457
:1053C0008062CDE900100AA10C4801F057FF01F0FE
:1053D000A5FA00201CBD000008ED00E00000020856
:1053E0005A2B052061626364650000000000022002
:1053F00073746172745F7461736B0000E161000823
:10540000F0B50B30154D20F007010024144A0FE0D1
:1054100003688B420BD38B4205D95E1A4318476849
:10542000C3E9006700E04368136002C004E0021DA6
:1054300010680028ECD12046002802D1286808B165
:105440000020F0BD064A07481060074A121A22F0F1
:105450000702C0E9002401202860D7E7C404022025
:10546000C00402208C2B052088AB05202DE9F041DB
:1054700006460F46154634460F48854202D130464F
:10548000BDE8F0810D48854213D10EE020780CA1D3
:105490000978884208D1132209A12046FAF75BFF58
:1054A00010B904F11300EBE7641C381EA7F10107E3
:1054B000ECD10020E4E700000000040800000A0826
:1054C00023415050205345504152415445204C49AE
:1054D0004E452300704700002DE9F04105460E4679
:1054E0001C4807681C480068001D00F0BAFE50B94F
:1054F0001948006890F82C10012088401749096865
:10550000814316480160681C38B936B112480168F9
:10551000091D134800F0E3FE1AE07C190E480068EC
:105520004460BC4207D20C480168091D0D48006860
:1055300000F0BBFE0CE008480168091D0A4800683D
:1055400000F0B3FE09480068844201D207480460B5
:10555000BDE8F0812C04022018040220300402204F
:10556000F85F0420200402201C04022048040220CA
:1055700010B5044600F0C0FE24480068401C2349D2
:1055800008602348006840B9214804600846006864
:1055900001280DD100F0EEF90AE01E48006838B984
:1055A0001B480068C06AE16A884201D81848046054
:1055B00019480068401C1849086008460068606483
:1055C00094F82C10012088401449096808431349B5
:1055D0000860E16A01EB8101114A02EB8100211DA3
:1055E00000F07DFE00F0CEFE0A48006868B1084871
:1055F0000068C06AE16A884207D24FF080500949CA
:105600000860BFF34F8FBFF36F8F10BD28040220D7
:105610001804022034040220440402203004022032
:10562000285D042004ED00E010B500F065FE104890
:105630000068D0B90F4800F028FE0F4800F025FEA2
:105640000C480E4908600C480D49086000221021E2
:10565000052001F0E1FA064908600846006820B11B
:1056600008A10348006800F081FF00F08BFE10BD28
:105670005C0402200C6004202060042054040220FA
:1056800058040220546D72510000000070B523E0F0
:1056900001F09CF91348006808B9012000E00020DF
:1056A000054601F0A7FFBDB900F026FE0D48C06811
:1056B000C468201D00F0D5FD0B480068401E0A4953
:1056C00008600A480068401E0849086000F05AFE59
:1056D000204600F060F800BF044800680028D7D1D9
:1056E00070BD0000E45F042028040220240402208E
:1056F00070B504460D46206C70B1216CE06808441A
:10570000E0606168E068884201D32068E060284674
:10571000226CE168FAF7E8FD70BD2DE9F04104461E
:105720000F4615464FF00008A66B206C40B9206864
:1057300060BB606801F098FE80460020606025E054
:105740007DB93946226CA068FAF7CEFD216CA068BD
:105750000844A060D4E90110884217D32068A060F3
:1057600014E03946226CE068FAF7BEFD216CE0686F
:10577000401AE0602168E068884203D2216C6068CA
:10578000401AE060022D01D106B1761E701CA063A4
:105790004046BDE8F08110B50446206B00F02AFEBB
:1057A000204600F027FE10BD0146084A1268126824
:1057B0000AB9012200E000220A600A6822B9034AFD
:1057C0001268D268106800E000207047540402207C
:1057D00030B54FF43843174800F007042CB1C01D12
:1057E00020F00700134C041B1B1B0246124C2260C6
:1057F0000024114D6C60D018083820F007000F4CC1
:10580000206000240D4D2D686C600C4D2D682C60BF
:105810001146441A4C60094C24680C60084D4C68D1
:105820002C60084D4C682C604FF00044064D2C60F5
:1058300030BD000034600420740402207C04022087
:1058400084040220800402208804022000BFFFF7A5
:105850001DFF064800680128F9D94FF0805004491F
:105860000860BFF34F8FBFF36F8FF0E7285D042010
:1058700004ED00E02DE9F04106460D461746984636
:10588000069C0DB9246000E02760E66325640121D1
:10589000204601F0DFFA84F850800020A064BDE8C3
:1058A000F08100002DE9F05F82460F4690469B464E
:1058B0000A9E0C9C4FEA8801A522206BFAF726FD70
:1058C000A8F10100216B01EB800929F0070909F01B
:1058D000070008B9012000E0002028B940F22B326F
:1058E0001BA120A0FEF7F0FA002507E0795D04F186
:1058F00034004155785D00B902E06D1C102DF5D3E0
:1059000000BF002143200155202E00D31F26E66250
:10591000E66400202065201D00F0C4FC04F118009E
:1059200000F0C0FC2461C6F12000A0616462002088
:10593000606584F858005A465146484600F004FC19
:1059400020600B9808B10B980460BDE8F09F000040
:105950002E2E5C4672656552544F535C7461736BB6
:10596000732E63004572726F723A25732C25640D95
:105970000A00000010B5002407E004EB84010F4A80
:1059800002EB810000F081FC641C202CF5D30C4854
:1059900000F07BFC0B4800F078FC0B4800F075FC35
:1059A0000A4800F072FC0A4800F06FFC04480949FC
:1059B000086004480849086010BD0000285D042004
:1059C000A85F0420BC5F0420D05F0420E45F0420B3
:1059D000F85F04201C0402202004022010B50146B8
:1059E000164800E0006803688B42FBD30246436818
:1059F00013448B4204D143684C68234443600146FE
:105A00000A464B6813440468A34211D10C4C036846
:105A10002468A34208D04B680468646823444B6040
:105A200003681B680B6005E0054B1B680B6001E019
:105A300003680B60884200D0016010BD740402202E
:105A40007C0402202DE9F04104460D4616461F460F
:105A50004FF0000865602461B5420CD8F01BA169C5
:105A6000884202D34FF0010811E0211D0948006867
:105A700000F01BFC0BE0BE4204D2BD4202D34FF04B
:105A8000010804E0211D0448006800F00EFC4046B7
:105A9000BDE8F081580402205404022070B5054688
:105AA00000F02AFCA86B08B9012400E0002400F0F3
:105AB00069FC204670BD70B5054600F01DFCA86B62
:105AC000E96B884201D1012400E0002400F05AFC77
:105AD000204670BD2DE9F3410D460098846C0027E7
