:020000040800F2
:10000000A04B0420C50200083F3E0008793B0008D1
:100010003B3E00083D120008855500080000000026
:100020000000000000000000000000000D020008B9
:10003000891400080000000061020008494A000815
:10004000DF020008DF020008DF020008DF0200080C
:1000500039150008DF020008DF020008DF0200088F
:10006000DF020008DF020008DF020008DF020008EC
:10007000DF020008DF020008DF020008DF020008DC
:10008000DF020008DF020008DF020008DF020008CC
:10009000DF020008DF020008DF020008DF020008BC
:1000A000DF020008DF020008DF020008DF020008AC
:1000B000DF020008DF020008DF020008DF0200089C
:1000C000DF020008DF020008DF020008DF0200088C
:1000D000DF0200082D54000851540008DF02000818
:1000E000DF020008DF020008DF020008DF0200086C
:1000F000DF020008DF020008DF020008DF0200085C
:10010000DF020008DF020008DF020008DF0200084B
:10011000DF0200081D4C0008DF020008DF020008B3
:10012000DF020008DF020008DF020008DF0200082B
:10013000DF020008DF020008DF020008DF0200081B
:10014000DF020008DF020008DF020008DF0200080B
:10015000DF020008DF020008DF020008DF020008FB
:10016000DF020008DF020008DF020008DF020008EB
:10017000DF020008DF020008DF02000800000000C4
:10018000DF020008DF020008DF020008DF020008CB
:10019000DF020008DF020008DF020008DF020008BB
:1001A000DF020008DF020008DF020008DF020008AB
:1001B000DF020008DF020008DF020008DF0200089B
:1001C000DF020008DF020008DF020008DF0200088B
:1001D000DF020008DF020008DF020008DF0200087B
:1001E000DF020008DF020008DF020008DF0200086B
:1001F000DF020008DF020008DFF80CD000F010FB7F
:1002000000480047E96D0008A04B04202A4B1968FC
:100210000868B0E8F04F80F30988BFF36F8F4FF0A4
:10022000000080F311887047000000000648006855
:10023000006880F3088862B661B6BFF34F8FBFF3E2
:100240006F8F00DF00BF00BF08ED00E0DFF80C009B
:10025000016841F470010160704700BF88ED00E063
:10026000EFF30980BFF36F8F134B1A681EF0100F66
:1002700008BF20ED108A20E9F04F106008B44FF05D
:10028000500080F31188BFF34F8FBFF36F8F08F0DA
:10029000FBF84FF0000080F3118808BC196808686B
:1002A000B0E8F04F1EF0100F08BFB0EC108A80F3DA
:1002B0000988BFF36F8F704718000020EFF30580A7
:1002C000704700000648804706480047FEE7FEE703
:1002D000FEE7FEE7FEE7FEE7FEE7FEE7FEE7FEE7F6
:1002E000314B0008F901000840EA01039B0703D0E5
:1002F00009E008C9121F08C0042AFAD203E011F865
:10030000013B00F8013B521EF9D27047D2B201E026
:1003100000F8012B491EFBD270470022F6E710B50A
:1003200013460A4604461946FFF7F0FF204610BD63
:10033000421C10F8011B0029FBD1801A704730B510
:1003400004460020034600E05B1C934203D2E05CBD
:10035000CD5C401BF8D030BD034611F8012B00F8EE
:10036000012B002AF9D11846704770B5064605F0F2
:1003700005FB046805460A220021304600F049F8D2
:100380002C6070BD30B50B460146002020220124B0
:1003900009E021FA02F59D4205D303FA02F5491B53
:1003A00004FA02F52844151EA2F10102F1DC30BD69
:1003B0002DE9F05F0546002092469B46884606469A
:1003C000814640241BE0284641464746224600F02D
:1003D00048FA53465A46C01A914110D3114618465E
:1003E000224600F02FFA2D1A67EB01084F462246ED
:1003F0000120002100F026FA17EB00094E41201ED3
:10040000A4F10104DFDC484631462A464346BDE8F4
:10041000F09F2DE9F04791460F468046044600269E
:1004200014F8015B2DB100F03FFA0068405DC00791
:10043000F6D12B2D02D02D2D18D0641E4A463946F8
:10044000204600F035FA27B13968A14201D1C7F83A
:10045000008071054FF002040BD54042002803DDF7
:1004600005F08CFA0460A007BDE8F08746F48066CA
:10047000E4E70028F8DA05F081FA04606FF0004044
:10048000F2E72DE9FE4F804681EA0300C00F0C46DB
:10049000009021F0004123F00045B8EB0200A94193
:1004A00005D24046214690461C460B46024623F0A4
:1004B0000040104347D0270DC7F30A00C3F30A5189
:1004C0000290401A019040286BDAC3F3130040F405
:1004D000801B0098924620B10023D2EB030A63EB05
:1004E0000B0B01985946C0F14002504600F0AAF9A2
:1004F00006460D4650465946019A00F0C2F910EBE7
:1005000008006141002487EA115284EAE7731A4324
:1005100040D0009A62B3019A012A4FEA075215DCD3
:10052000001B61EB02014FF0004202EA0752CDE9E5
:100530000042001C41F5801132462B4600F016FAAD
:1005400003B0BDE8F08F40462146F9E7001B61EBA0
:100550000201001C41F5801300185B412018A2F530
:10056000001747EB030140EAD570B6196D4111E061
:100570006D084FEA360645EAC0754FEA0752001B80
:1005800061EB0201001C41F5801149084FEA30007F
:100590000019514132462B4603B0BDE8F04F00F040
:1005A000D6B90098012240000023D0EB020263EB91
:1005B000E073009821464FEAE074B8EB000061EB6D
:1005C0000401E9E783F000435BE781F0004158E76D
:1005D0002DE9FE4F81EA030404F0004421F00041BC
:1005E00000944FF0000B23F0004350EA01045ED06A
:1005F00052EA03045BD0C3F30A54C1F30A552C44F6
:10060000A4F2F3340194A0FB0254C1F3130141F4AA
:100610008011C3F3130343F4801301FB024400FB76
:10062000034E840A970A44EA815447EA8357A4FB9D
:10063000076802958D0A05FB07854FEA932C04FB9A
:100640000C542705029D4FEA065847EA1637B5EBCA
:1006500008056EEB070C870E920E47EA811742EAF7
:100660008312A7FB0201B6EB0B0164EB00042B0D18
:1006700043EA0C335E1844EB1C50DA465146E7FB64
:100680000201C5F313044FEA0B3343EA14534FEA54
:100690000432019C43EA0603A4F10C040294009C7A
:1006A000CDE900B400F062F903B0BDE8F08F00209E
:1006B0000146F9E72DE9F04D81EA030404F0004B0F
:1006C00021F0004514464FF0000A23F0004150EAA3
:1006D000050220D054EA01021DD0C5F30A57024694
:1006E000C5F31303C1F31300C1F30A5640F4801598
:1006F00043F48013A7EB0608101BD64608F2FD381A
:1007000073EB050002D308F1010801E092185B4188
:10071000B8F1000F03DA00200146BDE8F08D00209B
:100720004FF48011064684460EE0171B73EB050755
:1007300005D3121B63EB050306434CEA010C490881
:100740004FEA300092185B4150EA0107EDD152EABE
:10075000030012D082EA040083EA0501084305D0B1
:10076000101BAB4106D20122002306E000224FF00D
:10077000004302E06FF0010253101AEB06004CEB4D
:10078000085110EB0A0041EB0B01BDE8F04D00F001
:10079000DEB870B521F0004303430CD0C1F30A5515
:1007A0000024D5EB040564EB0403D617AD1AB3415E
:1007B00002DB0020014670BD201841EB025170BDE4
:1007C000C1F30A52C1F3130140F2FF3341F4801127
:1007D0009A4202DA00200146704740F233439A42BF
:1007E000A2F2334202DC524200F03BB800F02AB8D9
:1007F00030B5041E71F1000404DB4FF000444042A8
:1008000064EB0101141E73F1000405DB1C464FF07C
:100810000043524263EB0403994208BF904230BD4B
:10082000064C074D06E0E06840F0010394E807003D
:1008300098471034AC42F6D3FFF7E2FC009700086B
:1008400020970008202A04DB203A00FA02F1002059
:1008500070479140C2F1200320FA03F319439040FE
:100860007047202A04DB203A21FA02F00021704769
:1008700021FA02F3D040C2F1200291400843194608
:100880007047202A06DBCB17203A41FA02F043EAF0
:10089000E07306E041FA02F3D040C2F12002914039
:1008A000084319467047000000487047A4960008A6
:1008B0002DE9F05F82460078002715468B460AF145
:1008C0000104B946302801D09DB113E014F8010BA2
:1008D0000127782803D0582801D045B10AE00DB18E
:1008E000102D07D10027102514F8010B02E0082570
:1008F00000E00A250026B0460EE005FB080005FBD7
:1009000006F1012701EB10461FFA80F8B6F5803F8B
:1009100000D3B94614F8010B294600F075F80028F9
:10092000EBDABBF1000F05D00FB1641E00E05446B6
:10093000CBF80040B9F1000F06D005F01FF80221F6
:100940000160C81EBDE8F09F48EA0640FAE710B50E
:10095000141E73F1000408DA401C41F100019218E2
:100960005B411A4301D120F0010010BD2DE9F04D8B
:1009700092469B4611B1B1FA81F202E0B0FA80F2E0
:1009800020329046FFF75EFF04460F4640EA0A0019
:1009900041EA0B0153465A46084313D0114653EA25
:1009A000010019D0C8F140025046FFF75AFF054632
:1009B0000E46504659464246FFF744FF084305D0CD
:1009C000012004E020463946BDE8F08D00200543B3
:1009D00046EAE0762C4337430A986305E40AA0EB25
:1009E00008000022FD0A44EA47540A3002D50020DC
:1009F0000146E9E7010510196941DDE908450019DB
:100A00006941BDE8F04DA2E73A2800D2303820F025
:100A10002002412A01D3A2F13700884201D34FF0CE
:100A2000FF30704770B58D1810F8014B14F00302B9
:100A300001D110F8012B231106D110F8013B03E07E
:100A400010F8016B01F8016B521EF9D1ABB110F82F
:100A5000012B04F00C048A1A0C2C03D0A2EB841294
:100A60009B1C08E010F8014BA2EB0422F8E712F8F7
:100A7000014B01F8014B5B1EF9D5A942D4D30020EC
:100A800070BD00002DE9F041064600242A48D0F848
:100A9000A8500746D0F8A8003946C1F8A4004FF482
:100AA0004021284603F072F801F0C6FE00BF09E0BD
:100AB00016F804C0624600232946184601F06AFE73
:100AC0006D1C641C1C48D0F8AC00A042F0D81A4839
:100AD000D0F8A820D0F8AC10304600F093FC0128E4
:100AE00001D100BFFEE700241348D0F8A80000F5AC
:100AF0004020A0F5806509E017F804C06246002395
:100B00002946184601F046FE6D1C641CA82CF3D340
:100B10000948D0F8A80000F54020A0F58062A8217F
:100B2000384600F06FFC012801D100BFFEE701F05C
:100B300005FE0020BDE8F081A83E032010B59AB064
:100B400001244FF0204008901C4809900420019097
:100B500003200290082003900120049005200590B6
:100B600002200690002007900A9000210B91082196
:100B70000C9110210D9100210E910F9110912103E4
:100B800011914900129100211391E1031491002168
:100B9000159121051691002108A800F011F801AA6D
:100BA00001A908A802F04CF800B100E00024284692
:100BB00002F0E4FF20461AB010BD0000040100A0BE
:100BC00030B587B004460D4600BF3F48006840F08E
:100BD00001003D4908600846006800F001000190EE
:100BE00000BF00BF00BF38480838006840F0080068
:100BF0003549083908600846006800F0080001908F
:100C000000BF00BF00BF0846006840F00400086055
:100C10000846006800F00400019000BF00BF00BF5C
:100C20000846006840F0100008600846006800F0C0
:100C30001000019000BF00BF00BF0846006840F0F0
:100C4000200008600846006800F02000019000BF06
:100C500000BF00BF0846006840F04000086008463A
:100C6000006800F04000019000BF00BF0220039028
:100C7000012004900320059009200690C0200290D6
:100C800002A9124801F0EEFD0C2006904FF63370D9
:100C9000029002A90E4801F0E5FD4FF6FC700290AB
:100CA00002A90C4801F0DEFD4FF23F00029002A9BC
:100CB000094801F0D7FD3F20029002A9074801F042
:100CC000D1FD07B030BD00003838024000080240B6
:100CD000000C0240001002400014024000180240C4
:100CE00070B504460D460026E07818490870A078D3
:100CF000617800EB0120401E14494880A81E215C49
:100D0000E81E205C01EB00201049888008464088DE
:100D1000401C81B2E01C06F0DFFF06460B488088CD
:100D2000B04200D000BF09484088B0F5806F0BDAB0
:100D30004FF480610548801DFFF7EFFA03484288B1
:100D4000211D801DFFF7D0FA70BD0000A23A0320DC
:100D500070B5044600258F211B48FFF7DEFA1B34CF
:100D600000BF05E014F8010B17494855681CC5B2CF
:100D700020782228F6D11134002506E014F8011B52
:100D8000114864304155681CC5B220782228F5D13D
:100D90001134002506E014F8011B0B486E30415554
:100DA000681CC5B220782228F5D10E34002506E053
:100DB00014F8011B044878304155681CC5B22078EE
:100DC0002228F5D170BD0000A83E03201FB50020E9
:100DD00000900190029003900A488178801D03F0F2
:100DE000B7FD094A09A1684604F08AFD6846FFF785
:100DF0009FFA04462146684610F002FD002004B028
:100E000010BD0000A23A0320303F032046257300A6
:100E100010B5ADF5816D4FF4806102A8FFF77DFA42
:100E20004FF4806102A8FFF778FA0E48A0F10A019A
:100E3000A0F11403A0F17802CDE900100A4902A83C
:100E400004F05EFD02A8FFF773FA0446214602A8EB
:100E500010F0D6FC02200349783981F8B0000DF576
:100E6000816D10BD203F0320A896000810B54FF4F7
:100E7000964000F0EBF800F0C3F9FF2014498871A8
:100E8000002008711021134801F0F8FDC8B112E0EC
:100E900005F0F4FE10210F4801F0F0FD58B9C8200C
:100EA00005F020FF10210B4801F0E8FD18B90220E1
:100EB0000749087100E0EBE700BF07A003F06AFEF6
:100EC00005E002200249087108A003F063FE10BD8E
:100ED000C400002000280240626C65206E6F206311
:100EE0006F6E6E656374696E670D0A00626C6520D3
:100EF000616C726561647920636F6E6E65637465A1
:100F0000640D0A001CB541A00068019040A0006873
:100F10000090FFF7ABFF3FA003F03CFE75E005F04B
:100F2000ADFE404890F8B00001280DD100203D49A9
:100F300081F8B00003F0EAFB02203A4981F8B000E2
:100F40000221684610F05CFC1021374801F096FD44
:100F500018B10020354908710AE0C82005F0C2FE2A
:100F60001021314801F08AFD10B902202F49087183
:100F70002F4890F87C08012847D12EA003F00AFEE4
:100F80002B48D0F874187230FFF7AAFE00202849C9
:100F900081F87C082C4800784A2830D004DC4628A8
:100FA00010D0472830D10AE0532812D055282BD131
:100FB0002548801DFFF7CCFE00F066F824E0FFF71F
:100FC00027FF21E0FFF702FFED20164981F8B0006E
:100FD0001AE0144890F8B000ED280FD10020114914
:100FE00081F8B00003F092FB00F01EFDEF200D49E8
:100FF00081F8B000022101A810F002FC04E00120F9
:10100000084981F8B00000BF00BF88E75301000025
:101010004A010000626C6520696E6974206F6B0D77
:101020000A000000A83E032000280240C40000205F
:10103000182D0320626C6520676F7420636F6D6DDF
:10104000616E640D0A000000A23A032010B5044648
:101050000B480C4908600846446000218160C1606B
:1010600001610C21416102F029FB01220549713126
:10107000044802F043FC0020024981F8700010BDD2
:1010800000500040182D032038B545A0006800909E
:10109000002400250320434981F8B0000021424884
:1010A00080F87D180221684610F0AAFBC82005F0E0
:1010B00019FE00BF02203C4981F8700000BF0021EA
:1010C000394880F87D1800203849887700BF3848B3
:1010D00004F0EEFA3349C1F8AC000846D0F8AC0091
:1010E0000028F4D000BF00202F4981F8700000BF15
:1010F0002C48D0F8A8002F49884202D14FF0016057
:1011000000E02C482749C1F8A8000846D0F8A820DC
:10111000D0F8AC10264805F0DFFE044624B926A01E
:1011200003F038FD00BFFEE725681E48C0F8AC504C
:10113000241D204600F0DAF820B124A003F02AFD97
:1011400000BFFEE72046FFF79DFC05F097FD042059
:10115000144981F8B0004FF47A7005F0C3FD1148CE
:10116000D0F8A8001349884204D105200D4981F820
:10117000B0000FE00B48D0F8A800B0F1016F04D127
:101180000620084981F8B00004E016A003F002FD33
:1011900000BFFEE703F0BAFA05F078FD002038BD85
:1011A00055020000A83E0320182D0320E81B032051
:1011B0008008002000000408626C6520757064617E
:1011C000746520616464722065727200626C6520CF
:1011D0007570646174652041707042696E2065723B
:1011E00072000000626C6520757064617465206334
:1011F000757272656E74206164722065727200008F
:1012000000B587B000BF0B48006840F48060094912
:1012100008600846006800F48060019000BF00BFCD
:10122000102002900020039002A9034801F01AFB4D
:1012300007B000BD303802400028024000BFFEE782
:1012400010B500BF00BF00BF00BF00BFBFF34F8F8E
:1012500000BF00BF00BF00BF00BF00BFBFF36F8F64
:1012600000BF00BF00BF002011490860114800689E
:1012700040F400300F49086000BF00BF00BFBFF35B
:101280004F8F00BF00BF00BF00BF00BF00BFBFF354
:101290006F8F00BF00BF00BF00BF03F0E9F9044833
:1012A0004C30006840F0040001494C31086010BD2A
:1012B00050EF00E014ED00E0F0B505460E460024C6
:1012C000AF1905E015F8011BA0B204F0EAF80446D6
:1012D000BD42F7D3A0B2002104F0E3F80446204653
:1012E000002104F0DEF804462046F0BD01460868FF
:1012F00000F07040B0F1005F01D001207047002085
:10130000FCE710B502460B4605E012F8014BFF2C36
:1013100001D0012010BD181EA3F10103F5D100BFBB
:10132000F8E700002DE9F04100242848D0F8A85043
:101330000746D0F8A8003946C1F8A4000D2224A120
:1013400027480068FEF7FBFF00283DD000F0B2F808
:10135000BC213846FEF7E1FF22A107F16E00FEF73F
:10136000FBFF22A107F16400FEF7F6FF20A138463B
:10137000FEF7F2FF20A107F17800FEF7EDFFEE2067
:10138000394681F8B000012081F8B2001C48C1F84C
:10139000A8000020C1F8AC0001F04EFA00BF3846AA
:1013A000D0F8A80000F54020A0F5806508E03E5D7B
:1013B000324600232946184601F0ECF96D1C641CE6
:1013C000A82CF4D301F0BAF9BDE8F081A83E0320BF
:1013D000666163746F727920736574320000000077
:1013E000D4000020312E302E30000000312E30008D
:1013F000474E53532E42520031303030303030009F
:1014000000000408F0B503460025144608E014F86F
:10141000017B28466D1C185C874201D00120F0BD7D
:10142000081EA1F10101F2D100BFF8E71CB5064882
:10143000052100234FF48052CDE9001003A1064896
:1014400007F072FC1CBD0000CC000020626C655FE0
:101450007461736B00000000050F00081CB505489F
:1014600008210023CA01CDE9001003A1054807F0B7
:101470005BFC1CBDF80200204F4C45445F74617357
:101480006B000000B93E00087047000010B504462C
:101490000648074908600846446000218160C16031
:1014A00001610C21416102F009F910BD00100140F9
:1014B000101C032010B54FF40031024802F066FB07
:1014C00010BD00000000020810B5002201B909E0BB
:1014D000012901D10A0205E0022901D10A0201E035
:1014E0004FF440720B2800D9001D124B1B6823F4E7
:1014F0004073104C236023461B681343236023462C
:101500001B6823F0F803236023461B68022444EA87
:10151000C0042343074C236023461B6843F48033F5
:10152000236000BF00BF00BFBFF34F8F00BF00BFED
:1015300000BF10BD103C024010B501F061F810BDB5
:10154000174A126822F44072154B1A60032906D11B
:101550001A461268DB131A43114B1A600EE0022977
:1015600006D10F4A126842F400420D4B1A6005E0A2
:101570000B4A126842F00402094B1A60084A1268CA
:101580004FF4803343EA00231A43054B1A6000BF2F
:1015900000BF00BFBFF34F8F00BF00BF00BF704749
:1015A000103C024001460448006820F00C0008434B
:1015B000014A106000207047143C024070B5054697
:1015C0000C4600264CF2503000F068F906467EB911
:1015D000102D07D1074800686FF30F00204305491D
:1015E000086005E00348006864F31F400149086093
:1015F000304670BD183C024070B5044600254CF2E0
:10160000503000F04BF9054625B9034800682043E7
:1016100001490860284670BD143C024070B504467C
:1016200000254CF2503000F039F9054625B9034841
:101630000068A04301490860284670BD143C024080
:101640000248006800F00C0070470000143C0240A3
:1016500001460020102903D1034A126890B202E02B
:10166000014A1268100C7047183C0240AA20064933
:101670000978AA2900D106E003490978CC2901D1CB
:10168000CC2000E055207047153C0240024800681D
:101690000249084070470000143C0240F00000F08E
:1016A000024800680249084070470000143C0240AC
:1016B0000000FF0F70B5044600254CF2503000F0DA
:1016C000EDF805460DB902480470284670BD0000CB
:1016D000153C02402DE9FC5F04460D4616461F46A8
:1016E000DDE90DABDDF830900020019000908046E0
:1016F0004CF2503000F0D2F88046B8F1000F16D10D
:101700000C48019045EA04003043384340EA0900A0
:1017100040EA0A000F99084340EA0B00009006488F
:1017200000680199884300990843034908604046CE
:10173000BDE8FC9FF00000F0143C02400B4A126828
:1017400022F44072094B1A601A4612681A601A464F
:10175000126842F001021A60017000BF00BF00BFB2
:10176000BFF34F8F00BF00BF00BF7047103C024067
:1017700010B50D49096821F440710B4C21602146D8
:10178000096841F4407121602146096841F0010176
:1017900021600260436000BF00BF00BFBFF34F8FF6
:1017A00000BF00BF00BF10BD103C02400C4A1268D1
:1017B00022F440720A4B1A601A46126842F4807290
:1017C0001A601A46126842F001021A60018000BFD6
:1017D00000BF00BFBFF34F8F00BF00BF00BF704707
:1017E000103C02400C4A126822F440720A4B1A6004
:1017F0001A46126842F400721A601A46126842F0E1
:1018000001021A60016000BF00BF00BFBFF34F8F2D
:1018100000BF00BF00BF7047103C02401D48006879
:1018200000F0020028B11C48806940F020001A49ED
:1018300088611848006800F0100028B116488069D7
:1018400040F01000144988611248006800F0200040
:1018500028B11148806940F008000F4988610D489F
:10186000006800F0400028B10B48806940F0040097
:10187000094988610748006800F0800028B10648DF
:10188000806940F0020004498861F2200149086043
:10189000704700000C3C02408060022070B5044696
:1018A000002500201449886101F0F6F8054609E09A
:1018B000601C38B124B101F0EFF8401BA04201D9FF
:1018C000032070BD0D48006800F480300028EFD17F
:1018D0000A48006800F0F20018B1FFF79FFF0120EE
:1018E000EFE70648006800F0010010B1012003494D
:1018F00008600020E5E70000806002200C3C024008
:1019000070B504461D460023B5F5804F13D154F839
:1019100022300C480340D1E9000640EA06108E68E8
:1019200040EA06208E8940EA06408E693043034330
:1019300044F8223003E06FF0704044F822000020A9
:1019400070BD00000000F0CF10B50246002308680B
:1019500052F820301B480340D1E901042043CC68F1
:1019600020430C6920434C6920438C692043CC6997
:1019700020430C6A20434C6A20438C6A2043CC6A83
:1019800020430C6B20438C6B20434C6B2043034360
:101990008868082801D143F04003086842F82030E5
:1019A000086BB0F5801F05D1086818B110680C6B82
:1019B00020431060086818B110684C6B2043106019
:1019C000002010BD8004C0FF30B50346144600223D
:1019D000601C53F8202002F04042D1E9000540EAA3
:1019E00005108D6840EA05208D8940EA0545088A82
:1019F000401E45EA0055087D801E45EA00608D695D
:101A000028430243601C43F82020186800F480102B
:101A100038B1586820F47002088A401E42EA005229
:101A20005A60002030BD000010B5012002F0B0F96E
:101A300000230D2207A10B4802F0FDF8094A0D21F1
:101A400004A0FFF7DFFC012801D100BFFEE7002062
:101A500010BD0000666163746F7279207365743223
:101A600000000000198001081CB5302000F034FC93
:101A7000054801210C230222CDE900101146102057
:101A800002F04CFC1CBD0000209300082DE9FC4135
:101A900006460F4614460025FFF7E6FF4EB93148CB
:101AA00001210C230A46CDE900102146384602F0F8
:101AB00035FC012E0FDB04F10900C5B207E0791CEB
:101AC000C8B20122294602F077FA681CC5B204F1B7
:101AD0000C008542F3DB022E0EDBA01DC5B207E031
:101AE000F91CC8B20122294602F066FA681CC5B288
:101AF00004F10C008542F3DB032E0EDB201DC5B282
:101B000007E0791DC8B20122294602F055FA681C87
:101B1000C5B204F10C008542F3DB042E0EDBA01CE1
:101B2000C5B207E0F91DC8B20122294602F044FA05
:101B3000681CC5B204F10C008542F3DB052E0EDBF8
:101B4000254608E007F10901C8B20122294602F042
:101B500033FA681CC5B204F10C008542F2DBBDE823
:101B6000FC810000509300082DE9FC41064600244A
:101B7000002500276D270F4801210C230A46CDE9D7
:101B8000001002216C2002F0C9FB3D460CE0052448
:101B900006E001222146284602F00EFA601CC4B27B
:101BA0000B2CF6DB681CC5B2B819A842EFDCBDE807
:101BB000FC810000009500081CB5044614B1022CFD
:101BC00031D117E0254801210C230022CDE9001076
:101BD0000221382002F052FB214801210C2302226D
:101BE000CDE900101146462002F098FB642000F079
:101BF00073FB30E01948183001210C230022CDE995
:101C000000100221382002F039FB164801210C2374
:101C10000222CDE900101146462002F07FFB64202D
:101C200000F05AFB17E00D4801210C230022CDE9FA
:101C300000100221382002F021FB094801210C2369
:101C40000222CDE900101146462002F067FB642015
:101C500000F042FB00BF00BF1CBD00001094000854
:101C600070940008409400082DE9FC4106460F4698
:101C700000240CE0002506E00020454901EBC501E9
:101C80000855681CC5B2802DF6DB601CC4B2082C58
:101C9000F0DB00F03DFB3F490879FFF78DFF08209E
:101CA000FFF762FF3C4991F8B20000F06BFB0222A3
:101CB00011460020FFF7EAFE00F0E4FA374800780A
:101CC00090B93749374802688A674268CA678068AE
:101CD000C1F8800001F18000002101614161816152
:101CE0008162C162016336E02C480078012815D179
:101CF0002B482C490A6882674A68C2678968C0F81D
:101D00008010803027490A6802614A684261896808
:101D1000816100218162C16201631CE01F4800787B
:101D2000022818D11E491F4802688A674268CA679C
:101D30008068C1F8800001F180001A490A680261D8
:101D40004A6842618968816116490A6882624A6804
:101D5000C2628968016311480078401C0F4908700D
:101D600008460078022801DD002008700C48012197
:101D70000C230822CDE900103946304602F0CEFA95
:101D800002F056FAC82004F0ADFFBDE8FC81000067
:101D90009C470320C4000020A83E03206C080020BC
:101DA000FC020020789500082DE9FC4106460F460C
:101DB00000240CE0002506E00020414901EBC501AC
:101DC0000855681CC5B2802DF6DB601CC4B2082C17
:101DD000F0DB00F09DFA3B490879FFF7EDFE0820A3
:101DE000FFF7C2FE384991F8B20000F0CBFA0222A8
:101DF00011460020FFF74AFE00F044FA334800780D
:101E000078B9334833490A6802614A68426189688F
:101E1000816100218162C162016301644164816466
:101E200031E02A480078012813D1294829490A6855
:101E300002614A6842618968816126490A68826252
:101E40004A68C26289680163002101644164816457
:101E500019E01E480078022815D11D481D490A685E
:101E600002614A684261896881611A490A6882622E
:101E70004A68C2628968016316490A6802644A684E
:101E800042648968816411480078401C0F490870D9
:101E900008460078022801DD002008700C488038D0
:101EA00001210C230922CDE900103946304602F009
:101EB00035FA02F0BDF9C82004F014FFBDE8FC813A
:101EC0009C470320C4000020A83E03206F08002088
:101ED00084070020789500082DE9FC4106460F464E
:101EE00000240CE0002506E00020194901EBC501A3
:101EF0000855681CC5B2802DF6DB601CC4B2082CE6
:101F0000F0DB00F005FA13490879FFF755FE0820C9
:101F1000FFF72AFE104991F8B20000F033FA0222CE
:101F200011460020FFF7B2FD00F0ACF90B4801218B
:101F30000C230622CDE900103946304602F0EEF9B6
:101F400002F076F94FF4FA6004F0CCFEBDE8FC81B3
:101F50009C470320C4000020A83E0320DC0700208B
:101F60002DE9FC4106460F4600240CE0002506E062
:101F70000020434901EBC5010855681CC5B2802DFE
:101F8000F6DB601CC4B2082CF0DB00F0C1F93D495F
:101F90000879FFF711FE0820FFF7E6FD3A4991F8AE
:101FA000B20000F0EFF9022211460020FFF76EFDAB
:101FB00000F068F93548007888B935493548026835
:101FC0008A644268CA648068086508460021016620
:101FD000416681668167C167C0F8801034E02B4894
:101FE0000078012814D12A482A490A6882644A687C
:101FF000C2648968016527490A6802664A684266C0
:102000008968816600218167C167C0F880101BE084
:102010001E480078022817D11D481E490A688264AC
:102020004A68C2648968016501461A4802680A66FE
:1020300042684A6680688866164802688A6742680D
:10204000CA678068C1F8800010480078401C0F49BA
:10205000087008460078022801DD002008700C484E
:1020600001210C230622CDE900103946304602F04A
:1020700055F902F0DDF8C82004F034FEBDE8FC811B
:102080009C470320C4000020A83E03206E080020C7
:102090007C040020789500082DE9FC4106460F4697
:1020A00000240CE0002506E00020454901EBC501B5
:1020B0000855681CC5B2802DF6DB601CC4B2082C24
:1020C000F0DB00F025F93F490879FFF775FD08209E
:1020D000FFF74AFD3C4991F8B20000F053F90222A3
:1020E00011460020FFF7D2FC00F0CCF8374800780A
:1020F00090B93749374802688A674268CA6780687A
:10210000C1F8800001F1800000210161416181611D
:102110008162C162016336E02C480078012815D144
:102120002B482C490A6882674A68C2678968C0F8E8
:102130008010803027490A6802614A6842618968D4
:10214000816100218162C16201631CE01F48007847
:10215000022818D11E491F4802688A674268CA6768
:102160008068C1F8800001F180001A490A680261A4
:102170004A6842618968816116490A6882624A68D0
:10218000C2628968016311480078401C0F490870D9
:1021900008460078022801DD002008700C48012163
:1021A0000C230822CDE900103946304602F0B6F87B
:1021B00002F03EF8C82004F095FDBDE8FC81000067
:1021C0009C470320C4000020A83E03206D08002087
:1021D000BC030020789500082DE9FC4106460F4617
:1021E00000240CE0002506E00020214901EBC50198
:1021F0000855681CC5B2802DF6DB601CC4B2082CE3
:10220000F0DB00F085F81B490879FFF7D5FC0820C2
:10221000FFF7AAFC184991F8B20000F0B3F80222C7
:1022200011460020FFF732FC00F02CF81348012182
:102230000C230722CDE900103946304602F06EF833
:1022400001F0F6FF4FF4FA7004F04CFD0C48012148
:102250000C230722CDE900103946304602F05EF823
:1022600001F0E6FF4FF47A7004F03CFDBDE8FC811C
:102270009C470320C4000020A83E03200C0500203A
:10228000B40500201CB5054801210C230422CDE92A
:10229000001032214B2002F041F81CBD18950008B7
:1022A00070B505460024312413E0204604EBD071BC
:1022B0004910A4EB410151B901222146284601F001
:1022C0007BFE691CC8B20122214601F075FE601C2C
:1022D000C4B23F2CE9DB70BD70B50546002400BFD9
:1022E00013E0204604EBD0714910A4EB410151B931
:1022F00001222146284601F05FFE691CC8B2012276
:10230000214601F059FE601CC4B20F2CE9DB70BD00
:1023100010B5002400BF1BE0032094FBF0F100FB8C
:10232000114098B901220021204601F045FE01220A
:102330000F21204601F040FE01223021204601F00D
:102340003BFE01223F21204601F036FE601CC4B254
:10235000802CE1DB002411E0032094FBF0F100FB72
:10236000114048B901222146002001F025FE01223A
:1023700021467F2001F020FE601CC4B2402CEBDB24
:1023800010BD00001CB504464120FFF789FF012C59
:1023900002D0022C16D10AE00C4801210C230222A3
:1023A000CDE900103221192001F0B8FF0BE00848F8
:1023B00001210C230222CDE900103221192001F065
:1023C000ADFF00E000BF00BF1CBD00006893000827
:1023D000989300082DE9F0410546002400260027C7
:1023E00001F019FC074600BF10E007EB4700094960
:1023F00001EBC000005D401C06EB802606F100608A
:10240000A84202D3601CBDE8F081641C172CECD3F9
:102410002046F8E7F0920008014691F835000228BE
:1024200003D08020486501207047052081F83500E1
:102430000868006820F001000A6810600020F3E7D7
:102440002DE9F04104460E460127002500BF25482E
:10245000007D012802D10220BDE8F0810120214940
:10246000087500BF4CF25030FFF718FA0746002FEE
:1024700030D1401E30602068012810D1207C616876
:10248000FFF75EF84CF25030FFF708FA074616489F
:10249000006848F204018843134908601AE0A568FF
:1024A00012E0217C2846FFF70FF84CF25030FFF77E
:1024B000F5F907460C48006820F0FA000A49086060
:1024C0000FB1356005E06D1CD4E902100844A84244
:1024D000E7D800BF00BF00200249087500BF38469A
:1024E000BAE7000080600220103C024010B50446AC
:1024F0003F202060FFF7D4F8A060FFF7B7F8E06056
:10250000FFF7C4F86061FFF79BF820611020FFF728
:102510009FF8A0612020FFF79BF8E06110BD00004C
:102520007FB50446012500BF3348007D012802D154
:10253000022004B070BD01202F49087500BF20782B
:1025400000F0010058B16068012804D1A068FFF7CD
:1025500065F8054603E0A068FFF74EF805462078C9
:1025600000F00200022803D1207BFFF7A3F8054604
:10257000207800F0040004281BD1606900F080502E
:10258000616901F00051626902F08042636903F001
:102590000043CDE90032CDE90210267D06F080032C
:1025A00006F0400206F0200106F01000FFF792F856
:1025B0000546207800F00800082803D1207CFEF7AB
:1025C000F1FF0546207800F01000102803D1A16922
:1025D000FEF7F4FF0546207800F02000202803D104
:1025E000E169FEF7EBFF054600BF002002490875D0
:1025F00000BF28469DE70000806002207047000071
:1026000010B500244B48006820F0010049490860DB
:102610000846006820F0020008600846006820F0C4
:10262000F800086008460068C913884341490860FB
:10263000081F006800F00100002841D00120091F98
:1026400008603D480078012804D0022827D00328DC
:1026500034D12BE038484068401E3749486008466E
:10266000406880B10846C4682046FFF7C7FF32487B
:10267000C068401C3049C86004460846017A2046BC
:10268000FEF722FF0AE04FF0FF3004462A49C860F7
:102690002046FFF7B3FF0020274908700FE0002015
:1026A000FFF7ACFF00202449087008E022490869C0
:1026B000FFF7A4FF00202049087000E000BF00BF22
:1026C0001C48001F006800F0F200F0B11A480078C2
:1026D000012804D0022809D003280CD108E01648AC
:1026E000C4684FF0FF301449C86005E0002403E0DF
:1026F0001148046900E000BF00BFFFF78FF82046D3
:1027000000F046F800200C4908700B48007878B9B2
:102710000848006820F08070064908600846006894
:1027200020F00070086000BF00200349087500BF5A
:1027300010BD0000103C0240806002200348006889
:1027400040F000400149086000207047103C024002
:102750000348006840F0010001490860002070470C
:10276000143C02400748006800F0010030B1064800
:1027700004490C3908600548086001E001207047F1
:102780000020FCE7143C02403B2A19087F6E5D4C98
:10279000704700002DE9F04106460F4614461D46DD
:1027A0004FF0010800BF2248007D012802D102201D
:1027B000BDE8F08101201E49087500BF4CF2503081
:1027C000FFF76CF88046B8F1000F29D136B1012E21
:1027D00009D0022E0CD0032E15D10EE0E1B23846FE
:1027E000FEF7ACFF10E0A1B23846FEF7DFFF0BE0CA
:1027F00021463846FEF7F6FF06E022462B463846CD
:10280000FEF7B6FF00E000BF00BF4CF25030FFF70C
:1028100045F880460748006820F001000549086037
:1028200000BF00200249087500BF4046C0E7000015
:1028300080600220103C02400748006800F0004021
:1028400030B1064804490C3908600548086001E0C9
:10285000012070470020FCE7103C0240230167453F
:10286000AB89EFCDF8B502460B46002100250024C8
:10287000002000BFE4E0012606FA01F51E6806EA22
:102880000504AC4271D15E68022E02D05E68122E41
:1028900013D1CF0802F1200656F827004E07F70E95
:1028A0000F26BE40B0434F07FF0E1E69BE403043A7
:1028B000CF0802F1200646F8270010684F000326D3
:1028C000BE40B0431E7906F003064F00BE403043C1
:1028D00010605E68012E08D05E68022E05D05E682A
:1028E000112E02D05E68122E13D190684F0003267D
:1028F000BE40B0434F00DE68BE4030439060506839
:1029000001268E40B0431E79C6F300168E40304338
:102910005060D0684F000326BE40B0434F009E6811
:10292000BE403043D0605E6806F08056B6F1805FEE
:10293000A8D100BF444E366846F48046424F3E6000
:102940003E46366806F48046009600BF00BF3F4E04
:102950008F0856F827008E07370F0F26BE40B0436A
:102960003B4EB24202D100262EE068E0394EB24220
:1029700001D1012628E0384EB24201D1022623E0DF
:10298000364EB24201D103261EE0354EB24201D18D
:10299000042619E0334EB24201D1052614E0324E2E
:1029A000B24201D106260FE0304EB24201D10726D5
:1029B0000AE02F4EB24201D1082605E02D4EB24268
:1029C00001D1092600E00A268F073F0FBE403043A1
:1029D0001E4E8F0846F82700274E3068A0435E68D9
:1029E00006F48036B6F5803F00D12043224E306099
:1029F000361D3068A0435E6806F40036B6F5003F29
:102A000000D120431C4E361D3060361D3068A04377
:102A10005E6806F48016B6F5801F00D12043164E7E
:102A200008363060361D3068A0435E6806F4001634
:102A3000B6F5001F00D120430F4E0C363060491C04
:102A40001029FFF418AFF8BD44380240083801409F
:102A5000000002400004024000080240000C024056
:102A6000001002400014024000180240001C024006
:102A70000020024000240240003C0140024613694D
:102A80000B400BB1012000E0002070470AB18161CA
:102A900001E00B0483617047014800687047000043
:102AA0000800002070B504460CB9012070BD4CF63A
:102AB000CC402168086045F2555021680860D4E98F
:102AC000001048602168A0688860FFF7E5FF0546B0
:102AD00006E0FFF7E1FF401B302801D90320E5E7BE
:102AE0002068C0680028F4D120680169E06881424C
:102AF00003D02168E068086103E04AF6AA20216853
:102B000008600020D2E701464AF6AA200A68106051
:102B10000020704702480068401C01490860704767
:102B20000800002010B50848006840F4007006490D
:102B30000860032000F00AF90F2000F007F800F009
:102B40007DF8002010BD0000003C024070B5044636
:102B5000074800684FF47A71B0FBF1F5284600F0A1
:102B6000E1FC00222146501E00F0B2F8002070BDAA
:102B7000040000204178154A11600178F9B1121D56
:102B800041681160017B0907C27A41EA0261827AD9
:102B900041EAC241427B41EA8241827B41EA4241B1
:102BA000C27B41EA0241427A41EA0221027A41EAC9
:102BB000420102781143054A0832116005E0002104
:102BC000024A121D1160121D1160704798ED00E05D
:102BD00000BF00BF00BFBFF35F8F00BF00BF00BFDB
:102BE0000548006820F4803003490860002002494D
:102BF000703108607047000024ED00E040F00101F2
:102C00000D4A11600C497039096841F480310A4A53
:102C1000703A116000BF00BF00BFBFF34F8F00BF0D
:102C200000BF00BF00BF00BF00BFBFF36F8F00BF7A
:102C300000BF00BF7047000094ED00E07047000047
:102C400070B504460E4615460CB9012070BD94F8C7
:102C5000450028B9002084F84400204600F02AF8F6
:102C600004F108012068FEF76FFE3146A268206873
:102C7000FEF7AAFE2946E36AD4E90102FEF740FE08
:102C8000A168206850F8210040F00100A268216886
:102C900041F82200606918B900200549086002E087
:102CA000012003490860012084F845000020CDE799
:102CB0000C000020704700BF00F01F02012191406E
:102CC0004209920002F1E022C2F8001100BF7047F1
:102CD0002DE9F05F80460D461646002701F0B0F85A
:102CE000074639462A46334601F00700C0F1070A75
:102CF000BAF1040F02D94FF0040A01E0C0F1070A4B
:102D0000D14600F1040ABAF1070F02D24FF0000ACF
:102D100001E0A0F1030AD4464FF0010A0AFA09FAC9
:102D2000AAF1010A0AEA020A0AFA0CFA4FF0010BA8
:102D30000BFA0CFBABF1010B0BEA030B4AEA0B0499
:102D40002146404601F084F8BDE8F09F00BF00F046
:102D50000702064B19684FF6FF031940044B0B435B
:102D600043EA0221014B196000BF70470CED00E0FF
:102D70000000FA0538B5002400BF2048006840F084
:102D800080501E4908600846006800F0805000909E
:102D900000BF00BF1A48006840F48030184908603E
:102DA000FFF77AFE044607E0FFF776FE001BB0F55A
:102DB0007A7F01D9032038BD1148406800F4803083
:102DC000B0F5803FF0D10E48006840F400300C4967
:102DD0000860FFF761FE044607E0FFF75DFE001B99
:102DE000B0F57A7F01D90320E5E70548406800F493
:102DF0000030B0F5003FF0D10020DCE74038024061
:102E00000070004070B504460D4600260CB9012044
:102E100070BD5148006800F00F00A8420ED24E4825
:102E2000006820F00F0028434B49086008460068FE
:102E300000F00F00A84201D00120E9E7207800F05F
:102E40000200022807D14548006820F0F000A16880
:102E5000084342490860207800F0010090B36068A0
:102E6000012807D13D4808380068C0F34040A0B9A8
:102E70000120CDE76068022807D13848083800688B
:102E8000C0F3406048B90120C2E734480838006800
:102E9000C0F3400008B90120BAE73048006820F0CC
:102EA0000300616808432D490860FFF7F5FD0646F9
:102EB00009E0FFF7F1FD801B41F28831884202D919
:102EC0000320A5E707E02548006800F00C006168D2
:102ED000B0EB810FEDD12048006800F00F00A84250
:102EE0000ED91D48006820F00F0028431A490860D9
:102EF0000846006800F00F00A84201D0012087E7D3
:102F0000207800F00400042807D11448006820F459
:102F1000E050E168084311490860207800F008009B
:102F2000082808D10D48006820F46040216940EA73
:102F3000C1000A49086000F03DF808490968C1F37A
:102F40000311074A515CC840064908600F20FFF78B
:102F5000FDFD00205CE70000003C02400838024014
:102F6000D892000804000020014800687047000063
:102F70000400002000B5FFF7F7FF04490968C1F31A
:102F80008221034A515CC84000BD0000083802405D
:102F9000E892000800B5FFF7E7FF04490968C1F3AC
:102FA0004231034A515CC84000BD0000083802406D
:102FB000E892000830B500210022002300201E4CBA
:102FC000246804F00C0424B1042C04D0082C2ED165
:102FD00003E01A482DE01A482BE0174C241F246800
:102FE00004F03F01144C241F246804F4800454B1FD
:102FF000134CB4FBF1F4104D2D1F2D68C5F388154B
:1030000004FB05F209E00D4CB4FBF1F40A4D2D1F51
:103010002D68C5F3881504FB05F2074C241F2468AE
:10302000C4F30144641C6300B2FBF3F001E0034805
:1030300000BF00BF30BD0000083802400024F4008B
:1030400040787D01F8B5044600260CB90120F8BD92
:10305000207800F00100002871D0F848006800F0E6
:103060000C0004280DD0F548006800F00C0008287A
:1030700013D1F248001F006800F48000B0F5800F03
:103080000BD1EE4808380068C0F34040002869D0F2
:103090006068002866D10120D9E700BF6068B0F5FC
:1030A000803F08D1E5480838006840F48030E349A3
:1030B000083908602EE0606868B9E04808380068A0
:1030C00020F48030DD49083908600846006820F4A3
:1030D000802008601EE06068B0F5A02F0DD1D748B1
:1030E0000838006840F48020D44908390860084650
:1030F000006840F4803008600CE0D0480838006870
:1031000020F48030CD49083908600846006820F472
:103110008020086000BF606890B1FFF7BDFC0546E5
:1031200006E0FFF7B9FC401B642801D903208EE7B5
:10313000C24808380068C0F340400028F1D011E0D0
:10314000FFF7AAFC054606E0FFF7A6FC401B642833
:1031500001D903207BE7B94808380068C0F3404034
:103160000028F1D1207800F00200022869D1B3488C
:10317000006800F00C0058B1B048006800F00C0086
:1031800008281CD1AD48001F006800F48000B0B9C9
:10319000AA4808380068C0F3400020B1E068012860
:1031A00001D0012053E7A5480838006820F0F80056
:1031B000216940EAC100A1490839086041E0E0689E
:1031C00028B39E480838006840F001009B49083940
:1031D0000860FFF761FC054606E0FFF75DFC401B59
:1031E000022801D9032032E7944808380068C0F368
:1031F00040000028F1D091480838006820F0F8001D
:10320000216940EAC1008D490839086019E08B48FE
:103210000838006820F00100884908390860FFF785
:103220003BFC054606E0FFF737FC401B022801D9AE
:1032300003200CE7814808380068C0F340000028EC
:10324000F1D1207800F00800082836D16069D0B1AB
:103250007A486C30006840F0010078496C310860B1
:10326000FFF71AFC054606E0FFF716FC401B022894
:1032700001D90320EBE671486C300068C0F34000D0
:103280000028F1D019E06D486C30006820F0010092
:103290006A496C310860FFF7FFFB054606E0FFF75F
:1032A000FBFB401B022801D90320D0E663486C30A9
:1032B0000068C0F340000028F1D1207800F004003D
:1032C000042874D15D483830006800F0805080B91F
:1032D00000BF5A483830006840F0805057493831B4
:1032E00008600846006800F08050009000BF00BFF2
:1032F00001265348006800F48070B0B95048006857
:1033000040F480704E490860FFF7C6FB054606E0B2
:10331000FFF7C2FB401B642801D9032097E6484809
:10332000006800F480700028F2D000BFA068012877
:1033300008D142486830006840F001003F496831D8
:1033400008602DE0A06868B93C486830006820F04B
:1033500001003A49683108600846006820F004001E
:1033600008601DE0A06805280DD134486830006869
:1033700040F004003149683108600846006840F0B8
:10338000010008600CE02D486830006820F0010062
:103390002A49683108600846006820F00400086087
:1033A00000BFA068A8B1FFF777FB054609E02EE053
:1033B000FFF772FB401B41F28831884201D903209C
:1033C00045E61E4868300068C0F340000028EFD092
:1033D00013E0FFF761FB054608E0FFF75DFB401BCC
:1033E00041F28831884201D9032030E61348683021
:1033F0000068C0F340000028EFD1012E07D10F482C
:103400003830006820F080500C4938310860A069DD
:10341000F0B30A48006800F00C00082868D0A069E2
:1034200002284DD105480838006820F08070034913
:1034300008390860FFF730FB05460AE0083802400B
:1034400000700040FFF728FB401B022801D9032031
:10345000FDE529480068C0F340600028F2D1D4E9B6
:1034600007010843616A40EA81110122A06AC2EBA8
:10347000500041EA00412C20005D41EA006130200B
:10348000005D41EA00701C49091D0860081F00E04A
:1034900030E0006840F08070091F0860FFF7FCFA18
:1034A000054606E0FFF7F8FA401B022801D9032081
:1034B000CDE511480068C0F340600028F2D019E063
:1034C0000D48006820F080700B490860FFF7E4FAAF
:1034D000054606E0FFF7E0FA401B022801D9032069
:1034E000B5E505480068C0F340600028F2D101E06E
:1034F0000120ACE50020AAE500380240042808D1EC
:103500004FF0E021096941F004014FF0E022116120
:1035100007E04FF0E021096921F004014FF0E022BB
:103520001161704770B504462546681EB0F1807F72
:1035300001D301200FE0681E4FF0E02148610F2108
:103540004FF0FF3000F084FC00204FF0E021886154
:1035500007200861002070BD704700002DE9F04190
:1035600004462068C569206806682068876805F0F9
:103570000F08B8F1000F0AD105F0200038B106F0AD
:10358000200020B1204601F0DBFCBDE8F081B8F15D
:10359000000F7BD007F0010018B906F490700028E6
:1035A00074D005F0010048B106F4807030B10120FC
:1035B00021680862E06E40F00100E06605F002005C
:1035C00048B107F0010030B1022021680862E06EC6
:1035D00040F00400E06605F0040048B107F0010087
:1035E00030B1042021680862E06E40F00200E0661D
:1035F00005F0080060B106F0200010B907F00100E6
:1036000030B1082021680862E06E40F00800E066F2
:10361000E06E58B305F0200028B106F0200010B18C
:10362000204601F08DFCE06E00F0080020B9206813
:10363000806800F0400018B3204601F0ABFB206822
:10364000806800F04000B8B12068806820F0400039
:1036500021688860606E50B11748616E0865606EC1
:10366000FEF7DAFE10B1606E016D88470DE020466E
:10367000FFF772FF09E009E02046FFF76DFF04E065
:103680002046FFF769FF0020E0667EE705F0800036
:1036900030B106F0800018B1204601F05BFE74E7FF
:1036A00005F0400030B106F0400018B1204601F0AE
:1036B00081FB6AE700BF68E77D4D000810B504464E
:1036C0000CB9012010BDA06900B100E000BF94F862
:1036D000690028B9002084F86800204600F02AF824
:1036E000242084F869002068006820F00100216827
:1036F0000860204601F068FC012800D1E2E7606A1A
:1037000010B1204601F09EFA2068406820F49040F5
:10371000216848602068806820F02A00216888605D
:103720002068006840F0010021680860204601F030
:10373000FEFAC7E730B587B004462568022003903B
:10374000012004900220059068482844002842D0B7
:10375000B0F5406F7ED0B0F54C4F3BD100BF644810
:10376000006840F01000624908600846006800F0F8
:103770001000019000BF00BF00BF5D481438006812
:1037800040F001005A49143908600846006800F00A
:103790000100019000BF00BF00BF0846006840F074
:1037A000010008600846006800F00100019000BFB9
:1037B00000BF481502900720069002A94D48FFF768
:1037C00051F84FF4806002900720069002A9494802
:1037D000FFF748F886E000BF4548001F006840F446
:1037E00000304349091F08600846006800F40030B3
:1037F000019000BF00BF00BF3D481438006840F092
:1038000001003B49143908600846006800F00100D7
:10381000019000BF00BF00BF0846006840F00100F3
:1038200008600846006800F00100019000BF00BF7A
:10383000042002900720069002A92E48FFF712F8F4
:10384000082002900720069002A92A48FFF70AF8EC
:1038500048E0FFE700BF26481438006840F0020047
:103860002349143908600846006800F002000190FE
:1038700000BF00BF00BF0846006840F002000860BB
:103880000846006800F00200019000BF00BF00BFC2
:103890001748001F006840F480101549091F086090
:1038A0000846006800F48010019000BF00BF4FF48C
:1038B000005002900820069002A90F48FEF7D2FFA0
:1038C0004FF4805002900820069002A90A48FEF7A3
:1038D000C9FF002211463520FFF7FAF93520FFF71E
:1038E000EAF900BF00BF07B030BD000000BCFFBF59
:1038F00044380240000002400004024010B5034674
:1039000093F86A00202855D101B10AB9012010BDF1
:1039100000BF93F86800012801D10220F7E70120D9
:1039200083F8680000BF5965A3F85820A3F85A200F
:1039300000BF9868B0F5805F0AD1186920B940F2DD
:10394000FF10A3F85C001CE0FF20A3F85C0018E067
:10395000986848B9186918B9FF20A3F85C0010E00E
:103960007F20A3F85C000CE09868B0F1805F08D17C
:10397000186918B97F20A3F85C0002E03F20A3F883
:103980005C0000BF0020D866222083F86A0000BFD8
:10399000002083F8680000BF1868806840F00100CC
:1039A0001C68A0601868006840F490701C68206073
:1039B0000020ACE70220AAE710B50446344920688D
:1039C0000860344890F8700002285CD0084600680F
:1039D0003149084400283BD0B0F5406F03D0B0F522
:1039E0004C4F4FD11AE02B48713029494861401C97
:1039F000C86000F60200086108304860401C88601A
:103A0000401C0862A0F60E00886123200877402041
:103A10004877012088772148486233E020481C49D4
:103A20004861401CC86000F6020008610830486028
:103A3000401C8860401C0862A0F60E0088612320AC
:103A4000087740204877012088771648486219E0B7
:103A500015480F494861401CC86000F60200086123
:103A600008304860401C8860401C0862A0F60E00C8
:103A700088612320087740204877012088770B4809
:103A8000486200BF00BF024801F0A4F910BD000069
:103A9000E81B0320182D032000BCFFBF9035032036
:103AA000811C032088240320052503200C2D0320DE
:103AB0002DE9F84304460D4616461F464FF000090F
:103AC00094F86900202854D105B116B90120BDE849
:103AD000F88300BF94F86800012801D10220F6E7BE
:103AE000012084F8680000BF00205034E0612120EC
:103AF0006076FEF7D1FF814626806680503C21E04B
:103B0000B4F85200401EA4F852004B460022802117
:103B10002046009701F053FC08B10320D7E7A068C6
:103B2000B0F5805F0AD1206940B9A846B8F8000016
:103B3000C0F3080021688862AD1C03E015F8010B92
:103B400021688862B4F852000028D9D14B4600227F
:103B500040212046009701F032FC08B10320B6E76F
:103B6000202084F8690000BF002084F8680000BFAE
:103B7000ADE70220ABE7704700BFFEE7014601203A
:103B8000014A1070002070479C0000202DE9F0438E
:103B900087B004460D460127B9462046FEF71AFCB9
:103BA00006466019FEF716FCA0EB060800200290FE
:103BB000022006900496CDF81480FEF73DFE00BF6B
:103BC00001A902A8FEF73CFC074600F013FD002FF8
:103BD000F6D1FEF7B3FD15E029462046FDF791FB2F
:103BE00001280BD1FEF728FE00BF01A902A8FEF7AD
:103BF00027FC0028F9D1FEF7A1FD03E0002007B063
:103C0000BDE8F083B9F10000A9F1010101F0FF095D
:103C1000E2D10120F3E700B589B001A8FEF766FC08
:103C2000069800F00050B0F1005F02D1012009B009
:103C300000BD0020FBE72DE9F04F87B083460D461D
:103C400090461E462F46A946069505950024DA465D
:103C500000EE106AB8EE401BB0EE000B01F094FECF
:103C6000BCEEC00B10EE100AC0B203900398B8FB74
:103C7000F0F0029041465046FFF788FFFEF7DCFD6A
:103C800000BF38E036B1012E0ED0022E16D0032E22
:103C90002DD11EE017F804C062460023514630467D
:103CA000FEF778FD049022E039F814C06246002344
:103CB00051463046FEF76EFD049018E0069850F825
:103CC00024C06246002351463046FEF763FD04904F
:103CD0000DE0059800EBC40003C802460B46CDE991
:103CE000000151463046FEF755FD049000BF00BF6D
:103CF00003988244641C02988442C3D3FEF71EFDDD
:103D0000049807B0BDE8F08F2DE9FE4F04460E463B
:103D100092461F46B046B146B3460296002500EED5
:103D2000107AB8EE401BB0EE000B01F02DFEBCEE99
:103D3000C00B10EE100AC0B201900198BAFBF0F06F
:103D4000009000BF1FE037B1012F08D0022F0AD02A
:103D5000032F14D10BE0207808F805000FE020882D
:103D600029F815000BE020684BF8250007E02268D1
:103D70006168029800EBC500C0E9002100BF00BFE8
:103D8000019804446D1C00988542DCD3BDE8FE8F89
:103D900010B588B00446FEF74FFDFEF7E3FC684619
:103DA000FEF7A4FB059800F00050B0F1005F02D1CF
:103DB000002008B010BD012C04D1059840F000503F
:103DC000059003E0059820F0005005906846FEF746
:103DD000A7FBFEF7B3FCFEF7BBFCFFF71CFFA042FE
:103DE00001D10020E5E70120E3E71FB5FEF7F0FE73
:103DF00001208DF800004FF0C040019019208DF88F
:103E0000080003208DF80B0001208DF80F00002022
:103E10008DF80E0001208DF80D008DF801000020B6
:103E20008DF80A008DF809008DF80C006846FEF741
:103E3000A1FE0420FEF7E2FE1FBD00BFFEE77047B3
:103E400002480068C0F30220704700000CED00E05B
:103E500010B5002807DA0A07140E054A00F00F0310
:103E60001B1FD45403E00A07130E024A135410BD5B
:103E700018ED00E000E400E000BF00BF00BFBFF3AA
:103E80004F8F00BF00BF00BF0948006800F4E0602A
:103E900008490843001D0649086000BF00BF00BF75
:103EA000BFF34F8F00BF00BF00BF00BF00BFFDE7E3
:103EB0000CED00E00000FA0570B5064610244FF442
:103EC000C06500F0ADF800F05FF80EE018210E209C
:103ED000FDF7CAFE2B4890F8B000022804D029480C
:103EE00090F8B000EE2800D102E0601E041EEDD173
:103EF00000BF244890F8B000EE2817D114E0182134
:103F00000A20FDF751FF1F4890F8B000EF280BD1B1
:103F100000201C4981F8B00000F0F8FB18211020A7
:103F2000FDF7DAFF002400E0E9E700BF0CB31CE076
:103F3000144890F8B000022803D118210E20FEF793
:103F4000ABF8104890F8B000032803D118211C20CA
:103F5000FEF706F80B4890F8B000042805D11821A8
:103F60001220FEF739F900BFFEE7281EA5F1010572
:103F7000DED10020034981F8B00000F0C7FB02F059
:103F800085FE70BDA83E032070B500240CE000251E
:103F900006E00020074901EBC5010855681CC5B2C1
:103FA000802DF6DB601CC4B2082CF0DB00F040F979
:103FB00070BD00009C470320F0B5144600267F2802
:103FC00001DC3F2900DDF0BD0B46CF1701EB577731
:103FD000FF10C7F10707FAB2CF1701EB5777FF10B1
:103FE000A1EBC707FDB2C5F107070123BB40DEB255
:103FF0004CB10A4B03EBC0039B5C3343074F07EB09
:10400000C007BB5408E0054B03EBC0039B5CB34304
:10401000024F07EBC007BB5400BFD4E79C47032007
:1040200000B587B000BF7F48006840F001007D49BF
:1040300008600846006800F00100019000BF00BF62
:1040400000BF0846006840F00200086008460068AB
:1040500000F00200019000BF00BF00BF08460068EA
:1040600040F0040008600846006800F00400019079
:1040700000BF00BF00BF0846006840F008000860AD
:104080000846006800F00800019000BF00BF00BFB4
:104090000846006840F0200008600846006800F00C
:1040A0002000019000BF00BF00BF0846006840F03C
:1040B000800008600846006800F08000019000BFA2
:1040C00000BFF02002900120039004900220059090
:1040D00002A95548FEF7C6FB4FF48140029002A9A1
:1040E0005248FEF7BFFB4FF48070029002A94E4881
:1040F000FEF7B8FB012211024B48FEF7C7FC012274
:1041000080214948FEF7C2FC012220214648FEF7E3
:10411000BDFC012210214448FEF7B8FC0122802199
:104120004248FEF7B3FC012291034048FEF7AEFC83
:1041300000224FF480413D48FEF7A8FCC82002F061
:10414000D1FD012291033948FEF7A0FCC82002F0FE
:10415000C9FD0021AE2000F0FDF80021D52000F0BF
:10416000F9F80021802000F0F5F80021A82000F0E7
:10417000F1F800213F2000F0EDF80021D32000F0FD
:10418000E9F80021084600F0E5F80021402000F0A1
:10419000E1F800218D2000F0DDF80021142000F06E
:1041A000D9F80021202000F0D5F80021022000F0ED
:1041B000D1F80021A12000F0CDF80021C02000F0AE
:1041C000C9F80021DA2000F0C5F80021122000F023
:1041D000C1F80021812000F0BDF80021EF2000F09F
:1041E000B9F80021D92000F0B5F80021F12000F045
:1041F000B1F80021DB2000F0ADF80021302000F004
:10420000A9F80021A42000F0A5F80021A62000F0C4
:10421000A1F80021AF2000F09DF8FFF7B5FE07B030
:1042200000BD00003038024000000240000402409F
:1042300070B500241CE004F1B001C8B2002100F008
:1042400089F80021084600F085F80021102000F0D0
:1042500081F8002508E0084901EBC501085D01214E
:1042600000F078F8681CC5B2802DF4DB601CC4B285
:10427000082CE0DB70BD00009C4703202DE9F04FC7
:1042800085B007460C4690461D46DDF838900294EE
:104290006806000E019001980490680003900F9842
:1042A0000090002634E00499009801FB080010F803
:1042B00006A04FF0000B25E00AF0800028B14A4626
:1042C00021463846FFF778FE0AE0B9F1000F01D128
:1042D000012000E00020024621463846FFF76CFE30
:1042E0004FEA4A604FEA106A601CC4B20298201A72
:1042F000A84203D1029C781CC7B206E00BF1010072
:1043000000F0FF0BBBF1080FD6DB00BF701CC6B27C
:1043100001988642C7DB05B0BDE8F08F2DE9FC4768
:104320000546884616461F46DDE90A9A002400BF66
:104330000BE007FB0451C8B23B4622464146CDE99B
:10434000009AFFF79BFF601CC4B2B442F1DBBDE8EA
:10435000FC87000070B504460E462EB10122802174
:104360001C48FEF793FB04E0002280211948FEF769
:104370008DFB002210211848FEF788FB00251BE06A
:10438000002220211448FEF781FB04F0800028B1B0
:10439000012280211048FEF779FB04E000228021F1
:1043A0000D48FEF773FB012220210B48FEF76EFB40
:1043B0006006040E681CC5B2082DE1DB0122102145
:1043C0000548FEF763FB012280210248FEF75EFBF1
:1043D00070BD0000000402400000024070B50446B9
:1043E0000E46154629E02B4890F87C08012824D178
:1043F00029484178807880F0FF00814214D0002065
:104400002649088040F205412348FBF786FF00203B
:10441000204981F87C082249087014B16FF0080027
:1044200070BD4FF0FF30FBE700201C4908801C499D
:104430000870184981F87C08F2E7281EA5F10105EB
:10444000D1D117480078A0B184B100201349088069
:1044500040F205411048FBF760FF00200D4981F84C
:104460007C080F4908706FF00800D9E74FF0FF3063
:10447000D6E700200949088040F205410648FBF7CD
:104480004CFF0020034981F87C0805490870401E54
:10449000C6E70000182D03209C360320BC00002036
:1044A000BE0000200D4900220846D0F8A80000F503
:1044B0004020A0F5806300BF0846D0F8A80000F5B2
:1044C0004020A0F5806304E0187801F8010B5B1C24
:1044D000521CA82AF8D3002070470000A83E0320F1
:1044E0002DE9F041002500260027A8460024284F8A
:1044F00000BF0CE0D7F80080A04503D12548006933
:10450000404500D808E0641C22484069074421481F
:104510000069401CA042EDD800BF64B94FF0FF30E5
:104520001C49086000F0F2F800F0F0F81948406902
:104530001749471802E0174840693F1A3D460024D2
:10454000144E04E015F8010B06F8010B641C202C36
:10455000F8D3083500240F48466A04E015F8010B2B
:1045600006F8010B641C0B488068A042F6D80024B2
:104570000848066A04E015F8010B06F8010B641CF4
:104580000448C068A042F6D800F0C0F8BDE8F08149
:104590000000020874470320002200200021064A80
:1045A00000BF064804E012F8013B00F8013B491C3B
:1045B0002829F8D370470000000002087447032040
:1045C00070B50B48D0F8A85004F0DEFB012809D0E4
:1045D00003F0E8FB012001F0D2FE6C68A04703F075
:1045E00027FC04E0012001F0CAFE6C68A04770BD02
:1045F000A83E032010B500231B4C236000BF00BF62
:1046000000BFBFF34F8F00BF00BF00BF231F18685C
:10461000C0F34E3100BFC0F3C90200BF43F6E073E0
:1046200003EA41134FF0404404EA827423430F4CE1
:10463000236000BF00BF131EA2F10102EED10B1ECA
:10464000A1F10101E7D100BF00BF00BFBFF34F8F51
:1046500000BF00BF00BF00BF00BF00BFBFF36F8F30
:1046600000BF00BF00BF10BD84ED00E074EF00E0AC
:1046700010B50023234C236000BF00BF00BFBFF371
:104680004F8F00BF00BF00BF231F1868C0F34E311B
:1046900000BFC0F3C90200BF43F6E07303EA411351
:1046A0004FF0404404EA82742343174C236000BF58
:1046B00000BF131EA2F10102EED10B1EA1F10101F8
:1046C000E7D100BF00BF00BFBFF34F8F00BF00BFE7
:1046D00000BF0C4B703B1B6843F48033094C703CAB
:1046E000236000BF00BF00BFBFF34F8F00BF00BFFC
:1046F00000BF00BF00BF00BFBFF36F8F00BF00BF90
:1047000000BF10BD84ED00E060EF00E02DE9F04156
:10471000002400273E4D0026284629680069401ED7
:10472000814205D32868401C10B100F075F86DE097
:104730002868401C2860364928684969354A00FBCA
:1047400001272868401E3249496900FB0120304991
:104750004860084640681146884202D208462C4903
:1047600048602B4A128991B2294A506A03F0B4FA80
:10477000274988830A46928991B2254A106A03F034
:10478000ABFA2349C883FEF757F80026204C0DE00A
:1047900000BF94F800C06246002339461846FDF772
:1047A000F9FF0028F5D17F1C641C761C282EEFD35E
:1047B00000261748446A0DE000BF94F800C0624626
:1047C000002339461846FDF7E5FF0028F5D17F1C88
:1047D000641C761C0E488068B042EDD800260C4858
:1047E000046A0DE000BF94F800C062460023394619
:1047F0001846FDF7CFFF0028F5D17F1C641C761CFE
:104800000348C068B042EDD8FDF798FFBDE8F081DD
:1048100074470320000002082DE9F041002400261F
:1048200000254249486902F021FB07460FB900BF45
:10483000FEE73E48426941683846FBF755FDFCF704
:1048400039FE002038603A4EFDF7F6FF00253C4661
:104850000AE094F800C06246002331461846FDF78E
:1048600099FF761C641C6D1C30484069A842F0D842
:10487000384602F091FA002701202C4908602C48A4
:1048800048600A46128991B2284A506A03F024FA15
:10489000264988830A46928991B2244A106A03F015
:1048A0001BFA2249C88300250C460DE000BF94F88E
:1048B00000C06246002331461846FDF76BFF002812
:1048C000F5D1761C641C6D1C282DEFD300251748EC
:1048D000446A0DE000BF94F800C0624600233146F0
:1048E0001846FDF757FF0028F5D1761C641C6D1C97
:1048F0000E488068A842EDD800250C48046A0DE0F7
:1049000000BF94F800C06246002331461846FDF708
:1049100041FF0028F5D1761C641C6D1C0348C0685B
:10492000A842EDD8FDF70AFFBDE8F08174470320E7
:104930000000020801B500BF4FF0FF3301226946B5
:104940000248FFF7B5F800BF002008BD182D03206E
:1049500070B504460D4619210C48FBF7DEFC2A46CB
:1049600021460A48FBF7C0FC0120FFF711FA00239B
:10497000192206490648FFF75EF900231922034968
:104980000348FFF7C1F9002070BD0000303F03204D
:10499000008001082DE9F04194B00546884616468E
:1049A0001F46002400BF2648006840F0805024497C
:1049B00008600846006800F08050019000BF00BF0A
:1049C00000BF2048006840F440401E490860084687
:1049D000006800F44040019000BF00BF0120079034
:1049E0000004089002200D9041050E91CDF83C8006
:1049F00010951196129707A8FEF724FB04460CB1F8
:104A000000BFFEE7FEF7B6F904460CB100BFFEE7B3
:104A10000F20029002200390002004904FF4A05039
:104A200005904FF480500690052102A8FEF7EAF9A0
:104A300004460CB100BFFEE714B0BDE8F0810000F1
:104A4000403802400070004010B504F09DF9012884
:104A500001D003F01BFEFEF75DF810BD10B500207D
:104A600030498860C8600846C068283089680844B2
:104A70002C494861084640694FF40031B1FBF0F021
:104A800028490861FFF788FD264880692649884241
:104A900027D0084623498861BC20886023484862A3
:104AA0004FF48060C860C86802F0E0F91D490862F0
:104AB0000846C0682830896808441A494861084691
:104AC00040694FF40031B1FBF0F0164908614FF036
:104AD000FF300860FCF7EEFCFFF718FEFFF716FE4C
:104AE0001FE0BC200F498860104848620846C06833
:104AF0002830896808440B494861084640694FF4EA
:104B00000031B1FBF0F007490861C86802F0AEF966
:104B1000044908620846006A08B900BFFEE7FFF7CB
:104B2000DFFC10BD7447032056341200A83E03205A
:104B30001448006840F47000124908601248006888
:104B400040F001001049086000200F49083108605A
:104B50000D4800680D4908400B4908600C48091DC4
:104B60000860081F006820F48020091F08600020EA
:104B700005490C3108604FF0006002498039086037
:104B80007047000088ED00E000380240FFFFF6FEAD
:104B9000103000240FB430B5ADF2044D00240DF2F6
:104BA0001440CDF800046846DDF80024DDF8101448
:104BB00000F0BAFE05460020CDF8000400BF22E058
:104BC00000BF0DEB04014FF0FF3301221148FEF747
:104BD0006FFF00BF1DF804000F49096801F00101D3
:104BE00079B10D498039096801F0010149B100E04E
:104BF00000BF4FF0604109680029F9D04FF06042D2
:104C0000107000BF641CAC42DAD30DF2044D30BC0E
:104C10005DF814FB101C0320800E00E010B500208E
:104C2000074981F871000846FEF798FC0121044805
:104C300080F87D18012200F17101FEF75FFE10BDC2
:104C4000182D032090F8241001F0010139B10168FA
:104C5000496821F40031826A11430268516090F87A
:104C6000241001F0020139B10168496821F4803152
:104C7000C26A11430268516090F8241001F00401E7
:104C800039B10168496821F48021026B114302683F
:104C9000516090F8241001F0080139B101684968A9
:104CA00021F40041426B11430268516090F82410D6
:104CB00001F0100139B10168896821F48051826BDB
:104CC00011430268916090F8241001F0200139B17D
:104CD0000168896821F40051C26B11430268916038
:104CE00090F8241001F0400199B10168496821F45D
:104CF0008011026C114302685160016CB1F5801F94
:104D000007D10168496821F4C001426C114302686F
:104D1000516090F8241001F0800139B101684968B0
:104D200021F40021826C114302685160704738B54C
:104D3000044600250020E066FDF7AEFE054620682B
:104D4000006800F0080008280CD16FF07E402B4668
:104D500000224FF400110090204600F030FB08B113
:104D6000032038BD202084F8690084F86A0000BF61
:104D7000002084F8680000BF00BFF2E770B5054668
:104D8000AC6B0020A4F85A00A4F852002046FEF7AD
:104D9000E3FB70BD0168096821F49071026811603D
:104DA0000168896821F0010102689160202180F882
:104DB0006A10704710B504462068006820F0400073
:104DC00021680860202084F869002046FEF7D3FEA1
:104DD000002010BD70B5044660690578564890F80B
:104DE0007000022806D1544991F8710000F0CCFB04
:104DF000002070BDA07F70B17D2D05D1E07F18B976
:104E00000120E0770020F4E7E07F012803D185F05E
:104E100020050020E077A0690078B0BB207FA84281
:104E20000ED1002021690860207FE16808702069A8
:104E30000068401C216908600120216A087079E03F
:104E4000607FA8420DD0206A0078012809D1D4E9FA
:104E500003010968455420690068401C2169086005
:104E600068E0206A0078012864D1607FA84261D19F
:104E7000D4E903010968455420690068401C216990
:104E8000086001206168087054E0FFE7A0690078BD
:104E9000012839D12948406A006800284AD0206A90
:104EA000007888B900206168087021690860D4E939
:104EB00003010968455420690068401C21690860A5
:104EC0000120216A087035E0206A0078012810D19D
:104ED000206900681949496A0968884209D2D4E9F9
:104EE00003010968455420690068401C2169086075
:104EF00020E00020216A087001206168087000200D
:104F00000E49496A086015E0A0690078022811D1AD
:104F100020690068B0F5006F09D2D4E9030109687F
:104F2000455420690068401C2169086002E00020A7
:104F30002169086000205CE7182D0320E81B03208E
:104F400070B50446B4F85C6094F86A00222833D146
:104F5000A068B0F5805F0AD1206940B9656D20680E
:104F6000406A30402880606D801C606507E02068E2
:104F7000406AF1B20840626D511C61651070B4F86E
:104F80005A00401E80B2A4F85A0098B92068006800
:104F900020F49070216808602068806820F001008B
:104FA00021688860202084F86A002046FEF704FD0E
:104FB000002070BD0020FCE72068806940F00800F8
:104FC000216888610220F4E72DE9F04704460025B6
:104FD00010260027A846A9462169A06808436169F0
:104FE0000843E16940EA010520680068CD490840AE
:104FF0002843216808602068406820F44050E16838
:10500000084321684860216AA06940EA01052068D8
:10501000806820F4306028432168886000BFC2495E
:105020002068884215D1C148006800F0030030B103
:10503000012808D0022804D0032808D105E0012661
:1050400006E0022604E0042602E0082600E000BF95
:10505000C1E0B7492068884215D1B448006800F023
:105060000C0030B1042808D0082804D00C2808D13E
:1050700005E0002606E0022604E0042602E00826F9
:1050800000E000BFA7E0AB492068884215D1A748DF
:10509000006800F0300030B1102808D0202804D07B
:1050A000302808D105E0002606E0022604E00426A8
:1050B00002E0082600E000BF8DE09F49206888429A
:1050C00015D19A48006800F0C00030B1402808D0DF
:1050D000802804D0C02808D105E0002606E002267A
:1050E00004E0042602E0082600E000BF73E09349D4
:1050F0002068884218D18D48006800F4407048B19B
:10510000B0F5807F0AD0B0F5007F05D0B0F5407FC4
:1051100008D105E0002606E0022604E0042602E0AD
:10512000082600E000BF56E085492068884218D173
:105130007E48006800F4406048B1B0F5806F0AD046
:10514000B0F5006F05D0B0F5406F08D105E001263D
:1051500006E0022604E0042602E0082600E000BF84
:1051600039E078492068884218D17048006800F416
:10517000405048B1B0F5805F0AD0B0F5005F05D06F
:10518000B0F5405F08D105E0002606E0022604E005
:10519000042602E0082600E000BF1CE06A492068FF
:1051A000884218D16148006800F4404048B1B0F529
:1051B000804F0AD0B0F5004F05D0B0F5404F08D170
:1051C00005E0002606E0022604E0042602E00826A8
:1051D00000E000BF00BF00BFE069B0F5004F52D152
:1051E000042E2BD005DC4EB1012E12D0022E3BD165
:1051F0001AE0082E2DD0102E36D136E0FDF7BAFE7B
:105200004000616800EB5100B0FBF1F01FFA80F83C
:105210002EE0FDF7BFFE4000616800EB5100B0FBDF
:10522000F1F01FFA80F823E04849606801EB500074
:105230006168B0FBF1F01FFA80F819E0FDF7BAFEE3
:105240004000616800EB5100B0FBF1F01FFA80F8FC
:105250000EE04FF48031606801EB50006168B0FBF4
:10526000F1F01FFA80F803E000BF4FF0010900BF22
:1052700000BF4FF6F07008EA0007C8F3420007438A
:105280002068C7604AE0042E2CD005DC4EB1012E08
:1052900012D0022E3DD11AE0082E2ED0102E38D179
:1052A00038E0FDF767FE616800EB5100B0FBF1F0FC
:1052B00080B22168C86030E0FDF76CFE616800EBE9
:1052C0005100B0FBF1F080B22168C86025E02049B0
:1052D000606801EB50006168B0FBF1F080B22168BA
:1052E000C8601AE0FDF766FE616800EB5100B0FB94
:1052F000F1F080B22168C8600FE04FF400416068AF
:1053000001EB50006168B0FBF1F080B22168C86029
:1053100003E000BF4FF0010900BF00BF4846BDE8F1
:10532000F0870000F369FFEF001001409038024061
:105330000044004000480040004C00400050004045
:105340000014014000780040007C00400048E80163
:105350000024F400014691F8690021282DD1B1F80C
:10536000520068B90868006820F080000B68186077
:105370000868006840F040000B6818600020704723
:105380008868B0F5805F0BD1086948B9CA6C10888D
:10539000C0F308000B689862C86C801CC86405E004
:1053A000CB6C581CC86418780B689862B1F852002E
:1053B000401EA1F852000020E1E70220DFE72DE9BE
:1053C000F04104460D4617469846069E21E0701CA3
:1053D000F8B12EB1FDF760FBA0EB0800B04218D386
:1053E0002068006820F4D070216808602068806818
:1053F00020F0010021688860202084F8690084F88A
:105400006A0000BF002084F8680000BF0320BDE8E8
:10541000F0812068C0692840A84201D1012000E045
:105420000020B842D3D00020F1E7000010B50748B3
:10543000FEF794F80122054971310448FEF75EFA3F
:105440000121024880F87D1810BD0000101C0320C7
:1054500010B50748FEF782F801220549713104486A
:10546000FEF74CFA0121024880F87D1810BD0000BB
:105470009424032010B502460AE000BF074BDB6905
:1054800003F04003002BF9D01378044CA362521CA4
:105490000B1EA1F10101F0D110BD00000050004031
:1054A000704710B503460C46194644F4807200BF9D
:1054B0004900520002F4807000B1491C01F48030B0
:1054C00010B141F22100414002F480300028EFD0B9
:1054D00088B210BD10B5FBF725FF0120FEF758FC80
:1054E000FFF7BCFA2548D0F8B400022807D1032002
:1054F0002249C1F8B400FFF709F9FFF761F81F4826
:1055000090F8B00007280CD006DC01282AD0052826
:1055100015D0062828D11CE0082809D0EE2823D170
:1055200021E00020154981F8B000FFF7EFF822E0F4
:105530000020124981F8B000FFF7E8F81BE04FF0B7
:1055400001600E49C1F8A800FEF7ACFFFFF7A8FF05
:1055500011E00B480949C1F8A800FEF7A3FFFFF7C7
:105560009FFF08E007E006E00020044981F8B00052
:10557000FFF7CCF800BF00BF10BD0000A83E03201D
:105580000000040800BFFEE770B501467D2220231D
:105590004048017000787D2807D13F48007820B945
:1055A00001203D4C2070801E70BD3B4800780128D2
:1055B00008D13848007880F02000364C2070002058
:1055C000354C207035480078002841D131480078AA
:1055D000182832D006DC012809D0022815D004286A
:1055E00033D121E041282BD061282ED12BE080201F
:1055F0002B4C2060274800782A4C20700120274C33
:105600002070294C2080801ECEE74FF48060244C0F
:10561000206020480078234C207001201F4C20700F
:10562000214C2080801EBFE700201D4C20600120FF
:105630001E4C84F87C080020B6E74FF0FF30B3E73B
:105640004FF0FF30B0E70120AEE74FF0FF30ABE79F
:1056500013480068001D144C2488A0420ADD0D4840
:105660000478114805880088401C0F4E30800D4892
:1056700044550DE0074804780B4805880088401C15
:10568000094E3080074844550120084C84F87C08B6
:10569000002089E7BF000020C0000020BE000020DD
:1056A000AC0000209C360320BC000020182D0320F5
:1056B0002DE9F04F89B081460020029000904320F0
:1056C000FFF738F9002004900026804600BF00272D
:1056D00000200390CA4600BF01F0D0FAB8F1010FD4
:1056E00001D1012000904FF0506279496846FEF7E1
:1056F00075FE10F1090F7DD010B101287BD1ABE010
:10570000002673480068B0F1FF3F01D070B906E091
:105710000620FFF70FF9002009B0BDE8F08F062042
:10572000FFF708F94320FFF705F993E0694840784F
:10573000F9B288420ED06748407830B90620FFF7AA
:10574000F9F8012003900298E6E71520FFF7F2F838
:10575000761C7EE0002F68D15D4801685D48C01C62
:10576000FBF7AAFD0FFA80FB5A4959480068001D53
:10577000095C584A56480068C01C105C01EB0020C8
:1057800000B201900198584503D01520FFF7D2F8D8
:1057900060E05048C07800283CD000254D4CE41C07
:1057A00005E014F8012B28466D1C4B490A5420785B
:1057B00008B1FF2DF5DD002228466D1C46490A542C
:1057C0000025641C05E014F8012B28466D1C05A972
:1057D0000A542078202801D0102DF4DB002228461E
:1057E0006D1C05A90A5405A8FAF7BFFD029040F206
:1057F000054101E039E04EE03648FAF78EFD06201B
:10580000FFF798F84320FFF795F80021334880F818
:105810007D181BE00620FFF78DF80120039004900F
:1058200000212E4880F87D1810E029482949C91C1C
:1058300002685046FAF758FD254800688244062061
:10584000FFF778F80021254880F87D187F1C4FF07D
:10585000010800BF00BF2CE01820FFF76BF81820EC
:10586000FFF768F86FF0020056E7B8F1000F04DDAB
:10587000761C1520FFF75EF802E04320FFF75AF888
:10588000042E07DD1820FFF755F81820FFF752F80F
:10589000002041E70DE0B8F1000F01DD761C02E0C9
:1058A0004320FFF747F8042E02DD1520FFF742F8EA
:1058B00000BF00BF039800283FF40EAF00BF00BF39
:1058C000049800283FF403AF00BF00BF029823E70D
:1058D000AC0000209C3603209C350320182D0320AB
:1058E0000FB4054B10B503A9044A029800F014FE4A
:1058F00010BC5DF814FB0000856D000870080020E6
:105900000FB4084B10B504A902AA039800F004FED6
:10591000044602A9002001F096F9204610BC5DF86B
:1059200014FB0000476C000837B514460846064BC8
:105930006A46214600F0F0FD04466946002001F069
:1059400082F920463EBD0000476C000803B4019870
:105950004100009850EAC12018BF04204A0D18BF2A
:1059600040F0010040F2FF72B2EB515F08BF40F01F
:105970000200012808BF052002B0704700487047A8
:105980007C080020000000002DE9F04D2DED040BF7
:105990002DED0A8B9AB0DDE92550279CDDF890A00B
:1059A00025F0004624F00048BAF1000F14BF012191
:1059B000002101EB4502F84953184A1093422AD3BB
:1059C000002814BF0123002303EB44030B44F349D5
:1059D0008B4220D358EA00019FEDF19B72D0DFF893
:1059E000C8B35D4503D1BAF1000F05D184E0BAF127
:1059F000000F08BF002100D0012101EB450111F586
:105A0000001F08D8002814BF0121002101EB440128
:105A100011F5001F0BD99DED261B9DED240B1AB02F
:105A2000BDEC0A8B04B0BDE8F04D00F071BC00275E
:105A3000002DBCBFDD49884521DADD498845A8BF76
:105A400002271CDAC3451ADCDA4901EB2851142974
:105A500008DDC1F1340220FA02F101FA02F28242B9
:105A60000DD108E058B9C1F1140228FA02F101FA87
:105A700002F2424503D101F00101C1F1020756EAE9
:105A80000A0120D1002C1EDA002D18BF022F01D0F0
:105A9000012F0AD0022000F077FC1AB0BDEC0A8B6F
:105AA00004B0BDE8F04D00F023BC022000F06CFC17
:105AB00000F01EFCB1EE400B1AB0BDEC0A8B04B036
:105AC000BDE8F08D18E09FEDBCAB9FEDBD8B0028CD
:105AD0007DD1B64880451CD105F1804010F580107D
